:020000040000FA
:1000000000008531B82DFF348A0120000B1D4128E6
:10001000031022000D0D2000B0003008031D12282F
:100020001030B00021008E0122008D012000300828
:10003000103A031928283008203A03192D283008CF
:10004000403A031932283008803A031937283B28F0
:100050002100390822008E003B2821003A082200A6
:100060008E003B2821003B0822008E003B28210007
:100070003C0822008E002000300822008D00200065
:100080000B112000911C8C282000CA0A4A08031D6D
:100090004D2821003D082000CB0020004A08200008
:1000A0004B022000B001031C30143008003003194B
:1000B0000130B10031080319612820004B08031DED
:1000C00064282000B001672801302000B000200023
:1000D0003008B100310C03186F2822008C12031C69
:1000E000732822008C162000B00122008C1E7A2872
:1000F0002000B00A20003008003003190130B100A0
:10010000B000300C031886282100BC11031C8A287B
:100110002100BC152000911009002000B201B3019C
:10012000B401B5014A222000931C3F2A2000B20AE4
:100130000319B30A21001C082000B600B7013608D5
:10014000B900B80121001B082000B600B70136082D
:10015000B8043708B9043808B6003908B7003608BB
:10016000B40737080318370FB50721009D14200086
:1001700032080F39031D3D2A3408B6003508B70090
:10018000B801B9013908803E803E031DD1280030F6
:100190003802031DD128F8303702031DD128003062
:1001A00036022000BA01031C3A143A080030031941
:1001B0000130B6003608031DF02808303502031D53
:1001C000E328003034022000B601B60D36080030B6
:1001D00003190130BA003A08031DF028B601F328CC
:1001E00001302000B60020003608BA003A0C03188F
:1001F000FB2822000C10031CFF2822000C142030C6
:100200002000B600BA01BB01BC010310350CBD00D3
:10021000BE011F30BD05BE013D08F9003E08FA00D1
:100220000230FB0000308F31AA2781312000C0004E
:100230007B08BF00813EBF0040080318400F063E08
:10024000C0000310350CC200340CC1000310C20CF6
:10025000C10C0310C20CC10C3F30C105C201C30167
:1002600020004308C400C50142084502031D3A2985
:1002700041084402031C602920003F08FA0040089E
:10028000FB0080308731112781312000C5007B08B9
:10029000C400C6004508C7000030C71BFF30C900B6
:1002A000C8004608B60747080318470FBA074808AA
:1002B0000318480FBB0749080318490FBC079829C2
:1002C00020003D08C400C40A0230FB004408873106
:1002D0002E2781312000C500C6014508813EC4009B
:1002E0000630C70046080318460FC7074408FA003F
:1002F0004708FB0080308731112781312000C6007C
:100300007B08C500C4004608C7000030C71BFF308B
:10031000C900C8004408B60747080318470FBA07C2
:1003200048080318480FBB0749080318490FBC07C2
:100330002000C30A40304302031C3029B401B50138
:10034000360E0F39BD003A0EBE00F039BD04BE06B0
:100350003B0EBF00F039BE04BF063C0EC000F039B2
:10036000BF04C006F030C019C0040310C01B031442
:10037000C00CBF0CBE0CBD0C0310C01B0314C00C82
:10038000BF0CBE0CBD0C3D082000EC0020003E0858
:100390002000ED00723091252000BA007B08B600E5
:1003A00020006C082000BB0020006D082000BC006D
:1003B00036083B072000EC0020003C082000ED0040
:1003C00020003A0803183A0A0319E8292000ED072B
:1003D0007D3091252000BA007B08B6003A0403194D
:1003E000242A22000C18242A7C3091252000BA00EF
:1003F0007B08B600BB0006303B0203180F2A210021
:100400003C13033020003302031D082AE830320277
:10041000031C142ACA232000B201B301142A2100AC
:100420003C172000B201B30120006C08FB006D08EE
:100430007C222000991F3D2A0130FA0020006C0820
:10044000FB006D0883243D2A22000C1C2E2A11304B
:100450002100B900CB302100BA00342AFF3021003E
:10046000BA00FF302100B900FF302100BB00FF308F
:100470002100BC0022000C128C12200093102000DE
:10048000931D472A88310020823120009311640097
:10049000932808006A30210099000E308C00220059
:1004A0008C0121008D0122008D0121008E0123008D
:1004B0000C1521009D151E169E171D149D1423005A
:1004C0008E01C330210095002000950176309125E2
:1004D0007B086924F43020009B00210091147630C1
:1004E00028009700FA30960076309E00FA309D0082
:1004F000E03020008B0008002000A8007B08A70047
:100500007C3091252000A9007B08AA000030290238
:10051000031D8C2A07302A020318BF2B7330912544
:100520002000A9007B08AA00AB002908AC0027081E
:100530002B02A7002808031C280A2C02A800803ED2
:10054000803E031DA52A80302702031CAC2A7F3081
:100550002000A700A801BB2A20002808803E813E79
:10056000031DB42A813027020318BB2A81302000E2
:10057000A700FF30A800783091252000A9007B0853
:10058000AA002708AB002808AC002B08F9002C08AB
:10059000FA002A08FB0029088F31AA27823120009F
:1005A000A9007B08AA002000EE07200029080318F4
:1005B000290A0319DD2A2000EF0777309125200052
:1005C000A9007B08AA00F9002908FA002B08FB0003
:1005D0002C088F31AA2782312000A8007B08A700B1
:1005E000AA002808A90020006E0820002A07A700FA
:1005F0002908A80020006F0803186F0A0319022BAE
:100600002000A8077B3091252000A9007B08AA00C4
:10061000290EF039AC002A0EAB000F39AC04AB0642
:100620000310AB0DAC0D0310AB0DAC0D2C08803ED0
:10063000AD002808803E2D02031D202B27082B0229
:1006400003183F2B20002B082702AA002C08031CAC
:100650002C0A2802A9002A08AD002908AE002D089E
:100660002000EE0220002E08031C2E0A03193A2B4C
:100670002000EF0220002B08A7002C08A8007A30E9
:1006800091252000A9007B08AA00290EF039AC00B2
:100690002A0EAB000F39AC04AB060310AB0DAC0D4A
:1006A0000310AB0DAC0D2808803EAF002C08803E37
:1006B0002F02031D5D2B2B08270203187C2B200023
:1006C00027082B02AA002808031C280A2C02A900CC
:1006D0002A08AD002908AE002D082000EE072000F2
:1006E0002E0803182E0A0319772B2000EF0720008D
:1006F0002B08A7002C08A8002000270E0F39A70000
:10070000280EA800F039A704A806F030A819A804FC
:100710000310A81B0314A80CA70C0310A81B031498
:10072000A80CA70C2708AA007A3091252000AB005E
:100730007B08A900AC002A020318A72B7A30912568
:100740002000A9007B08AA00AB00A700A801200098
:100750002708AA007B3091252000AB007B08A90068
:10076000AC002A082C020318C52B7B3091252000F1
:10077000A9007B08AA00AB00A700A801C52B79300F
:1007800091252000A8007B08A70020002708210051
:10079000BD0008007C3091252000A8007B08A70040
:1007A000A900063029020318682C74309125200016
:1007B000A8007B08A700AA0009302A02031CE32B2B
:1007C0000830A700E62B20002A08A70020002708F1
:1007D000AA00753091252000A8007B08A700A70A71
:1007E0000319A80A1330FB00290887312E2783310B
:1007F0002000AB000230FB002A0887312E2783310E
:100800002000A9002B07A900A90A2908912520008A
:10081000AC007B08A9002C082802031D112C290814
:100820002702031C612C2000AA0AA701A8012A089C
:10083000093A03192F2C0230FB002A0887312E2792
:1008400084312000A9002B07A900290AAC009125BA
:100850002000AD007B08AC002D04031D4B2C0230A2
:10086000FB0020002A0887312E2784312000AC00AD
:10087000AB072B0891252000AC007B08AB00FA00E9
:100880002C08FB00733062250630FA000030FB00B4
:100890007C306225682C20002A08AB00AC012B08B4
:1008A000FA002C08FB0074306225200029089125ED
:1008B0002000AA007B08A900FA002A08FB00733078
:1008C000622520002708FA002808FB007530622501
:1008D00008002000A00001302005A100210EF03901
:1008E000A2000310A20D0310A20D3C302204A100AF
:1008F0000630A0050310200CA200220AA00021044B
:1009000020009C0008002000A0007B08A1007A08BD
:10091000A2000314A01F0310031C972C21003C12FB
:100920002000A109A009A10A0319A00A992C2100FD
:100930003C160030200022040319A12C2100BC1217
:100940003C1520002008803E7D3E031DA92CE83088
:100950002102031CBF2C20002108A3002008A400B2
:100960000A30F9000030FA002308FB002408863121
:10097000382684312000A0007B08A100A2012000BD
:100980002008803E803E031DC72C64302102031CDA
:10099000F92C20002108A3002008A400A6012000B3
:1009A0002408803E803E031DD72C64302302031CA4
:1009B000E02C9C302000A307031CA403A60ACF2C24
:1009C00020002308A1002408A0000F30A605260857
:1009D0004D3EA60007300318013EA3002608FA008A
:1009E0002308FB0080308631FF2684312100B900C6
:1009F000FC2CFF302100B90020002008803E803E02
:100A0000031D042D0A30210203180F2D2000220897
:100A1000031D0F2D21003908FF3A03194B2D20002B
:100A20002108A3002008A400A60120002408803E7D
:100A3000803E031D1D2D0A302302031C262DF63097
:100A40002000A307031CA403A60A152D20002308D9
:100A5000A1002408A00026084D3EA6000730031878
:100A6000013EA3002608FA002308FB0080308631EF
:100A7000FF2685312000A40022080319422DFE30F4
:100A8000A200452DFF302000A200200022082405EE
:100A90002100BA004E2DFF302100BA0020002108AD
:100AA0004D3EA10020080318200F073EA00021089A
:100AB000FA002008FB0080308631FF2685312100B6
:100AC000BB0008002000A0007B08A1007A08A2005B
:100AD0000310200DA3002000230823009100200014
:100AE00022082300930015139513151520008B136E
:100AF000553023009600AA309600951420008B17DD
:100B00002300151123009518822D200012122000B9
:100B10002108A200A1012308A000A30A201C6B2D1C
:100B200008002000A000A101A2010310200DA300D5
:100B300020002308230091001513951315141308A2
:100B40002000A000A4012008A600A5012208A00002
:100B5000A40120082504A10024082604A2002308DB
:100B6000A000A30A201C982D2108FB0022080800E1
:100B7000C130FA000630FB00803087311127853103
:100B80002000E1007B08E000C330E2000630E30013
:100B900020006008E4006108E500FF30E007031C66
:100BA000E103640865040319352E04306207E4008C
:100BB000E501E50D6308E5076408FA006508FB0038
:100BC00080308731112785312000E7007B08E6005F
:100BD0006208FA006308FB008030873111278531F5
:100BE0002000E900E5007B08E800E400023062072D
:100BF000E400E501E50D6308E5076408FA0065080F
:100C0000FB0080308731112786312000E500EB00A2
:100C10007B08E400EA0020006608EA006708EB00B1
:100C2000FF30E607031CE7036A086B0403192F2E45
:100C30006808FA006908FB0080308631FF2686319B
:100C40002000EA0064088400650885006A088000C6
:100C5000E80A0319E90AE40A0319E50A0B2E06302B
:100C60002000E2070318E30AC82D80318D28080010
:100C70002100AC007B08AB007A08AE007908AD001B
:100C8000AF01B0010130B100B2012D082E04031DE7
:100C90004D2EFF30FB00FF30802E21002D082E0846
:100CA000B300B31B5A2E0310AD0DAE0D0310B10DE2
:100CB000B20D4D2E21003108320403197C2E2E086E
:100CC0002C02031D652E2D082B02031C742E2100FF
:100CD0003108AF0732080318320FB0072D08AB02F6
:100CE0002E08031C2E0FAC0203102100AE0CAD0C1D
:100CF0000310B20CB10C5A2E21002F08FB00300853
:100D0000080000340034D534FD34C134FE34593485
:100D1000FF34CF34FF343034003486340034D334DD
:100D200000341A3401345C3401349C340134DA3434
:100D3000013416340234513402348C340234C73452
:100D40000234023403343F3403347D340334BD347D
:100D50000334013404344834043494340434E53422
:100D600004343F340534A4340534173406349E3437
:100D70000634443407341E3408345D340934AB344B
:100D80000B340A34003403340034BC3400340134EE
:100D90000034F4340F346C34003402340034F6344C
:100DA0000F346E34003402340034F8340F34BD3460
:100DB000003401340034F9340F34BE3400340134CB
:100DC0000034FA340F34BF34003401340034FB34BF
:100DD0000F34C034003401340034FC340F34C134D7
:100DE000003401340034FD340F34C2340034013493
:100DF0000034FE340F34C334003401340034003A7C
:100E00000319062F803A03190C2F00347A08840046
:100E10007B088500000808007B088A007A088200A9
:100E20000800003A0319192F803A0319212FFB01FA
:100E300000347A0884007B0885001200FB0000085B
:100E4000080087310C27F900FA0FFB03FB0A8731F2
:100E50000C27F8007908FB00780808002100B4008E
:100E60007B08B500B6010830B7002100341C3A2FCA
:100E70003508B60721003408B8000310380CB40058
:100E80000310350DB800B5003708B8003803B700B7
:100E90003708031D352F360808000334B7340D34E6
:100EA0002534B134613441343734013421340534CC
:0A0EB000C134CD34853409345934BF
:1010000020008B1322000D082000D90021000E08BB
:101010002000DA0022008D01D83021008E0003105C
:101020002100420D2000DB00DC0120008E1F1A2869
:101030002000DC0A20005B08DD005C08DB005D04AA
:101040002100C2000310420D2000DB00DC01200063
:101050000E1E2C282000DC0A20005B08DD005C0846
:10106000DB005D042100C2000310420D2000DB0004
:10107000DC0120000E1F3E282000DC0A20005B0857
:10108000DD005C08DB005D042100C2000310420D9E
:101090002000DB00DC0120008E1D50282000DC0A2F
:1010A00020005B08DD005C08DB005D042100C2005D
:1010B0002000590822008D0020005A0821008E00CF
:1010C00020008B1721004108031DC1030D302100B2
:1010D0003E0203183C2E08308A0072303E07031887
:1010E0008A0A82007F28E928D128152930299729E2
:1010F000BB29DF29152A792A152B0B2CBB2C88300C
:10110000210042052000D900083A031D8E28323004
:101110002100C10001302100BE003E2E0030210020
:10112000420403193E2E7D308531912588312000FF
:10113000DA007B08D9005A0403193E2E333021000F
:1011400042052000D900033A031DAA2802302100DD
:10115000BE003E2E2230210042052000D900023A76
:10116000031DB62803302100BE003E2E11302100A1
:1011700042052000D900013A031DC528193021007D
:10118000C10004302100BE003E2E44302100420543
:101190002000D900403A031D3E2E07302100BE003A
:1011A0003E2E0030FA006430FB000030843183248E
:1011B0008831210039102100BC163C153330210044
:1011C00042052000D900333A03193E2E2100BE010A
:1011D0003E2E003021004104031D0A297D30853157
:1011E000912588312000DB007B08D9005B040030AA
:1011F00003190130DC00D900DB01D91BDB035908DE
:10120000FA005B08FB007D308531622589312100C1
:10121000BE013E2E8830210042052000D900883AC8
:1012200003193E2E2100BE013E2E733085319125DB
:1012300089312000DB007B08D9000130FA00590811
:10124000FB005B0884318324893122302100420570
:101250002000D900223A03193E2E2100BE013E2E65
:101260002100BC163C157C30853191258931200048
:10127000DF007B08DE005F08803E803E031D4229C0
:1012800006305E020318702919302100B900DD30E4
:101290002100BA007C308531912589312000DB00A6
:1012A0007B08D900DC000F305C05D9004D3ED90029
:1012B00007300318013EDC005908FA005C08FB0007
:1012C00080308631FF2689312100BB002100410892
:1012D000031D8C291E30C10005302100BE008C2961
:1012E00020005E08063A031D83295F08003A031DAB
:1012F0008329CD302100B900C9302100BA00FF3068
:101300002100BB008C29CD302100B9000330210021
:10131000BA00FF302100BB0011302100420520003F
:10132000D900113A03193E2E2100BE013E2E743021
:101330008531912589312000DC007B08D9000030FF
:10134000FA005908FB005C088431832489312100AC
:101350004108031DB0291930C10006302100BE002C
:101360001130210042052000D900113A03193E2E08
:101370002100BE013E2E7530853191258931200036
:10138000DC007B08D9000030FA005908FB005C083B
:1013900084318324893121004108031DD429193067
:1013A000C10004302100BE001130210042052000A0
:1013B000D900113A03193E2E2100BE013E2E210014
:1013C0003C16BC163C15063021003F020318022AC9
:1013D00019302100B900DD302100BA0021003F089A
:1013E0004D3E2000D90007300318013EDC005908AB
:1013F000FA005C08FB0080308631FF26893121002D
:10140000BB000E2A06302100BF0061302100B90068
:1014100009302100BA00C9302100BB00C8302100CA
:10142000C10008302100BE003E2E003021004104E2
:101430000319222A8830210042052000D900803A71
:10144000031D252A2100BE013E2E22302100420527
:101450002000D900203A031D4A2A063021003F020D
:101460002000D901031C5914590800300319013018
:10147000DC005C0803193E2AD901422A21003F0AF8
:101480002000D900200059082100BF0007302100AA
:10149000BE003E2E1130210042052000D900103A36
:1014A000031D6B2A21003F08003003190130200082
:1014B000D900590803195F2A0630D900632A210090
:1014C0003F032000D900200059082100BF00073049
:1014D0002100BE003E2E4430210042052000D900EC
:1014E000403A031D3E2E2100C00109302100BE00FC
:1014F0003E2E21003C16BC163C15063021003F0252
:101500000318A82A2100401C8C2A85302100B9002C
:10151000D1302100BA00922A61302100B90019307F
:101520002100BA0003102100400C2000D9004D3EDC
:10153000D90007300318013EDC005908FA005C08A6
:10154000FB0080308631FF268A312100BB000E2B44
:10155000FF302100BB000B302100400203180E2B8E
:101560000A308A00B730400703188A0A8200C22A6C
:10157000C92AD02AD72ADE2AE52AEC2AF32AFA2A0F
:10158000012B082BC9302100B900CD302100BA0051
:101590000E2B61302100B90019302100BA000E2B4A
:1015A00061302100B900C9302100BA000E2B85300E
:1015B0002100B900D1302100BA000E2B19302100D2
:1015C000B90085302100BA000E2BCD302100B900C2
:1015D00019302100BA000E2BCD302100B900B730F0
:1015E0002100BA000E2B03302100B9001930210070
:1015F000BA000E2B03302100B900CB302100BA0015
:101600000E2B03302100B900D1302100BA000E2B7F
:10161000DD302100B900D5302100BA00C8302100EA
:10162000C1000A302100BE003E2E003021004104DE
:10163000031D1D2B2100BE013E2E883021004205D6
:101640002000D900803A031D292B07302100BE005D
:101650003E2E2230210042052000D900203A031DF1
:10166000802B063021003F020318502B123021003E
:1016700040022000D901031C5914590800300319F5
:101680000130DC005C080319472BD9014B2B2100EA
:10169000400A2000D900200059082100C0007C2BFE
:1016A0000A30210040022000D901031C59145908B6
:1016B000003003190130DC005C080319612BD901EB
:1016C000652B2100400A2000D90020005908210084
:1016D000C000023A031D7C2B7C30853191258B3173
:1016E0002000DC007B08D900DD0006305D02031C11
:1016F0007C2B2100C00AC00A09302100BE003E2E0A
:101700001130210042052000D900103A031DCF2BD3
:10171000063021003F020318A32B210040080030AF
:10172000031901302000D900590803199A2B1230EF
:10173000D9009E2B210040032000D9002000590829
:101740002100C000CB2B21004008003003190130DC
:101750002000D90059080319B02B0A30D900B42B46
:10176000210040032000D900200059082100C000BA
:10177000023A031DCB2B7C30853191258B31200023
:10178000DC007B08D900DD0006305D02031CCB2B9A
:10179000FE302100C00709302100BE003E2E44303B
:1017A000210042052000D900403A031D3E2E13308F
:1017B000FB0021003F0887312E278B312000D90004
:1017C000210040082000D9075908853191258B3127
:1017D0002000DF007B08DE001330FB0021003F0803
:1017E00087312E278B312000D900210040082000AE
:1017F000D9075908FA0020005E08FB005F08502650
:101800002000DF007B08DE00C8302100C1000B3063
:101810002100BE003E2E063021003F020318272C77
:101820002100401C1D2C0030FA0020005E08FB0047
:101830005F08843183248C31B42C0130FA002000FD
:101840005E08FB005F08843183248C31B42C2100B6
:101850004008043A031D522C00302000DC00013007
:10186000D90020005E08DE1B3F2C003C0319482CE9
:101870002000D90DDC0D013E031C382C482C031030
:101880002000DC1B0314DC0CD90C013E031C3F2C94
:101890000030FA0020005908FB005C0884318324E2
:1018A0008C31B42C0230210040020318612C01302D
:1018B000FA0020005E08FB005F08843183248C312D
:1018C000B42C0A30210040020318702C0030FA00BA
:1018D00020005E08FB005F08843183248C31B42C27
:1018E00020005E08073A031D832C5F08003A031DA1
:1018F000832CCD302100B90003302100BA00FF3025
:101900002100BB00B42C20005E08063A031D962C73
:101910005F08003A031D962CCD302100B900C93074
:101920002100BA00FF302100BB00B42C1930210087
:10193000B900DD302100BA000F3020005E05200024
:10194000D900DC0159084D3ED9005C0803185C0F32
:10195000073EDC005908FA005C08FB008030863145
:10196000FF268C312100BB00C8302100C1000C30A3
:101970002100BE003E2E003021004104031DC32C77
:101980002100BE013E2E8830210042052000D900F2
:10199000803A031DCF2C09302100BE003E2E22309C
:1019A000210042052000D900203A0319DB2C5908F8
:1019B000223A031D3B2D20005F08803E7D3E031D23
:1019C000E32CE8305E022000D901031C59145908A9
:1019D000003003190130DC005C08031DF92C2000E5
:1019E0005F08803E843E031DF72C18305E0203180A
:1019F000052D0A3020005E072000D900DC01DC0D37
:101A000020005F082000DC07102D013020005E0759
:101A10002000D900DC01DC0D20005F082000DC077D
:101A2000200059082000DE0020005C082000DF00B4
:101A30001330FB0021003F0887312E278D31200015
:101A4000D900210040082000D9075908FA002000D9
:101A50005E08FB005F0850262000DF007B08DE00E8
:101A6000233028001D02031C372DFC309D070B304E
:101A70002100BE003E2E1130210042052000D90079
:101A8000103A0319472D5908113A031DAE2D2000B5
:101A90005F08803E7D3E031D4F2DE9305E02031836
:101AA000642D20005F08803E843E031D592D1930AF
:101AB0005E022000D901D90D590800300319013008
:101AC000DC005C080319742DF63020005E0720004E
:101AD000D900FF30DC0020005F0803185F0A0319FB
:101AE000732D2000DC07832DFF3020005E072000CF
:101AF000D900FF30DC0020005F0803185F0A0319DB
:101B0000832D2000DC07200059082000DE00200083
:101B10005C082000DF001330FB0021003F08873104
:101B20002E278D312000D900210040082000D90740
:101B30005908FA0020005E08FB005F0850262000CC
:101B4000DF007B08DE00233028001D02031CAA2DC5
:101B5000FC309D070B302100BE003E2E443021009A
:101B600042052000D900403A031D382E21003F08CD
:101B7000063A031D1D2E210040080A3A031D112EAE
:101B80000030FA000030FB007430853162258D3161
:101B90000030FA000030FB007530853162258D3150
:101BA00020005F08803E803E031DD82D06305E0277
:101BB00003181D2E20005E082000D9001330FB0002
:101BC000590887312E278D312000DC008531912581
:101BD0008D312000DC007B08D900FA005C08FB0096
:101BE0007330853162258D3120005E082000D900D8
:101BF0001330FB00590887312E278D312000DC007F
:101C00005C0AD900853191258E312000DC007B08EB
:101C1000D9005C04031D1D2E06302000DE00DF010C
:101C20001D2E21004008043A031D1D2E20005E08D1
:101C30002000D900843169248E311330FB0021004B
:101C40003F0887312E278E312000D900210040081F
:101C50002000D90720005E08FA005F08FB00200082
:101C60005908853162258E3109302100BE003E2E93
:101C7000FA3028009D003E2E2100BE0121003E08C2
:101C80000030031901302000D900DC005C0C03187F
:101C90004B2E20009913031C4F2E2000991708008B
:101CA0002000D6007B08D5007A08D7007230570292
:101CB000D801031C581458080319832E571C712E81
:101CC000E730F7000330F8000030F9000030FA0088
:101CD0005508FB0056086A272000D6007B08D5006F
:101CE000652FC430F7000930F8007030F900FE307D
:101CF000FA0020005508FB0056086A272000D6008D
:101D00007B08D500652F003020005804031D652F87
:101D10007D3057020318652F8E30D7070E308A00AA
:101D20009530570703188A0A8200A02EB22EC42EBF
:101D3000D62EE82EFA2E0C2F1E2F302F422F542F86
:101D40003230F7000030F800CE30F900FF30FA00F2
:101D500020005508FB0056086A272000D6007B08A3
:101D6000D500652FC430F7000930F8007030F90055
:101D7000FE30FA0020005508FB0056086A272000B4
:101D8000D6007B08D500652F0830F7000030F8003A
:101D90000030F9000030FA0020005508FB0056081A
:101DA0006A272000D6007B08D500652FE730F700B2
:101DB0000330F8000030F9000030FA002000550828
:101DC000FB0056086A272000D6007B08D500652F47
:101DD0000630F7000030F8000030F9000030FA005B
:101DE00020005508FB0056086A272000D6007B0813
:101DF000D500652F8030F7000030F8000030F90082
:101E00000030FA0020005508FB0056086A27200021
:101E1000D6007B08D500652F4030F7000030F80071
:101E20000030F9000030FA0020005508FB00560889
:101E30006A272000D6007B08D500652FFF30F70009
:101E40000030F8000030F9000030FA00200055089A
:101E5000FB0056086A272000D6007B08D500652FB6
:101E6000FF30F7000030F8000030F9000030FA00D1
:101E700020005508FB0056086A272000D6007B0882
:101E8000D500652FFF30F7000030F8000030F90072
:101E90000030FA0020005508FB0056086A27200091
:101EA000D6007B08D500652F0730F7000030F8001A
:101EB0000030F9000030FA0020005508FB005608F9
:101EC0006A272000D6007B08D50020005508FB00BB
:101ED000560808002000CD007B08CC007A08CF000F
:101EE0007908CE007808D1007708D0005108803EEC
:101EF000D2004D08803E5202031D802F4C08500234
:101F00000318882F20004E08D2004F08D300A52FB9
:101F100020004D08803ED4004F08803E5402031D2F
:101F2000932F4E084C0203189B2F20005008CE0020
:101F30005108CF00A02F20004C08CE004D08CF0044
:101F400020004E08D2004F08D30020005208FB00AA
:101F5000530808002100A1007B08A0007A08A30014
:101F60007908A200A401A5010830A60021002008DC
:101F7000A7002108A800271CC32F2208A4072308B4
:101F80000318230FA50721002008A7002108A80097
:101F90000030A81BFF30AA00A900281CDC2FA701D5
:101FA0002408A9002508AA0000302907A400220857
:101FB000A8000318280FA50721002008A700210862
:101FC000A8000310280CA100270CA0000310A20DEC
:101FD000A30D2608A7002703A6002608031DB62F79
:101FE0002408FB00250808000034003400340034C5
:0E1FF000003400340034003400340034003477
:020000040001F9
:02000E00DC0F05
:02001000FF3AB5
:00000001FF
