:020000040000FA
:1000000000008631C32EFF348A0120000B1D4128D9
:10001000031022000D0D2000B4003408031D122827
:100020001030B40021008E0122008D012000340820
:10003000103A031928283408203A03192D283408C7
:10004000403A031932283408803A031937283B28EC
:1000500021002D0822008E003B2821002E082200BE
:100060008E003B2821002F0822008E003B28210013
:10007000300822008E002000340822008D0020006D
:100080000B112000911C8C282000C20A4208031D7D
:100090004D28210031082000C30020004208200024
:1000A00043022000B401031C341434080030031947
:1000B0000130B50035080319612820004308031DED
:1000C00064282000B401672801302000B40020001B
:1000D0003408B500350C03186F2822008C12031C5D
:1000E000732822008C162000B40122008C1E7A286E
:1000F0002000B40A20003408003003190130B50094
:10010000B400340C031886282100B011031C8A287F
:100110002100B0152000911009002000B601B701A0
:10012000FF30B8007F30B900FF30BA007F30BB002D
:10013000F722093021009D002000931DB22888314C
:100140000020803128001719B028FF302100B000AE
:1001500003302100AD0059302100AF002100AE0076
:10016000200093112000931CEA292000B60A0319ED
:10017000B70A361CC7283808F7003908B92220000A
:10018000B9007708B800053021009D00D328200071
:100190003A08F7003B08B9222000BB007708BA00F4
:1001A000093021009D00200036080F39031DE82981
:1001B0003808F7003908ED212000BD007708BC00A1
:1001C00072309C262000BF007708BE003C08C000AB
:1001D0003D08C1003E0840072000EC002000410817
:1001E0002000ED0020003F0803183F0A0319FA28F9
:1001F0002000ED0720003A08F7003B08ED21200021
:10020000BD007708BC0073309C262000BF00770833
:10021000BE003C08C0003D08C1003E084007200069
:10022000EE00200041082000EF0020003F080318E6
:100230003F0A03191D292000EF0720003908BC00E0
:10024000BD0100303D02031D2729F8303C0220008B
:10025000BE01031C3E143E08003003190130BF00EC
:100260003F08031D762900303D02031D392909305E
:100270003C022000BE01BE0D3E08003003190130D3
:10028000BC003C08031D76297D309C262000BE0062
:100290007708BC003E04031973293B08BC00BE016B
:1002A00000303E02031D5629F8303C022000BF01F9
:1002B000031C3F143F08003003190130C000400800
:1002C000031D762900303E02031D682909303C02D7
:1002D0002000BF01BF0D3F08003003190130BC00F2
:1002E0003C08031D76292000BC017929013020003B
:1002F000BC0020003C08BF003F0C031881292200ED
:100300000C10031C852922000C1422000C1C9729B8
:1003100005302100AD00CB302100AE00FF302100C0
:10032000AF002100B00022000C128C12E8297E30B0
:100330009C262000BF007708BC00C00006304002A9
:100340000318B22921003013033020003702031DA7
:10035000AB29E8303602031CB7298A242000B601F5
:10036000B701B729210030172000B601B7012000DE
:100370006C08F7006D083C232000991FE829200035
:10038000BC0123001E1FC6292000BC0A20003C0817
:10039000003003190130BF00BC003C0C0318D22907
:1003A0002100B010031CD6292100B01423001E1F09
:1003B000E1290130F60020006E08F7006F081D25C6
:1003C000E8290130F60020006C08F7006D081D25B3
:1003D0002000931064009C2808002000A0007708EB
:1003E000A1002030A200A301A401A601210E0F3913
:1003F000A500200EA700F039A504A7060310A70C3E
:10040000A50C3F30A505A7012508A9000310200C65
:10041000A500A7010310A70CA50C0310A70CA50CA1
:100420001F302505A100A0012108A500250AA10073
:100430000230F70021088E31302682312000A000E2
:10044000A7012008C13EA0000D30A1002708031815
:10045000270FA1070230F70025088E3130268231A0
:100460002000A700A8012708C13EA7000D30A50065
:1004700028080318280FA507A8012000290828022A
:10048000031C652A2708F6002508F70080308E3106
:10049000132682312000AB007708AA00AC002B089D
:1004A000AD000030AD1BFF30AE00AF002C08A2073E
:1004B0002D0803182D0FA3072F0803182F0FA407CB
:1004C0002E0803182E0FA607882A20002008F60001
:1004D0002108F70080308E31132682312000AB00D6
:1004E0007708AA00AC002B08AD000030AD1BFF3030
:1004F000AE00AF002C08A2072D0803182D0FA3078C
:100500002F0803182F0FA4072E0803182E0FA60775
:100510002000A80A40302802031C3D2A220E0F3971
:10052000A100230EA000F039A104A006240EA5000E
:10053000F039A004A506260EA700F039A504A706E9
:10054000F030A719A7040310A71B0314A70CA50CD0
:10055000A00CA10C0310A71B0314A70CA50CA00C46
:10056000A10C2108A2002008A3002208F7002308FC
:1005700008002000A0007708A10021009D142100A0
:100580009D18BF2A1D102000210E0F39A200200E39
:10059000A300F039A204A3060310A30CA20C0310BD
:1005A000A30CA20C2208A1022308031C230FA00203
:1005B00021001C082000A200A3012208A400A6011B
:1005C00021001B082000A200A3012208A604230882
:1005D000A4042608A2002408A3002208A1072308D7
:1005E0000318230FA0072108F700200808006A302D
:1005F000210099000E308C0022008C0121008D0119
:1006000022008D0121008E01063023008C00210084
:100610001E169E1723008E01C33021009500200076
:10062000950177309C262000A7007708A900A80034
:100630000325F43020009B00210091147230280023
:1006400097007F309C262000A7007708A900A8000B
:10065000280C03182D2B28001711031C312B280000
:100660001715FA302800960076309E00FA309D006B
:10067000E03020008B0008002000A7007708A900C8
:100680007E309C262000A8007708AB0000302802AE
:10069000031D4C2B07302B0203187F2C74309C2633
:1006A0002000A8007708AB00AA002808AC002908A1
:1006B0002A02A9002708031C270A2C02A700803E53
:1006C000803E031D652B80302902031C6C2B7F307C
:1006D0002000A900A7017B2B20002708803E813E37
:1006E000031D742B8130290203187B2B81302000DD
:1006F000A900FF30A70079309C262000A8007708C9
:10070000AB002908AA002708AC002A08F5002C082D
:10071000F6002B08F700280887319E278331200038
:10072000A8007708AB0021002B082000AD002100B5
:100730002C082000AE002B082D072100AB00200064
:100740002E082100AC00200028080318280A0319ED
:10075000AB2B2100AC0778309C262000A80077083E
:10076000AB00F5002808F6002A08F7002C088731AE
:100770009E2783312000A7007708A90021002B08BD
:100780002000A90721002C0803182C0A0319CA2BE2
:100790002000A7077C309C262000A8007708AB002B
:1007A000280EF039AC002B0EAA000F39AC04AA06B3
:1007B0000310AA0DAC0D0310AA0DAC0D2C08803E41
:1007C000AF002708803E2F02031DE82B29082A02CC
:1007D0000318032C20002A082902AB002C08031C54
:1007E0002C0A2702A8002B082100AB0220002808B1
:1007F000031C280A0319FE2B2100AC0220002A0842
:10080000A9002C08A7007B309C262000A8007708B0
:10081000AB00280EF039AC002B0EAA000F39AC0447
:10082000AA060310AA0DAC0D0310AA0DAC0D2708E3
:10083000803EAF002C08803E2F02031D212C2A0889
:10084000290203183C2C200029082A02AB002708A3
:10085000031C270A2C02A8002B082100AB0720004C
:1008600028080318280A0319372C2100AC07200098
:100870002A08A9002C08A7002000290E0F39A9007A
:10088000270EA700F039A904A706F030A719A7047E
:100890000310A71B0314A70CA90C0310A71B031418
:1008A000A70CA90C2908AB007B309C262000AA00CD
:1008B0007708A800AC002B020318672C7B309C261D
:1008C0002000A8007708AB00AA00A900A70120001B
:1008D0002908AB007C309C262000AA007708A800DD
:1008E000AC002B082C020318852C7C309C262000A1
:1008F000A8007708AB00AA00A900A701852C7A30D0
:100900009C262000A7007708A900200029082100C4
:10091000B10008007E309C262000AC007708AD00B6
:10092000AE0006302E020318022D75309C262000E2
:10093000AC007708AD00AF0076309C262000AC00FC
:100940007708AD00AD0A0319AC0A09302F02031C69
:10095000AB2C0830AF001330F70020002E088E318A
:10096000302684312000B00003102F0DAE00300778
:10097000AE002E0AB0009C262000B1007708B0001F
:1009800002302E07B2009C262000B3007708B20088
:1009900031082C02031DCE2C30082D02031CFB2C29
:1009A00020003208F6003308F70074305F2620007C
:1009B0002F08083A0319E72C0330AE072E089C26AF
:1009C0002000B0007708AE003004031DEE2C063086
:1009D000F6000030F7007E305F26022D2000AD01CA
:1009E000AC01AF0A2F08AE00B0012E08F6003008A7
:1009F000F70075305F2620002D08F6002C08F70060
:100A000076305F2608002000A00001302005A100FC
:100A1000210EF039A2000310A20D0310A20D3C30EC
:100A20002204A1000630A0050310200CA200220A17
:100A3000A000210420009C0008002000A9007708E5
:100A4000A8007608AB000314A91F0310031C312D66
:100A5000210030122000A809A909A80A0319A90A2F
:100A6000332D21003016003020002B0403193B2DBC
:100A70002100B012301120002908803E7D3E031D68
:100A8000432DE8302802031C532D20002808AA001B
:100A90002908AC002A08F7002C08F6252000A90038
:100AA0007708A800AB0120002908803E803E031D86
:100AB0005B2D64302802031C8F2D20002808AA001B
:100AC0002908AC00AD0120002C08803E803E031DAB
:100AD0006B2D64302A02031C742D9C302000AA0761
:100AE000031CAC03AD0A632D20002A08A8002C08C3
:100AF000A9000F30AD052D08E83EAD000730031802
:100B0000013EAA002D08F6002A08F70080308E3139
:100B1000012685312000AC002100AD00922DFF3070
:100B20002100AD0020002908803E803E031D9A2D43
:100B30000A3028020318A72D20002B08031DA72D1B
:100B400021002D082000AA00FF3A0319DD2D200006
:100B50002808AA002908AC00AD0120002C08803E1E
:100B6000803E031DB52D0A302A02031CBE2DF6302F
:100B70002000AA07031CAC03AD0AAD2D20002A08F3
:100B8000A8002C08A9002D08E83EAD000730031886
:100B9000013EAA002D08F6002A08F70080308E31A9
:100BA000012685312000AC002100AE0020002B087A
:100BB0000319E02D21002E10E02DFF302100AE00A2
:100BC00020002808AB00E83EA80007300318013ECB
:100BD000A9002808F6002908F70080308E31012688
:100BE00085312000AB002100AF0008002000A000EC
:100BF0007708A1000310200CA200210CA300031011
:100C0000200CA400210CA6000310A40CA60C26089E
:100C1000A30724080318240FA207230E0F39A600E8
:100C2000220EA400F039A604A4062608A30724086F
:100C30000318240FA2072208A600A4012608A30770
:100C400024080318240FA2070310A20CA30C0310FE
:100C5000A20CA30C0310A20CA30C0310230DA600DE
:100C6000220DA4000310A60DA40D0310A60DA40DC3
:100C70000310230DA500220DA7002508A6072708AD
:100C80000318270FA4072608A1022408031C240F19
:100C9000A0020630A1070318A00A210E0F39A600F2
:100CA000200EA400F039A604A4062608A3072408F1
:100CB0000318240FA2072308F700220808002000C9
:100CC000A7007708A9007608A80027089C2620001E
:100CD000AB007708AA002806031D722E2B082906F0
:100CE00003199B2E03102000270DAA0020002A08BC
:100CF000230091002000280823009300151395136A
:100D0000151520008B13553023009600AA3096004D
:100D1000951420008B1723001511230095188D2E94
:100D20002000121220002908A800A9012A08A70003
:100D3000AA0A271C762E08002000A000A101A2010B
:100D40000310200DA3002000230823009100151399
:100D50009513151413082000A000A4012008A60074
:100D6000A5012208A000A40120082504A100240850
:100D70002604A2002308A000A30A201CA32E2108F9
:100D8000F700220808007D30F6000D30F7008030B3
:100D90008E31132686312000DC007708DB007F309F
:100DA000DD000D30DE0020005B08DF005C08E000A5
:100DB000FF30DB07031CDC035F0860040319402FCE
:100DC00004305D07DF00E001E00D5E08E0075F082A
:100DD000F6006008F70080308E311326863120003F
:100DE000E2007708E1005D08F6005E08F700803059
:100DF0008E31132686312000E400E0007708E300FE
:100E0000DF0002305D07DF00E001E00D5E08E00773
:100E10005F08F6006008F70080308E3113268731B6
:100E20002000E000E6007708DF00E5002000610810
:100E3000E5006208E600FF30E107031CE2036508F5
:100E4000660403193A2F6308F6006408F70080303F
:100E50008E31012687312000E5005F08840060089C
:100E6000850065088000E30A0319E40ADF0A031914
:100E7000E00A162F06302000DD070318DE0AD32E05
:100E800080318D280800C934CD34FF34CE34FF348E
:100E900032340034C934CD340D34CE34FF343234DE
:100EA000003461341934FF347034FE34783405343E
:100EB0006134C934FF3400340034083400348534DC
:100EC000D134FF3400340034E7340334193485342A
:100ED000FF340034003406340034CD341934FF3488
:100EE0000034003480340034CD34B734FF3400345F
:100EF00000344034003403341934FF3400340034F7
:100F0000FF3400340334CB34FF3400340034FF3476
:100F1000003403349134FF3400340034FF3400349F
:100F20001934C134FF340034003401340034DD346A
:100F3000D534FF3400340034073400342100A100DC
:100F40007708A0007608A3007508A200A401A501F7
:100F50000830A60021002008A7002108A800271CAF
:100F6000B72F2208A40723080318230FA507210081
:100F70002008A7002108A8000030A81BFF30AA0005
:100F8000A900281CD02FA7012408A9002508AA0021
:100F900000302907A4002208A8000318280FA5077D
:100FA00021002008A7002108A8000310280CA10098
:100FB000270CA0000310A20DA30D2608A7002703ED
:100FC000A6002608031DAA2F2408F70025080800FC
:100FD0000334B7340D342534B134613441343734FB
:100FE000013421340034003400340034003400343F
:0E0FF000003400340034003400340034003487
:1010000020008B1322000D082000D30021000E08C1
:101010002000D40022008D01D83021008E00031062
:101020002100360D2000D500D60120008E1F1A2881
:101030002000D60A20005508D7005608D5005704CE
:101040002100B6000310360D2000D500D601200087
:101050000E1E2C282000D60A20005508D70056085E
:10106000D50057042100B6000310360D2000D5002E
:10107000D60120000E1F3E282000D60A2000550869
:10108000D7005608D50057042100B6000310360DCE
:101090002000D500D60120008E1D50282000D60A41
:1010A00020005508D7005608D50057042100B60087
:1010B0002000530822008D002000540821008E00DB
:1010C00020008B1721003508031DB5030D302100CA
:1010D00032020318712C08308A007230320703186C
:1010E0008A0A82007F28E928D1283A2955297B29B4
:1010F0009F29C329CF29132AAC2A4F2B982B88303C
:10110000210036052000D300083A031D8E28323016
:101110002100B50001302100B200732C0030210005
:1011200036040319732C7F3086319C2688312000C9
:10113000D4007708D30054040319732C33302100F2
:1011400036052000D300033A031DAA2802302100EF
:10115000B200732C2230210036052000D300023A61
:10116000031DB62803302100B200732C113021007A
:1011700036052000D300013A031DC528193021008F
:10118000B50004302100B200732C44302100360534
:101190002000D300403A031D732C07302100B20019
:1011A000732C0030F6006430F700003085311D25C7
:1011B000883121002D102100B01630153330210068
:1011C00036052000D300333A0319732C2100B201F5
:1011D000732C003021003504031D19297F3086311E
:1011E0009C2688312000D5007708D300D600560809
:1011F000003003190130D300D700D801D71BD80322
:101200005708F6005808F7007F3086315F2689318D
:10121000200056080319152922000C100C128C12FC
:101220002800171120009310162901002100B20197
:10123000732C8830210036052000D300883A03192A
:10124000732CD30123001E1F27292000D30A20005E
:101250005308003003190130D600D300530C031893
:10126000332923001E13031C372923001E172100D6
:10127000B201732C743086319C2689312000D6004F
:101280007708D3000130F6005308F700560885317F
:101290001D2589312230210036052000D300223A55
:1012A0000319732C2100B201732C7E3086319C26E9
:1012B00089312000D6007708D300D7000030F7002E
:1012C0005708852406302000570203187029210092
:1012D0003508031D70291130B50005302100B2001A
:1012E0001130210036052000D300113A0319732C68
:1012F0002100B201732C753086319C268931200083
:10130000D6007708D3000030F6005308F7005608DF
:1013100085311D25893121003508031D9429193097
:10132000B50006302100B200113021003605200042
:10133000D300113A0319732C2100B201732C7630BB
:1013400086319C2689312000D6007708D3000030F2
:10135000F6005308F700560885311D258931210014
:101360003508031DB8291930B50004302100B2003A
:101370001130210036052000D300113A0319732CD7
:101380002100B201732C0130F700210033088524BD
:10139000C8302100B50008302100B200732C0030A5
:1013A000210035040319DC2988302100360520008E
:1013B000D300803A031DDF292100B201732C2230B3
:1013C000210036052000D300203A031DF129210019
:1013D000B30A073033020318B30107302100B2000B
:1013E000732C1130210036052000D300103A031D64
:1013F000052A2100B30307303302031C012A0630FB
:10140000B30007302100B200732C443021003605B0
:101410002000D300403A031D732C2100B401093091
:101420002100B200732C21003016B01630150630A2
:10143000210033020318442A2100341C262A853057
:101440002100AD00D1302100AE002C2A61302100F6
:10145000AD0019302100AE0003102100340C200033
:10146000D300E83ED30007300318013ED6005308EE
:10147000F6005608F70080308E3101268A312000B0
:10148000D7002100AF00A52A0730F700210034085B
:101490008E3130268A312000D300D6015308433ED6
:1014A000D30056080318560F073ED6005308F6001F
:1014B0005608F70080308E3101268A312000D7008F
:1014C0002100AD000730F700210034088E313026AE
:1014D0008A312000D300D6015308433ED30056087A
:1014E0000318560F073ED600D30A0319D60A53082D
:1014F000F6005608F70080308E3101268A31200030
:10150000D7002100AE000730F700210034088E31EB
:1015100030268A312000D300D6015308433ED30041
:1015200056080318560F073ED6000230D30703189B
:10153000D60A5308F6005608F70080308E3101268F
:101540008A312000D7002100AF00C8302100B5004B
:101550000A302100B200732C003021003504031D35
:10156000B42A2100B201732C8830210036052000F6
:10157000D300803A031DC02A07302100B200732C2B
:101580002230210036052000D300203A031DE12A35
:101590002100B40A0630210033020318D62A133082
:1015A00021003402031CDD2AB401DD2A0D302100A4
:1015B0003402031CFF2AB401FF2A09302100B200C3
:1015C000732C1130210036052000D300103A031D82
:1015D0001F2B2100B4030630210033020318F82A20
:1015E000133021003402031C1B2B1230B4001B2BC0
:1015F0000D3021003402031CFF2A0C30B4007E3071
:1016000086319C268B312000D6007708D300D70086
:1016100006305702031C1B2B21003408033A031D1C
:10162000142BB40AB40A1B2B21003408043A031DFE
:101630001B2BFE30B40709302100B200732C44305C
:10164000210036052000D300403A031D732C1330CF
:10165000F700210033088E3130268B312000D30073
:10166000210034082000D307530886319C268B3193
:101670002000DA007708D90020005308F600200087
:101680005908F7005A08CE242000DA007708D9005C
:10169000C8302100B5000B302100B200732C063099
:1016A0002100330203186B2B2100341C612B003006
:1016B000F60020005908F7005A0885311D258B31A6
:1016C000912B0130F60020005908F7005A088531A7
:1016D0001D258B31912B03302100340203187A2B06
:1016E0000130F60020005908F7005A0885311D2501
:1016F0008B31912B0C30210034020318892B0030E0
:10170000F60020005908F7005A0885311D258B3155
:10171000912B200059082000D3000030F700530817
:101720008524C8302100B5000C302100B200732C94
:101730001330F700210033088E3130268B31200022
:10174000D300210034082000D30721003508031DF1
:10175000AC2B2100B201732C88302100360520000B
:10176000D600803A031DB82B09302100B200732C3B
:101770002100B61ECE2B2000D90A0319DA0A5A0816
:10178000803E7D3E031DC62BE9305902031CE42B2D
:1017900009302000D9070318DA0AE42B2100361E8D
:1017A000FB2BFF302000D907031CDA035A08803EC8
:1017B0007D3E031DDD2BE9305902031CE42BF7307D
:1017C0002000D907031CDA0320005308F60020008C
:1017D0005908F7005A08CE242000DA007708D9000B
:1017E0001F3028001D02031CF72BF8309D070B301B
:1017F0002100B200732C4430210036052000D600B1
:10180000403A031D6D2C21003308063A031D5F2C5E
:10181000210034080C3A031D532C0030F600003030
:10182000F700753086315F268C310030F6000030CD
:10183000F700763086315F268C3120005A08803ED2
:10184000803E031D252C0630590203185F2C200012
:1018500059082000D6001330F70056088E31302684
:101860008C312000D70086319C268C312000D80096
:101870007708D600F6005808F700743086315F26E6
:101880008C312000D70A570886319C268C312000E5
:10189000D7007708D6005704031D5F2C06302000C0
:1018A000D900DA015F2C21003408053A031D5F2CB2
:1018B000200059082000D600853103258C312000F6
:1018C0005908F6005A08F7002000530886315F26B1
:1018D0008C3109302100B200732CFA3028009D00B1
:1018E000732C2100B20121003208003003190130AD
:1018F0002000D300D600560C0318802C200099132A
:10190000031C842C2000991708002000C5007708CC
:10191000C40021003016B0163015B0140630200077
:1019200045020318AC2C19302100AD00DD30210038
:10193000AE0020004508E83EC70007300318013E0E
:10194000C6004708F6004608F70080308E310126B1
:101950008C312100AF00CD2C00302000440403194D
:10196000BB2C61302100AD0009302100AE00C93030
:101970002100AF00CD2CCD302100AD00FF30210083
:10198000AF000730200045020318CA2CC9302100DF
:10199000AE00CD2C03302100AE0008002000CC00AA
:1019A0007708CB007608CD0072304D020318FD2C6D
:1019B0004D1CEB2CE730F3000330F4000030F50051
:1019C0000030F6004B08F7004C0849252000CC00F9
:1019D0007708CB00442D7830F3000530F4007030E8
:1019E000F500FE30F60020004B08F7004C084925B2
:1019F0002000CC007708CB00442D8E302000CD078E
:101A00000730F7004D088E3130268D312000CE0092
:101A1000CF014E08433ECD000730D0004F080318D9
:101A20004F0FD00703304D07CE00CF01CF0D500828
:101A3000CF074E08F6004F08F70080308E3113268E
:101A40008D312000D2007708D1000530CD07031872
:101A5000D00A4D08F6005008F70080308E3113266A
:101A60008D312000CF007708CE00F3004F08F4003E
:101A70005108F5005208F6004B08F7004C084925BC
:101A80002000CC007708CB0020004B08F7004C0862
:101A900008002000C5007708C4007608C700750854
:101AA000C6007408C9007308C8004908803ECA000F
:101AB0004508803E4A02031D5F2D44084802031872
:101AC000662D20004608F70047087C2D20004508B9
:101AD000803ECA004708803E4A02031D712D460819
:101AE00044020318782D20004808F70049087C2D8F
:101AF00020004408F700450808000B340034033484
:101B00000034B034003401340034F23407346C341F
:101B1000003402340034F43407346E3400340234B8
:101B20000034F6340734AB34003402340034F83473
:101B30000734B134003401340034F9340734B2349A
:101B4000003401340034FA340734B334003401343F
:101B50000034FB340734B434003401340034FC3432
:101B60000734B534003401340034FD340734B6345E
:101B7000003401340034FE340734B7340034013407
:101B80000034003400341A34FE349D34FE34F23410
:101B9000FE343334FF346934FF349834FF34C334B3
:101BA000FF34EB34FF341034003433340034553414
:101BB00000347734003498340034B8340034D934E5
:101BC0000034FA3400341C3401343E3401346234BD
:101BD000013487340134AF340134D934013407344B
:101BE00002343934023470340234B0340234FB34F9
:101BF000023458340334D134033482340434CA34C4
:101C00000534003A0319082E803A03190E2E0034C9
:101C100076088400770885000008080077088A00A5
:101C2000760882000800003A03191B2E803A031937
:101C3000232EF7010034760884007708850012000F
:101C4000F700000808008E310E26F500F60FF703A6
:101C5000F70A8E310E26F4007508F70074080800A4
:101C60002000E7007708E800E9010830EA002000DA
:101C7000671C3C2E6808E90720006708EB0003108A
:101C80006B0CE7000310680DEB00E8006A08EB003E
:0E1C90006B03EA006A08031D372E690808007E
:020000040001F9
:02000E00D40F0D
:02001000FF3AB5
:00000001FF
