:020000040000FA
:1000000000008531372DFF348A0120000B1D412867
:10001000031022000D0D2000AC002C08031D122837
:100020001030AC0021008E0122008D0120002C0830
:10003000103A031928282C08203A03192D282C08D7
:10004000403A031932282C08803A031937283B28F4
:100050002200280822008E003B28220029082200C6
:100060008E003B2822002A0822008E003B28220016
:100070002C0822008E0020002C0822008D00200079
:100080000B112000911C932822002E08031D4E28DE
:1000900022002D082200AF002200AE0A22002E0806
:1000A00022002F022000AC01031C2C142C0800306D
:1000B00003190130AD00AC002C0C0318612822009C
:1000C0008C12031C652822008C162000AC01220033
:1000D0008C1E6C282000AC0A20002C08003003196C
:1000E0000130AD00AC002C0C031878282200AC11B4
:1000F000031C7C282200AC152000AC012800171D31
:1001000083282000AC0A20002C08AD002D0C031819
:100110008B2822000C12031C8F2822000C162200B0
:10012000AE0A20009110090020008B1322000D0858
:100130002000E10021000E082000E20022008D01D5
:10014000D83021008E0003102200380D2000E3007B
:10015000E40120008E1FAE282000E40A200063087E
:10016000E5006408E30065042200B8000310380DC0
:100170002000E300E40120000E1EC0282000E40A55
:1001800020006308E5006408E30065042200B8006D
:100190000310380D2000E300E40120000E1FD228D8
:1001A0002000E40A20006308E5006408E300650419
:1001B0002200B8000310380D2000E300E401200005
:1001C0008E1DE4282000E40A20006308E50064088E
:1001D000E30065042200B8002000610822008D00C1
:1001E0002000620821008E0020008B1722003608B4
:1001F000031DB6030730220034020318382B0130E8
:100200008A000630340703188A0A82000D295D2906
:10021000CB293B2A5E2A0D2B212B443022003805A6
:100220002000E100403A031D212900302200330460
:1002300003191E2905302200B400212901302200B3
:10024000B4002230220038052000E100223A031DCC
:10025000372920006B082000E10020006C082000F6
:10026000E2000030FA006108FB0062084C23113004
:10027000220038052000E100113A031D4D2920001D
:100280006D082000E10020006E082000E200003030
:10029000FA006108FB0062084C2388302200380510
:1002A0002000E100883A031D3A2B0030FA002200BA
:1002B0002008FB0021084C233A2B22002C16AC16F8
:1002C0002C150330220035020318BB290530FB0032
:1002D00035088731122781312000E100E2016108F1
:1002E000C13EE10062080318620F003EE2006108AF
:1002F0008400620885000008E3002200A8000530A1
:10030000FB00220035088731122781312000E100EF
:10031000E2016108C13EE10062080318620F003E7D
:10032000E200E10A0319E20A61088400620885001C
:100330000008E3002200A9000530FB002200350878
:100340008731122781312000E100E2016108C13EBE
:10035000E10062080318620F003EE2000230E1078C
:100360000318E20A61088400620885000008E300BF
:100370002200AA00C429DD302200A800D5302200C6
:10038000A900FF302200AA00C8302200B6000230C7
:100390002200B4003A2B003022003604031DD3297A
:1003A0002200B4013A2B8830220038052000E100F9
:1003B000803A031DDE292200B4013A2B22302200AC
:1003C00038052000E100203A031DF3290330220004
:1003D0003502031CED29B501EF292200B50A0130D1
:1003E0002200B4003A2B1130220038052000E10031
:1003F000103A031D082A22003508031D022A033083
:10040000B500042A2200B50301302200B4003A2BC3
:100410004430220038052000E100403A031D3A2B09
:1004200003302200B40022003508031D1C2A2200DC
:1004300030082200B7003A2B22003508013A031D8C
:10044000262A220031082200B7003A2B2200350864
:10045000023A031D302A220032082200B7003A2B4C
:1004600022003508033A031D3A2B01302200B30065
:100470002200B4013A2B22003508023A031D4C2A0F
:10048000220037082000E100E2010130FA00610893
:10049000FB0062084C23572A220037082000E100A5
:1004A000E2010030FA006108FB0062084C23C8300A
:1004B0002200B60004302200B4003A2B00302200A3
:1004C0003604031D662A2200B4013A2B883022002C
:1004D00038052000E100803A031D722A0130220015
:1004E000B4003A2B2200B81EAB2A0530FB002200D4
:1004F00035088731122782312000E100E2016108CE
:10050000C13EE10062080318620F003EE2000430C1
:100510006107E300E401E40D6208E4076308840076
:10052000640885000008E50022003702031CA52AA4
:1005300003302000E1070318E20A61088400620822
:10054000850000082200B700A72A2200B70A03305E
:100550002200B4003A2B2200381EE52A0530FB00A9
:10056000220035088731122782312000E100E201A4
:100570006108C13EE10062080318620F003EE2001C
:1005800003306107E300E401E40D6208E407630857
:100590008400640885000008E50022003708200078
:1005A0006502031CDF2A0430E1070318E20A610830
:1005B00084006208850000082200B700E12A2200BA
:1005C000B70303302200B4003A2B44302200380530
:1005D0002000E100403A031D3A2B22003508031D9C
:1005E000F62A220037082200B000092B2200350825
:1005F000013A031D002B220037082200B100092B0D
:1006000022003508023A031D092B22003708220078
:10061000B20001302200B4003A2B22002C16AC1696
:100620002C1549302200A800D5302200A9008530C1
:100630002200AA00C8302200B60006302200B40012
:100640003A2B003022003604031D292B2200B4016E
:100650003A2B4430220038052000E100403A031DC7
:100660003A2B2200B3012200AC142200B4013A2B31
:100670002200B401220034080030031901302000A8
:10068000E100E200620C0318472B20009913031CC1
:100690004B2B2000991708002000DC007B08DB00B2
:1006A0007A08DD000314DC1F0310031C602B2200FA
:1006B0002C122000DB09DC09DB0A0319DC0A622B9F
:1006C00022002C16003020005D0403196A2B220042
:1006D000AC122C1520005C08803E7D3E031D722B61
:1006E000E8305B02031C822B20005B08DE005C0804
:1006F000DF005E08FB005F0825242000DC007B088B
:10070000DB00DD0120005C08803E803E031D8A2B5B
:1007100064305B02031CBE2B20005B08DE005C081B
:10072000DF00E00120005F08803E803E031D9A2B21
:1007300064305E02031CA32B9C302000DE07031CE8
:10074000DF03E00A922B20005E08DB005F08DC007C
:100750000F30E0056008F23EE0000F300318013E64
:10076000DE006008FA005E08FB0080308631E32678
:1007700083312000DF002200A800C12BFF302200BF
:10078000A80020005C08803E803E031DC92B0A3073
:100790005B020318D62B20005D08031DD62B220018
:1007A00028082000DE00FF3A03190C2C20005B080B
:1007B000DE005C08DF00E00120005F08803E803E34
:1007C000031DE42B0A305E02031CED2BF6302000E3
:1007D000DE07031CDF03E00ADC2B20005E08DB00E1
:1007E0005F08DC006008F23EE0000F300318013EB5
:1007F000DE006008FA005E08FB0080308631E326E8
:1008000084312000DF002200A90020005D080319C8
:100810000F2C220029100F2CFF302200A9002000ED
:100820005B08DD00F23EDB000F300318013EDC0008
:100830005B08FA005C08FB0080308631E3268431D7
:100840002000DD002200AA0008002000D4007B0860
:10085000D3000310540CD600530CD5000310540CD5
:10086000D800530CD7000310D80CD70C5708D50765
:1008700058080318580FD607550E0F39D700560ED3
:10088000D800F039D704D8065708D50758080318F8
:10089000580FD6075608D700D8015708D50758086B
:1008A0000318580FD6070310D60CD50C0310D60C1E
:1008B000D50C0310D60CD50C0310550DD700560DD2
:1008C000D8000310D70DD80D0310D70DD80D031085
:1008D000550DD900560DDA005908D7075A080318E4
:1008E0005A0FD8075708D3025808031C580FD402D0
:1008F0000630D3070318D40A530E0F39D700540E0D
:10090000D800F039D704D8065708D5075808031877
:10091000580FD6075508FB00560808002100A30011
:100920007B08A2007A08A1007908A0007808A70037
:100930007708A6007608A5007508A400A801A901FB
:10094000AA01AB010830AC002100201CB52C240802
:10095000A80725080318250FA90726080318260F3E
:10096000AA0727080318270FAB0721002008AD00AE
:100970002108AE002208AF002308B0002E1CD42CA2
:100980002608B0002508AF00AD010030A8072408F4
:10099000AE0003182E0FA9072F0803182F0FAA0760
:1009A00030080318300FAB0721002008AD002108E4
:1009B000AE002208AF002308B0002F1CF32C25083E
:1009C000B0002408AF00AE01AD010030A807003030
:1009D00003182E0FA9072F0803182F0FAA07300896
:1009E0000318300FAB0721002008AD002108AE002E
:1009F0002208AF002308B000301C112D2408B000DD
:100A0000AF01AE01AD010030A807003003182E0F72
:100A1000A9072F0803182F0FAA0730080318300F53
:100A2000AB0721002008AD002108AE002208AF006E
:100A30002308B0000310300CA3002F0CA2002E0CD2
:100A4000A1002D0CA0000310A40DA50DA60DA70D4F
:100A50002C08AD002D03AC002C08031DA42C280885
:100A6000F9002908FA002A08FB002B080800353095
:100A7000FA000630FB0080308631F52685312100F2
:100A8000D1007B08D0003730D2000630D3002100DF
:100A90005008D4005108D500FF30D007031CD10303
:100AA000540855040319B42D04305207D400D5015D
:100AB000D50D5308D5075408FA005508FB008030BF
:100AC0008631F52685312100D7007B08D6005208F3
:100AD000FA005308FB0080308631F526853121006D
:100AE000D900D5007B08D800D40002305207D400CA
:100AF000D501D50D5308D5075408FA005508FB0059
:100B000080308631F52685312100D500DB007B0859
:100B1000D400DA0021005608DA005708DB00FF3065
:100B2000D607031CD7035A085B040319AE2D5808D7
:100B3000FA005908FB0080308631E3268531210018
:100B4000DA0054088400550885005A088000D80A45
:100B50000319D90AD40A0319D50A8A2D06302100AF
:100B6000D2070318D30A472D883100280800210036
:100B7000B4007B08B3007A08B2007908B1007808A5
:100B8000B8007708B7007608B6007508B500B90157
:100B9000BA01BB01BC010130BD00BE01BF01C001F3
:100BA0003508360437043804031DDE2DFF30F90004
:100BB000FF30FA00FF30FB00FF30342E2100B81B5D
:100BC000EC2D0310B50DB60DB70DB80D0310BD0D0E
:100BD000BE0DBF0DC00DDE2D21003D083E043F04BB
:100BE000400403192C2E38083402031D012E370847
:100BF0003302031D012E36083202031D012E350873
:100C00003102031C202E21003D08B9073E080318BD
:100C10003E0FBA073F0803183F0FBB0740080318F1
:100C2000400FBC073508B1023608031C360FB2026C
:100C30003708031C370FB3023808031C380FB402FF
:100C400003102100B80CB70CB60CB50C0310C00C87
:100C5000BF0CBE0CBD0CEC2D21003908F9003A0880
:100C6000FA003B08FB003C0808001234003403344F
:100C700000342C34013401340034FC340F34223479
:100C8000013402340034FE340F342434013402348D
:100C90000034423407342D340134013400344334F9
:100CA00007342E34013401340034443407342F34F3
:100CB0000134013400344534073430340134013414
:100CC00000344634073431340134013400344734BD
:100CD00007343234013401340034483407343334B7
:100CE00001340134003440340734263401340234F2
:100CF000003431340734C13400340F340034493403
:100D0000073434340134013400344A340734353480
:100D10000134013400344B340734363401340134A7
:100D200000344C34073437340134013400344D344A
:100D3000073438340134013400344E340734393444
:100D400001340134003400340034D534FD34C1346E
:100D5000FE345934FF34CF34FF3430340034863419
:100D60000034D33400341A3401345C3401349C34FC
:100D70000134DA34013416340234513402348C3400
:100D80000234C7340234023403343F3403347D3434
:100D90000334BD340334013404344834043494340B
:100DA0000434E53404343F340534A43405341734B2
:100DB00006349E340634443407341E3408345D341B
:100DC0000934AB340B34003A0319EA2E803A031984
:100DD000F02E00347A0884007B08850000080800A3
:100DE0007B088A007A0882000800003A0319FD2E69
:100DF000803A0319052FFB0100347A0884007B0830
:100E000085001200FB00000808008631F026F9007A
:100E1000FA0FFB03FB0A8631F026F8007908FB0085
:100E2000780808002000E6007B08E700E8010830A9
:100E3000E9002000661C1E2F6708E80720006608EE
:100E4000EA0003106A0CE6000310670DEA00E700F1
:100E50006908EA006A03E9006908031D192F680898
:100E6000080003346134FF340034FF340334853424
:100E7000FF340034FF34D134A134FF34003414344F
:100E80000034003400340034003448344034023438
:0E0E90000034003400340034003400340034E8
:10100000FF302000C7000F30C800FF30C9000F308C
:10101000CA00D525093021009D002000CB01CC015C
:101020002000931D182880319420883120009311CE
:101030002000931CD22D2000CB0A0319CC0A4B1C94
:101040002D284708FB004808F6262000C8007B082A
:10105000C700053021009D00392820004908FB0009
:101060004A08F6262000CA007B08C9000930210082
:101070009D0020004B080F39031DD02D4708FB00B1
:10108000480834262000CE007B08CD005F30812741
:101090002000D0007B08CF004D08D1004E08D200C0
:1010A0004F0851072200A200200052082200A3008E
:1010B000200050080318500A031960282200A307D3
:1010C00020004908FB004A0834262000CE007B0897
:1010D000CD00603081272000D0007B08CF004D0874
:1010E000D1004E08D2004F0851072200A400200072
:1010F00052082200A500200050080318500A0319C6
:1011000083282200A5072200A60A0319A70A08308F
:10111000220033020318C42D08308A0093303307AD
:1011200003188A0A82009B289E28A928F929322AB6
:10113000E72AB92DBE2D2200AD01C42D22003008B2
:101140002200AD002200A601A70102302200B30058
:10115000C42D2200260801392000AE00AF002F0C5C
:101160000318B4282200AC10031CB8282200AC14C9
:10117000220030082200AD00220026081F39031D7E
:10118000C42D260E0F392000AE002200270E2000AD
:10119000AF00F039AE04AF060310AF0CAE0C033055
:1011A000AE05AF012E08F9002F08FA000230FB004F
:1011B00000308F31A82788312000AF007B08AE00B7
:1011C000E73EAE002F0803182F0F003EAF002E0899
:1011D00084002F08850022002208800001312200AF
:1011E000230880002200260E0F392000AE002200C6
:1011F000270E2000AF00F039AE04AF060310AF0C8D
:10120000AE0C00302F02031D072903302E02031CF1
:10121000DE29210067082000A000210068082000C6
:10122000A1002008A2002108A3000130A400023080
:10123000FB00200024088731122789312000A600F6
:10124000A5012608E73EA60025080318250F003E45
:10125000A50026088400250885000008A7000131A4
:1012600000082000A9002208A6002308A5002902E2
:10127000031D3C29260827020318432920002708BC
:10128000A2002908A3000230FB00200024088731B7
:10129000122789312000A600A5012608E73EA600F6
:1012A00025080318250F003EA50026088400250800
:1012B00085000008A700013100082000A9002008CF
:1012C000A6002108A50029082502031D6929270871
:1012D00026020318702920002708A0002908A10071
:1012E0002000A40A04302402031C1729220820022B
:1012F000A2002308031C230A2102A3002208FB00EA
:101300002308AF007B08AE00220032082000B100A5
:10131000B0013008803EB2002F08803E3202031D2B
:1013200093292E083102031CDE29220031082200F5
:1013300030022200AD00210067082000AE0021002D
:1013400068082000AF00210069082000B1002100DA
:101350006A082000B0003108AE0730080318300FCB
:10136000AF0721006B082000B10021006C082000AD
:10137000B0003108AE0730080318300FAF07210066
:101380006D082000B10021006E082000B000310877
:10139000AE0730080318300FAF0703102F0C2200E0
:1013A000A10020002E0C2200A0000310A10CA00C14
:1013B0002200AC1403302200B300C42D2200260EFC
:1013C0000F392000AE002200270E2000AF00F039B8
:1013D000AE04AF060310AF0CAE0C00302F02031D9D
:1013E000F3291E302E02031CC42D07302200B30047
:1013F000C42D220032082000AE00AF012E082200CA
:1014000020022000AE002F08031C2F0A2200210218
:101410002000AF0022002308803E2000B2002F08E9
:10142000803E3202031D172A2E08220022020318D2
:10143000C42D22003108220030072200AD00220016
:10144000AB01220022082100E7002200230821002E
:10145000E8002200AC102200A601A70104302200FF
:10146000B300C42D033022002B052000AE00023053
:10147000FB002E08873112278A312000AF00B1010E
:101480002F08E73EAF000030AE0031080318310FDF
:10149000AE072F0884002E0885000008B100013136
:1014A00000082000B000220022082000B200220024
:1014B00023082000B30030083302031D612A3108DD
:1014C000320203186F2A20002F0884002E0885009E
:1014D000220022088000013122002308800022001F
:1014E00032082000AE00AF012E08220020072000A5
:1014F000AE00220021080318210A0319812A2000C6
:10150000AF0720002F08803EB40022002308803E51
:1015100020003402031D902A2200220820002E02FF
:101520000318C42D2200AB0A03302B052000AE00A7
:101530000230FB002E08873112278A312000AF00CD
:10154000B1012F08E73EAE000030B00031080318AB
:10155000310FB0072E0884003008850022002208D1
:101560008000013122002308800022002B0802396C
:10157000031D01302000AE000230FB002E08873131
:1015800012278A312000AF00B101AF1BB1032F0831
:101590006B3EAE000030B00031080318310FB007C9
:1015A0002E088400300885002200260880000131C2
:1015B0002200270880002200310822003002220089
:1015C000AD002200AC1405302200B300C42D02305F
:1015D000FB0022002B08873112278A312000AE0041
:1015E000AF012E08E73EAE002F0803182F0F003E74
:1015F000AF002E0884002F0885000008B1000131DB
:1016000000082000B000220022082000AE002200C6
:1016100023082000AF003002031D102B2E083102DA
:1016200003185A2B033022002B052000AE00023095
:10163000FB002E08873112278B312000AF00B1014B
:101640002F08E73EAE000030B00031080318310F1C
:10165000B0072E0884003008850022002208800090
:10166000013122002308800022002B080239031DCB
:1016700001302000AE000230FB002E088731122717
:101680008B312000AF00B101AF1BB1032F086B3EBF
:10169000AE000030B00031080318310FB0072E083B
:1016A00084003008850022002608800001312200D5
:1016B00027088000220032082000AE00AF012E086B
:1016C000220020022000AE002F08031C2F0A220057
:1016D00021022000AF0022002308803E2000B40039
:1016E0002F08803E3402031D782B2E082200220290
:1016F0000318C42D033022002B02031C8A2D210065
:101700006B082000AE0021006C082000AF00210013
:1017100067082000B100210068082000B0003108EF
:10172000AE023008031C300FAF0221006D0820000C
:10173000B10021006E082000B000210069082000DF
:10174000B20021006A082000B3003208B102330859
:10175000031C330FB0022E08FB002F083127200096
:10176000AF007B08AE003108FB00300831272000B5
:10177000B0007B08B100220032082000B200B301A3
:101780003308803EB4002F08803E3402031DCA2B6C
:101790002E083202031C812D20003308803EB40045
:1017A0003008803E3402031DD72B31083202031C5F
:1017B000812D033022002B052000B2000230FB00F7
:1017C0003208873112278B312000B300B40133086F
:1017D000E73EB2000030B50034080318340FB507F7
:1017E00032088400350885000008B3000131000884
:1017F0002000B40022002B032000B2000330B20509
:101800000230FB003208873112278C312000B600ED
:10181000B7013608E73EB2000030B80037080318B9
:10182000370FB80732088400380885000008B60072
:10183000013100082000B70036083302B100370834
:10184000031C370A3402B0003108FB00300831278E
:101850002000B0007B08B10020006D082000B2001D
:1018600020006E082000B30020006B082000B400A8
:1018700020006C082000B60034083202AE003608A2
:10188000031C360A3302AF002E08FB002F08312755
:101890002000AF007B08AE00220031082000B2001B
:1018A000B301B401B6013208F5003308F60034087C
:1018B000F7003608F8004B30F9001030FA0000301D
:1018C000FB00003084318E248C312000BA007B086C
:1018D000B9007A08B8007908B7003108BB003008B1
:1018E000BC000030BC1BFF30BE00BD003B08F50053
:1018F0003C08F6003D08F7003E08F8003708F900FC
:101900003808FA003908FB003A088531B7258C31D0
:101910002000B8007B08B7007A08B0007908B10051
:10192000310E0F39B900300EBA00F039B904BA06D9
:10193000370EBF00F039BA04BF06380EC000F039C8
:10194000BF04C0063908B1003A08B0003208F500FB
:101950003308F6003408F7003608F8008D30F90037
:101960000030FA000030FB00003084318E248C31CE
:101970002000C0007B08BF007A08BA007908B900CF
:101980002E08C1002F08C2000030C21BFF30C40067
:10199000C3004108F5004208F6004308F700440878
:1019A000F8003B08F9003C08FA003D08FB003E083F
:1019B00084318E248C312000C6007B08C5007A0853
:1019C000AF007908AE00F5002F08F6004508F700D3
:1019D0004608F8003908F9003A08FA003F08FB0009
:1019E00040088531B7258C312000BA007B08B9004A
:1019F0007A08AF007908AE00BF002F08C000390890
:101A0000C5003A08C6003F08AE004008AF002E08E7
:101A10002200A00020002F082200A1002000320890
:101A2000F5003308F6003408F7003608F8001630E1
:101A3000F9000030FA000030FB00003084318E24C1
:101A40008D312000B6007B08B4007A08B300790815
:101A5000B2004108F5004208F6004308F7004408C8
:101A6000F8003208F9003308FA003408FB003608A1
:101A700084318E248D312000B6007B08B4007A08B2
:101A8000B3007908B2003B08F5003C08F6003D08B9
:101A9000F7003E08F8003208F9003308FA0034086D
:101AA000FB0036088531B7258D312000B6007B0854
:101AB000B4007A08B3007908B2000310360CBD00F8
:101AC000340CBC00330CBB00BE013B08AE003C082C
:101AD000AF003108FA003008FB00653044272200CF
:101AE0002008FA002108FB006630442720002E0859
:101AF000FA002F08FB006730442706302200B300AD
:101B0000C42D133022002B02031C8A2D0730220023
:101B1000B300C42D2200AB0A03302B052000AE0019
:101B20000230FB002E08873112278D312000AF00D4
:101B3000B1012F08E73EAE000030B00031080318B5
:101B4000310FB0072E0884003008850022002208DB
:101B50008000013122002308800022003108220089
:101B600030072200AD002200AC1004302200B30088
:101B7000C42D2200AC142200AD01C42D2200AC14EF
:101B80002200AD012200B3012000991FD02D0130A9
:101B9000FA0022002208FB00230883314C238D31F8
:101BA000200093106400102808006A30210099007A
:101BB0000E308C0022008C0121008D0122008D014D
:101BC00021008E01063023008C0021001E169E1776
:101BD00023008E01C3302100950020009501643060
:101BE00081272000A7007B08A900A8001A26F4304E
:101BF00020009B00210091147230280097007F3054
:101C000081272000A7007B08A900A800280C031842
:101C10000B2E28001711031C0F2E28001715FA3061
:101C20002800960076309E00FA309D00E0302000BB
:101C30008B0008002000A00001302005A100210E2B
:101C4000F039A2000310A20D0310A20D3C302204B3
:101C5000A1000630A0050310200CA200220AA0005B
:101C6000210420009C0008002000A0007B08A100A7
:101C70002030A200A301A401A6010310200CA5009E
:101C8000210CA7000310A50CA70C3F30A705A50148
:101C90002708A9002008A700A5011F302705A100DB
:101CA000A0012108A700270AA1000230FB0021089B
:101CB000873112278E312000A000A5012008A33E05
:101CC000A0000630A10025080318250FA107023047
:101CD000FB002708873112278E312000A500A801BC
:101CE0002508A33EA5000630A70028080318280FE2
:101CF000A707A801200029082802031CA22E2508F6
:101D0000FA002708FB0080308631F5268E3120004E
:101D1000AB007B08AA00AE002B08AF000030AF1B61
:101D2000FF30B100B0002E08A2072F0803182F0FB4
:101D3000A30730080318300FA40731080318310F28
:101D4000A607C52E20002008FA002108FB008030DD
:101D50008631F5268E312000AB007B08AA00AE004C
:101D60002B08AF000030AF1BFF30B100B0002E08D1
:101D7000A2072F0803182F0FA30730080318300FEE
:101D8000A40731080318310FA6072000A80A403025
:101D90002802031C7A2E220E0F39A100230EA00068
:101DA000F039A104A006240EA700F039A004A7066C
:101DB000260EA500F039A704A506F030A519A50444
:101DC0000310A51B0314A50CA70CA00CA10C031059
:101DD000A51B0314A50CA70CA00CA10C2108A200A4
:101DE0002008A3002208FB00230808002000A00010
:101DF0007B08A10021009D1421009D18FC2E1D10C0
:101E000003102000200CA200210CA3000310A20C40
:101E1000A30C0310A20CA30C2308A1022208031C8C
:101E2000220FA00221001C082000A300A201230809
:101E3000A400A60121001B082000A300A201230882
:101E4000A6042208A4042608A3002408A20023084C
:101E5000A10722080318220FA0072108FB00200871
:101E600008002000A0007B08A1000314A01F03109D
:101E7000031C3F2FA109A009A10A0319A00A2000F1
:101E80002108FB00200808002000A7007B08A9000B
:101E90007A08A800270881272000AB007B08AA0049
:101EA0002806031D572F2B0829060319802F03101E
:101EB0002000270DAA0020002A08230091002000FE
:101EC00028082300930015139513151520008B1374
:101ED000553023009600AA309600951420008B17E9
:101EE0002300151123009518722F200012122000D4
:101EF0002908A800A9012A08A700AA0A271C5B2F05
:101F000008002000A000A101A2010310200DA300E1
:101F100020002308230091001513951315141308AE
:101F20002000A000A4012008A600A5012208A0000E
:101F3000A40120082504A10024082604A2002308E7
:101F4000A000A30A201C882F2108FB0022080800FB
:101F50002100DD007B08DC007A08DF007908DE0064
:101F6000E001E1010830E20021005C08E3005D08C7
:101F7000E400631CC12F5E08E0075F0803185F0FD1
:101F8000E10721005C08E3005D08E4000030E41B89
:101F9000FF30E600E500641CDA2FE3016008E5008D
:101FA0006108E60000306507E0005E08E400031801
:101FB000640FE10721005C08E3005D08E400031002
:101FC000640CDD00630CDC000310DE0DDF0D620825
:101FD000E3006303E2006208031DB42F6008FB0006
:101FE000610808000334B7340D342534B13461344A
:101FF00041343734013421340034003400340034A7
:020000040001F9
:02000E00D40F0D
:02001000FF3AB5
:00000001FF
