:020000040000FA
:1000000000008E31252EFF348A0120000B1D41286F
:10001000031022000D0D2000B7003708031D122821
:100020001030B70021008E0122008D01200037081A
:10003000103A031928283708203A03192D283708C1
:10004000403A031932283708803A031937283B28E9
:1000500021003E0822008E003B2821003F0822009C
:100060008E003B282100400822008E003B28210002
:10007000410822008E002000370822008D00200059
:100080000B112000911CAE2820004008031D4E28B3
:10009000210042082000BF002000C00A20004008C4
:1000A00020003F02031C5728280017195A28200057
:1000B000B7015D2801302000B70020003708B800E4
:1000C000380C0318652822008C12031C69282200B2
:1000D0008C162000B70122008C1E70282000B70A61
:1000E00020003708003003190130B800B700370C82
:1000F00003187C282100C111031C80282100C11590
:100100002000B7012800171D87282000B70A20000B
:100110003708B800380C03188F2822000C12031C73
:10012000932822000C162000B70122000C1E9A28EA
:100130002000B70A20003708003003190130B8004A
:10014000B700370C0318A6282100C113031CAA28E6
:100150002100C1172000C00A2000911009006A3058
:10016000210099000E308C0022008C0121008D01AD
:1001700022008D0121008E01063023008C00210019
:100180001E169E1723008E01C3302100950020000B
:10019000950165306D272000BA007B08B900BB00CF
:1001A000D425F43020009B002100911472302800E7
:1001B00097007F306D272000BA007B08B900BB0094
:1001C0003B0C0318E52828001711031CE928280018
:1001D0001715FA302800960076309E00FA309D0000
:1001E000E03020008B00093021009D002000931D8D
:1001F0000C29883100208031280017190A29FF3086
:100200002100C10003302100BE0059302100C00090
:100210002100BF00200093112000931C0A2A210016
:10022000B80A0319B90A381C222921003A08FB0030
:100230003B082E232100BB007B08BA0005302100BB
:100240009D002E2921003C08FB003D082E232100A3
:10025000BD007B08BC00093021009D00210038084A
:100260000F39031D082A23001F1621003A08FB003E
:100270003B080D222000BA007B08B9005F306D27D3
:100280002000BC007B08BB003908BD003A08BE0056
:100290003B083D072000EE0020003E082000EF0054
:1002A00020003C0803183C0A031958292000EF07D6
:1002B00023001F1221003C08FB003D080D222000F6
:1002C000BA007B08B90060306D272000BC007B08B5
:1002D000BB003908BD003A08BE003B083D072100BD
:1002E000B40020003E082100B50020003C0803189F
:1002F0003C0A03197D292100B50721003B08200095
:10030000B900BA0100303A02031D8829F8303902D9
:1003100003189629003020003A02031D9129093064
:100320003902031C96292000B901992901302000C7
:10033000B90020003908BA003A0C0318A12922009C
:100340000C10031CA52922000C1422000C1CB72938
:1003500011302100BE00CB302100BF00FF30210052
:10036000C0002100C10022000C128C12082A6D303E
:100370006D272000BA007B08B900BB0005303B02A6
:100380000318D22921004113033021003902031D33
:10039000CB29E8303802031CD7295B252100B8019E
:1003A000B901D729210041172100B801B901200066
:1003B0006E08FB006F0866232000991F082A2000A2
:1003C000B90123001E1FE6292000B90A20003908C0
:1003D000003003190130BA00B900390C0318F229B2
:1003E0002100C110031CF6292100C11423001E1F87
:1003F000012A0130FA0021003408FB003508EE25FF
:10040000082A0130FA0020006E08FB006F08EE2574
:10041000200093106400F62808002000A0007B084C
:10042000A1002030A200A301A401A6010310200C0A
:10043000A500210CA7003F30A705A5012708A900AA
:10044000210D200DA700A501A50D1F302705A10036
:10045000A0012108A700270AA1000230FB00210803
:100460008F31702782312000A000A5012008013EB5
:10047000A0008F30A10025080318250FA107023026
:10048000FB0027088F31702782312000A500A801CA
:100490002508013EA5008F30A70028080318280F63
:1004A000A707A801200029082802031C7A2A25088A
:1004B000FA002708FB0080308F315327823120005B
:1004C000AB007B08AA00AC002B08AD000030AD1BD0
:1004D000FF30AE00AF002C08A2072D0803182D0F27
:1004E000A3072F0803182F0FA4072E0803182E0F99
:1004F000A6079D2A20002008FA002108FB00803072
:100500008F31532782312000AB007B08AA00AC005A
:100510002B08AD000030AD1BFF30AE00AF002C0843
:10052000A2072D0803182D0FA3072F0803182F0F5C
:10053000A4072E0803182E0FA6072000A80A403093
:100540002802031C522A23001F1E022B0310210025
:10055000B71B0314370C2000A0002100360C20002C
:10056000A1000310A01B0314A00CA10C2108210062
:1005700036022000A1002008031C200A21003702B7
:100580002000A000220821002C022000A70021004A
:100590002D082000A5002308031C230FA50221001D
:1005A0002E082000A9002408031C240FA9022608F5
:1005B000031C260A21002F022000A8002708AA00F9
:1005C0002508AB002A0821072100B60020002008DA
:1005D0002100B70020002B0803182B0A0319F22A68
:1005E0002100B707200022082100AC0020002308CA
:1005F0002100AD00200024082100AE0020002608C4
:100600002100AF002000220E0F39A100230EA00010
:10061000F039A104A006240EA700F039A004A70613
:10062000260EA500F039A704A506F030A519A504EB
:100630000310A51B0314A50CA70CA00CA10C031000
:10064000A51B0314A50CA70CA00CA10C2108A2004B
:100650002008A3002208FB00230808002000A000B7
:100660007B08A10021009D1421009D18342B1D1032
:1006700003102000200CA200210CA3000310A20CE8
:10068000A30C2308A1022208031C220FA0022100B0
:100690001C082000A300A2012308A400A601210039
:1006A0001B082000A300A2012308A6042208A4041A
:1006B0002608A3002408A2002308A1072208031883
:1006C000220FA0072108FB00200808002000A70037
:1006D0007B08A9006D306D272000A8007B08AB00C7
:1006E00000302802031D762B06302B0203184B2DF9
:1006F00061306D272000A8007B08AB002908AA0004
:100700002708AC002A082B02A9002C08031C2C0A7D
:100710002802A70066306D272000A8007B08AB00E8
:10072000AA002808AC00AD01AE012908AB002708DB
:10073000A8000030A81BFF30AF00B0002B08F50068
:100740002808F6003008F7002F08F8002A08F900FA
:100750002C08FA002D08FB002E088D317D258331F1
:100760002000AC007B08AA007A08A8007908AB003A
:100770002C0EF039AF002A0EB0000F39AF04B006CE
:10078000280EAE000F39B004AE062B0EAD000F39A7
:10079000AE04AD06210033082000AC002100320871
:1007A0002000AA00210031082000A8002100300804
:1007B0002000AB00AD0728080318280FAE072A0851
:1007C00003182A0FB0072C0803182C0FAF07683046
:1007D0006D272000A8007B08AB00AA002808AC0009
:1007E000B101B201210036082000AB00210037081A
:1007F0002000A8000030A81BFF30B300B4002B0875
:10080000F5002808F6003408F7003308F8002A0835
:10081000F9002C08FA003108FB0032088D317D25E3
:1008200084312000AC007B08AA007A08A80079086F
:10083000AB0003102B0DB100280DB2002A0DB4003F
:100840002C0DB3000310B10DB20DB40DB30D310872
:10085000AD0732080318320FAE0734080318340FFF
:10086000B00733080318330FAF076B306D27200034
:10087000A8007B08AB00AA002808AC00B101B201B7
:10088000310EF039B3002C0EB4000F39B304B406A6
:100890002A0EA8000F39B404A806AB010310AB0D53
:1008A000A80DB40DB30D3308803EB5002F08803E6F
:1008B0003502031D652C30083402031D652C2E08FB
:1008C0002802031D652C2D082B020318762C20000E
:1008D0002B08AD002808AE003408B0003308AF0084
:1008E0000314A71F0310031C2F2DB92C6A306D278A
:1008F0002000AC007B08AA00B1002C08B200B501B2
:10090000350EF039B300320EB4000F39B304B4061B
:10091000310EA8000F39B404A806AB010310AB0DCB
:10092000A80DB40DB30D2F08803EB6003308803EED
:100930003602031DA52C34083002031DA52C2808FF
:100940002E02031DA52C2B082D020318B92C200004
:100950002B08AD002808AE003408B0003308AF0003
:100960002708803E803E031DB72C01302902031C5E
:100970002F2D62306D272000A8007B08AB002808CF
:10098000803EB6002708803E3602031DC92C290888
:100990002B020318D02C20002B08A9002808A70040
:1009A0002000AB09A809AB0A0319A80A2708803E52
:1009B000B6002808803E3602031DE02C2B082902D1
:1009C0000318E72C20002B08A9002808A70067308F
:1009D0006D272000A8007B08AB00AA002808AC0007
:1009E000B101B2012908AB002708A8000030A81BFC
:1009F000FF30B300B4002B08F5002808F6003408D7
:100A0000F7003308F8002A08F9002C08FA0031082A
:100A1000FB0032088D317D2585312000A8007B0840
:100A2000AB007A08A7007908A9002100B0072000D0
:100A300027080318270A03191F2D2100B1072000DA
:100A40002B0803182B0A0319272D2100B2072000B9
:100A500028080318280A03192F2D2100B3072000A6
:100A60002E0E0F39AD00300EAE00F039AD04AE06DB
:100A70002F0EB000F039AE04B006F030B019B0045B
:100A8000AF01B01BAF030310AF1B0314AF0CB00CCE
:100A9000AE0CAD0C562D69306D272000A7007B08E9
:100AA000A900AD002708AE00B001AF0120002D085D
:100AB0002100C20008006D306D272000AC007B08CB
:100AC000AD00AE0005302E020318D32D63306D2724
:100AD0002000AC007B08AD00AF0064306D27200023
:100AE000AC007B08AD00AD0A0319AC0A09302F0237
:100AF000031C7C2D0830AF001330FB0020002E08B3
:100B00008F31702785312000B00003102F0DAE000B
:100B10003007AE002E0AB0006D272000B1007B0820
:100B2000B00002302E07B2006D272000B3007B0812
:100B3000B20031082C02031D9F2D30082D02031C2A
:100B4000CC2D20003208FA003308FB00613030273A
:100B500020002F08083A0319B82D0330AE072E08DD
:100B60006D272000B0007B08AE003004031DBF2DB0
:100B70000530FA000030FB006D303027D32D200007
:100B8000AD01AC01AF0A2F08AE00B0012E08FA008B
:100B90003008FB006330302720002D08FA002C08B5
:100BA000FB006430302708002000A0000130200541
:100BB000A100210EF039A2000310A20D0310A20D16
:100BC0003C302204A1000630A0050310200CA20036
:100BD000220AA000210420009C0008002000A90097
:100BE0007B08A8007A08AB000314A91F0310031C9C
:100BF000022E210041122000A809A909A80A031900
:100C0000A90A042E21004116003020002B040319EC
:100C10000C2E2100C112411520002908803E7D3E86
:100C2000031D142EE8302802031C242E200028085F
:100C3000AA002908AC002A08FB002C08C7262000BF
:100C4000A9007B08A800AB0120002908803E803E57
:100C5000031D2C2E64302802031C602E200028085F
:100C6000AA002908AC00AD0120002C08803E803E7F
:100C7000031D3C2E64302A02031C452E9C302000AC
:100C8000AA07031CAC03AD0A342E20002A08A800D2
:100C90002C08A9000F30AD052D088E3EAD008F3019
:100CA0000318013EAA002D08FA002A08FB00803034
:100CB0008F31412786312000AC002100BE00632E19
:100CC000FF302100BE0020002908803E803E031D29
:100CD0006B2E0A3028020318782E20002B08031DE3
:100CE000782E21003E082000AA00FF3A0319AE2EFC
:100CF00020002808AA002908AC00AD0120002C081B
:100D0000803E803E031D862E0A302A02031C8F2E51
:100D1000F6302000AA07031CAC03AD0A7E2E20008B
:100D20002A08A8002C08A9002D088E3EAD008F309F
:100D30000318013EAA002D08FA002A08FB008030A3
:100D40008F31412786312000AC002100BF002000F8
:100D50002B080319B12E21003F10B12EFF302100C6
:100D6000BF0020002808AB008E3EA8008F3003187B
:100D7000013EA9002808FA002908FB0080308F31C5
:100D8000412786312000AB002100C0000800200070
:100D9000A0007B08A1000310200CA200210CA300DE
:100DA0000310200CA400210CA6000310A40CA60C18
:100DB0002608A30724080318240FA207230E0F39BF
:100DC000A600220EA400F039A604A4062608A30754
:100DD00024080318240FA2072208A600A40126084D
:100DE000A30724080318240FA2070310A20CA30CC6
:100DF0000310A20CA30C0310A20CA30C0310230DD0
:100E0000A600220DA4000310A60DA40D0310A60D2C
:100E1000A40D0310230DA500220DA7002508A60789
:100E200027080318270FA4072608A1022408031C7B
:100E3000240FA0020630A1070318A00A210E0F39C3
:100E4000A600200EA400F039A604A4062608A307D5
:100E500024080318240FA2072308FB002208080017
:100E60002000A7007B08A9007A08A80027086D27A2
:100E70002000AB007B08AA002806031D432F2B0887
:100E8000290603196C2F03102000270DAA0020004B
:100E90002A0823009100200028082300930015133E
:100EA0009513151520008B13553023009600AA309A
:100EB0009600951420008B17230015112300951818
:100EC0005E2F2000121220002908A800A9012A087C
:100ED000A700AA0A271C472F08002000A000A10194
:100EE000A2010310200DA30020002308230091007D
:100EF00015139513151413082000A000A401200851
:100F0000A600A5012208A000A40120082504A10034
:100F100024082604A2002308A000A30A201C742F82
:100F20002108FB0022080800C934CD34FF349C346A
:100F3000FF3464340034C934CD340D349C34FF3470
:100F40006434003461341934FF347034FE34C434F2
:100F500009348534B734FF3400340034F4340134B8
:100F60006134C934FF34003400340834003485342B
:100F7000D134FF3400340034E73403341934853479
:100F8000FF340034003404340034CD341934FF34D9
:100F900000340034E7340334CD34B734FF34003444
:100FA0000034E7340334CD348534FF340034003466
:100FB000E734033403341934FF3400340034FF348D
:100FC00000340334CB34FF3400340034FF340034B5
:100FD00003349134FF3400340034FF3400341934C6
:100FE000C134FF340034003401340034DD34D534EE
:100FF000FF3400340034063400340034003400344C
:1010000020008B1322000D082000D00021000E08C4
:101010002000D10022008D01D83021008E00031065
:101020002100470D2000D200D30120008E1F1A2876
:101030002000D30A20005208D4005308D2005404E0
:101040002100C7000310470D2000D200D30120006B
:101050000E1E2C282000D30A20005208D40053086A
:10106000D20054042100C7000310470D2000D20015
:10107000D30120000E1F3E282000D30A2000520872
:10108000D4005308D20054042100C7000310470DB8
:101090002000D200D30120008E1D50282000D30A4A
:1010A00020005208D4005308D20054042100C70085
:1010B0002000500822008D002000510821008E00E1
:1010C00020008B1721004608031DC6030D302100A8
:1010D00043020318712C88308A00723043070318CA
:1010E0008A0A82007F28E928D1283A2955297B29B4
:1010F0009F29C329CF29132AAC2A4F2B982B88303C
:10110000210047052000D000083A031D8E28323008
:101110002100C60001302100C300732C00302100E3
:1011200047040319732C7F3087316D2788312000E5
:10113000D1007B08D00051040319732C33302100F7
:1011400047052000D000033A031DAA2802302100E1
:10115000C300732C2230210047052000D000023A42
:10116000031DB62803302100C300732C1130210069
:1011700047052000D000013A031DC5281930210081
:10118000C60004302100C300732C44302100470501
:101190002000D000403A031D732C07302100C3000B
:1011A000732C0030FA006430FB0000308531EE25EE
:1011B000883121003E102100C11641153330210035
:1011C00047052000D000333A0319732C2100C301D6
:1011D000732C003021004604031D19297F3087310C
:1011E0006D2788312000D2007B08D000D30053083F
:1011F000003003190130D000D400D501D41BD50331
:101200005408FA005508FB007F30873130278931B8
:10121000200053080319152922000C100C128C12FF
:101220002800171120009310162901002100C30186
:10123000732C8830210047052000D000883A03191C
:10124000732CD00123001E1F27292000D00A200064
:101250005008003003190130D300D000500C03189F
:10126000332923001E13031C372923001E172100D6
:10127000C301732C613087316D2789312000D30081
:101280007B08D0000130FA005008FB00530885317C
:10129000EE2589312230210047052000D000223A76
:1012A0000319732C2100C301732C6D3087316D2716
:1012B00089312000D3007B08D000D4000030FB002F
:1012C0005408852405302000540203187029210099
:1012D0004608031D70291130C60005302100C300E7
:1012E0001130210047052000D000113A0319732C5A
:1012F0002100C301732C633087316D2789312000B1
:10130000D3007B08D0000030FA005008FB005308DF
:101310008531EE25893121004608031D94291930B5
:10132000C60006302100C30011302100470520000F
:10133000D000113A0319732C2100C301732C6430BF
:1013400087316D2789312000D3007B08D000003021
:10135000FA005008FB0053088531EE258931210041
:101360004608031DB8291930C60004302100C30007
:101370001130210047052000D000113A0319732CC9
:101380002100C301732C0130FB0021004408852497
:10139000C8302100C60008302100C300732C003083
:1013A000210046040319DC2988302100470520006C
:1013B000D000803A031DDF292100C301732C2230A5
:1013C000210047052000D000203A031DF12921000B
:1013D000C40A063044020318C40107302100C300C8
:1013E000732C1130210047052000D000103A031D56
:1013F000052A2100C40306304402031C012A0530DB
:10140000C40007302100C300732C4430210047057D
:101410002000D000403A031D732C2100C501093083
:101420002100C300732C21004116C116411505305F
:10143000210044020318442A2100451C262A853035
:101440002100BE00D1302100BF002C2A61302100D4
:10145000BE0019302100BF0003102100450C200000
:10146000D0008E3ED0008F300318013ED3005008CC
:10147000FA005308FB0080308F3141278A31200069
:10148000D4002100C000A52A0730FB002100450838
:101490008F3170278A312000D000D3015008943E4C
:1014A000D00053080318530F873ED3005008FA00AA
:1014B0005308FB0080308F3141278A312000D4004F
:1014C0002100BE000730FB00210045088F31702746
:1014D0008A312000D000D3015008943ED000530838
:1014E0000318530F873ED300D00A0319D30A5008BC
:1014F000FA005308FB0080308F3141278A312000E9
:10150000D4002100BF000730FB00210045088F31C7
:1015100070278A312000D000D3015008943ED000BB
:1015200053080318530F873ED3000230D007031827
:10153000D30A5008FA005308FB0080308F3141274E
:101540008A312000D4002100C000C8302100C6002C
:101550000A302100C300732C003021004604031D13
:10156000B42A2100C301732C8830210047052000D4
:10157000D000803A031DC02A07302100C300732C1D
:101580002230210047052000D000203A031DE12A27
:101590002100C50A0530210044020318D62A133061
:1015A00021004502031CDD2AC501DD2A0F30210080
:1015B0004502031CFF2AC501FF2A09302100C30090
:1015C000732C1130210047052000D000103A031D74
:1015D0001F2B2100C5030530210044020318F82AFF
:1015E000133021004502031C1B2B1230C5001B2B9E
:1015F0000F3021004502031CFF2A0E30C5006D305C
:1016000087316D278B312000D3007B08D000D400B8
:1016100005305402031C1B2B21004508043A031D0E
:10162000142BC50AC50A1B2B21004508053A031DCA
:101630001B2BFE30C50709302100C300732C44303A
:10164000210047052000D000403A031D732C1330C1
:10165000FB00210044088F3170278B312000D0001F
:10166000210045082000D007500887316D278B31B5
:101670002000D7007B08D60020005008FA00200088
:101680005608FB005708CE242000D7007B08D60060
:10169000C8302100C6000B302100C300732C053078
:1016A0002100440203186B2B2100451C612B0030E4
:1016B000FA0020005608FB0057088531EE258B31D3
:1016C000912B0130FA0020005608FB0057088531A5
:1016D000EE258B31912B03302100450203187A2B24
:1016E0000130FA0020005608FB0057088531EE252E
:1016F0008B31912B0E30210045020318892B0030CD
:10170000FA0020005608FB0057088531EE258B3182
:10171000912B200056082000D0000030FB0050081C
:101720008524C8302100C6000C302100C300732C72
:101730001330FB00210044088F3170278B312000CB
:10174000D000210045082000D00721004608031DD5
:10175000AC2B2100C301732C8830210047052000E9
:10176000D300803A031DB82B09302100C300732C2D
:101770002100C71ECE2B2000D60A0319D70A57080E
:10178000803E7D3E031DC62BE9305602031CE42B30
:1017900009302000D6070318D70AE42B2100471E82
:1017A000FB2BFF302000D607031CD7035708803ED1
:1017B0007D3E031DDD2BE9305602031CE42BF73080
:1017C0002000D607031CD70320005008FA00200091
:1017D0005608FB005708CE242000D7007B08D6000F
:1017E0001F3028001D02031CF72BF8309D070B301B
:1017F0002100C300732C4430210047052000D30092
:10180000403A031D6D2C21004408053A031D5F2C4E
:10181000210045080E3A031D532C0030FA00003019
:10182000FB006330873130278C310030FA00003004
:10183000FB006430873130278C3120005708803E10
:10184000803E031D252C0530560203185F2C200016
:1018500056082000D3001330FB0053088F31702747
:101860008C312000D40087316D278C312000D500C9
:101870007B08D300FA005508FB0061308731302720
:101880008C312000D40A540887316D278C31200018
:10189000D4007B08D3005404031D5F2C05302000C6
:1018A000D600D7015F2C21004508063A031D5F2CA6
:1018B000200056082000D3008531D4258C3120002B
:1018C0005608FA005708FB002000500887313027DF
:1018D0008C3109302100C300732CFA3028009D00A0
:1018E000732C2100C301210043080030031901308B
:1018F0002000D000D300530C0318802C2000991333
:10190000031C842C2000991708002000C2007B08CB
:10191000C10021004116C1164115C1140530200037
:1019200042020318AC2C19302100BE00DD3021002A
:10193000BF00200042088E3EC4008F300318013ED5
:10194000C3004408FA004308FB0080308F31412770
:101950008C312100C000CD2C00302000410403193F
:10196000BB2C61302100BE0009302100BF00C9300E
:101970002100C000CD2CCD302100BE00FF30210061
:10198000C0000630200042020318CA2CC9302100D2
:10199000BF00CD2C03302100BF0008002000C9008B
:1019A0007B08C8007A08CA005F304A020318FD2C81
:1019B0004A1CEB2CE730F7000330F8000030F90048
:1019C0000030FA004808FB00490849252000C900FA
:1019D0007B08C800442DC430F7000930F80070308F
:1019E000F900FE30FA0020004808FB0049084925AC
:1019F0002000C9007B08C800442DA1302000CA0780
:101A00000730FB004A088F3170278D312000CB0052
:101A1000CC014B08943ECA008730CD004C08031817
:101A20004C0FCD0703304A07CB00CC01CC0D4D083D
:101A3000CC074B08FA004C08FB0080308F3153274D
:101A40008D312000CF007B08CE000530CA07031877
:101A5000CD0A4A08FA004D08FB0080308F31532729
:101A60008D312000CC007B08CB00F7004C08F8003B
:101A70004E08F9004F08FA004808FB0049084925BC
:101A80002000C9007B08C80020004808FB00490866
:101A900008002000C2007B08C1007A08C400790851
:101AA000C3007808C6007708C5004608803EC70016
:101AB0004208803E4702031D5F2D4108450203187E
:101AC000662D20004308FB0044087C2D20004208BE
:101AD000803EC7004408803E4702031D712D430825
:101AE00041020318782D20004508FB0046087C2D94
:101AF00020004108FB00420808002000DB007B08B2
:101B0000DA007A08D9007908D8007808DF00770869
:101B1000DE007608DD007508DC00E001E101E2018D
:101B2000E3010830E4002000581CA42D5C08E00705
:101B30005D0803185D0FE1075E0803185E0FE207FA
:101B40005F0803185F0FE30720005808E5005908F5
:101B5000E6005A08E7005B08E800661CC32D5E0833
:101B6000E8005D08E700E5010030E0075C08E600FA
:101B70000318660FE10767080318670FE207680894
:101B80000318680FE30720005808E5005908E6002D
:101B90005A08E7005B08E800671CE22D5D08E800D2
:101BA0005C08E700E601E5010030E00700300318BB
:101BB000660FE10767080318670FE2076808031854
:101BC000680FE30720005808E5005908E6005A08A6
:101BD000E7005B08E800681C002E5C08E800E701ED
:101BE000E601E5010030E00700300318660FE10769
:101BF00067080318670FE20768080318680FE30710
:101C000020005808E5005908E6005A08E7005B087C
:101C1000E8000310680CDB00670CDA00660CD900E2
:101C2000650CD8000310DC0DDD0DDE0DDF0D640347
:101C3000E500E4006508031D932D6008F9006108C4
:101C4000FA006208FB0063080800A530FA008E3035
:101C5000FB0080308F3153278E312100A1007B089B
:101C6000A000A730A2008E30A30021002008A4000D
:101C70002108A500FF30A007031CA10324082504A8
:101C80000319A22E04302207A400A501A50D2308E4
:101C9000A5072408FA002508FB0080308F31532760
:101CA0008E312100A7007B08A6002208FA00230835
:101CB000FB0080308F3153278E312100A900A50011
:101CC0007B08A800A40002302207A400A501A50DEE
:101CD0002308A5072408FA002508FB0080308F316F
:101CE00053278E312100A500AB007B08A400AA0079
:101CF00021002608AA002708AB00FF30A607031C16
:101D0000A7032A082B0403199C2E2808FA00290887
:101D1000FB0080308F3141278E312100AA0024083A
:101D20008400250885002A088000A80A0319A90A4A
:101D3000A40A0319A50A782E06302100A207031869
:101D4000A30A352E8031AF2808000F340034033445
:101D50000034C134003401340034FD3407346E34AF
:101D60000034023400349C340F34B4340034023470
:101D700000349E340F34B634003402340034A034BE
:101D80000F34B83400340234003498340F34B03493
:101D9000003404340034FF340734C23400340134D6
:101DA0000034A2340F34BA34003402340034A43482
:101DB0000F34BC34003402340034A6340F34C3343E
:101DC000003401340034A7340F34C43400340134F7
:101DD0000034A8340F34C534003401340034A9343D
:101DE0000F34C634003401340034AA340F34C734FD
:101DF000003401340034AB340F34C83400340134BF
:101E0000003400340034D534FD34C134FE34593448
:101E1000FF34CF34FF343034003486340034D334CC
:101E200000341A3401345C3401349C340134DA3423
:101E3000013416340234513402348C340234C73441
:101E40000234023403343F3403347D340334BD346C
:101E50000334013404344834043494340434E53411
:101E600004343F340534A4340534173406349E3426
:101E70000634443407341E3408345D340934AB343A
:101E80000B34003A0319482F803A03194E2F0034BF
:101E90007A0884007B088500000808007B088A0017
:101EA0007A0882000800003A03195B2F803A031970
:101EB000632FFB0100347A0884007B088500120040
:101EC000FB00000808008F314E27F900FA0FFB03D2
:101ED000FB0A8F314E27F8007908FB0078080800CC
:101EE0002000E9007B08EA00EB010830EC0020004C
:101EF000691C7C2F6A08EB0720006908ED000310BD
:101F00006D0CE90003106A0DED00EA006C03ED00B2
:101F1000EC006D08031D772F6B0808000334B734FD
:101F20000D342534B1346134413437340134213433
:101F30000034003400340034003400340034003401
:101F400000340034FF340734FF34073400340034E5
:081F50000034003400340034B9
:020000040001F9
:02000E00D40F0D
:02001000FF3AB5
:00000001FF
