:020000040000FA
:1000000000008731652FFF348A0120000B1D412835
:10001000031022000D0D2000B5003508031D122825
:100020001030B50021008E0122008D01200035081E
:10003000103A031928283508203A03192D283508C5
:10004000403A031932283508803A031937283B28EB
:100050002100370822008E003B28210038082200AA
:100060008E003B282100390822008E003B28210009
:100070003A0822008E002000350822008D00200062
:100080000B112000911CB9282000C30A4308031D4E
:100090004D2821003B082000C40020004308200018
:1000A00044022000B501031C351435080030031943
:1000B0000130B600360803196428200044080319EB
:1000C00064282800171967282000B5016A28013024
:1000D0002000B50020003508B600360C0318722841
:1000E00022008C12031C762822008C162000B501F9
:1000F00022008C1E7D282000B50A20003508003023
:1001000003190130B600B500350C03188928210009
:10011000BA11031C8D282100BA152000B501280052
:10012000171D94282000B50A20003508B600360CAB
:1001300003189C2822000C12031CA02822000C1675
:100140002000B50122000C1EA7282000B50A2000BF
:100150003508003003190130B600B500350C03181E
:10016000B3282100BA13031CB7282100BA172000B6
:10017000911009002000B701B801FF30B9007F30AD
:10018000BA00FF30BB007F30BC00242309302100BF
:100190009D002000931DDF28883100208031280039
:1001A0001719DD28FF302100BA0003302100B70005
:1001B00059302100B9002100B8002000931120001F
:1001C000931C172A2000B70A0319B80A371CF42811
:1001D0003908FB003A08E6222000BA007B08B90083
:1001E000053021009D00002920003B08FB003C0851
:1001F000E6222000BC007B08BB00093021009D00E6
:10020000200037080F39031D152A3908FB003A086A
:100210001A222000BE007B08BD0072303E2720005D
:10022000C0007B08BF003D08C1003E08C2003F0877
:1002300041072000ED00200042082000EE002000D1
:1002400040080318400A031927292000EE07200060
:100250003B08FB003C081A222000BE007B08BD00C2
:1002600073303E272000C0007B08BF003D08C1005E
:100270003E08C2003F0841072100B50020004208A7
:100280002100B600200040080318400A03194A293B
:100290002100B60720003A08BD00BE0100303E0232
:1002A000031D5429F8303D022000BF01031C3F14F8
:1002B0003F08003003190130C0004008031DA32986
:1002C00000303E02031D662909303D022000BF01B7
:1002D000BF0D3F08003003190130BD003D08031D6C
:1002E000A3297D303E272000BF007B08BD003F04CE
:1002F0000319A0293C08BD00BF0100303F02031DC7
:100300008329F8303D022000C001031C401440083E
:10031000003003190130C1004108031DA32900303A
:100320003F02031D952909303D022000C001C00D88
:100330004008003003190130BD003D08031DA3290A
:100340002000BD01A62901302000BD0020003D088D
:10035000C000400C0318AE2922000C10031CB22967
:1003600022000C1422000C1CC42911302100B700FB
:10037000CB302100B800FF302100B9002100BA00C5
:1003800022000C128C12152A7E303E272000C0005D
:100390007B08BD00C100063041020318DF2921009F
:1003A0003A13033020003802031DD829E830370201
:1003B000031CE4292C252000B701B801E429210001
:1003C0003A172000B701B80120006D08FB006E0845
:1003D00069232000991F152A2000BD0123001E1F3C
:1003E000F3292000BD0A20003D0800300319013028
:1003F000C000BD003D0C0318FF292100BA10031CEA
:10040000032A2100BA1423001E1F0E2A0130FA000D
:1004100021003508FB003608BF25152A0130FA00F7
:1004200020006D08FB006E08BF25200093106400BB
:10043000C92808002000A0007B08A1002030A200ED
:10044000A301A401A601210E0F39A500200EA700CB
:10045000F039A504A7060310A70CA50C3F30A5058D
:10046000A7012508A9000310200CA500A70103106F
:10047000A70CA50C0310A70CA50C1F302505A10087
:10048000A0012108A500250AA1000230FB002108D7
:100490008F31342782312000A000A7012008C53EFB
:1004A000A0000E30A10027080318270FA107023073
:1004B000FB0025088F31342782312000A700A801D6
:1004C0002708C53EA7000E30A50028080318280FEE
:1004D000A507A801200029082802031C922A270842
:1004E000FA002508FB0080308F3117278231200069
:1004F000AB007B08AA00AC002B08AD000030AD1BA0
:10050000FF30AE00AF002C08A2072D0803182D0FF6
:10051000A3072F0803182F0FA4072E0803182E0F68
:10052000A607B52A20002008FA002108FB00803029
:100530008F31172782312000AB007B08AA00AC0066
:100540002B08AD000030AD1BFF30AE00AF002C0813
:10055000A2072D0803182D0FA3072F0803182F0F2C
:10056000A4072E0803182E0FA6072000A80A403063
:100570002802031C6A2A220E0F39A100230EA000B4
:10058000F039A104A006240EA500F039A004A506A8
:10059000260EA700F039A504A706F030A719A70476
:1005A0000310A71B0314A70CA50CA00CA10C03108F
:1005B000A71B0314A70CA50CA00CA10C2108A200DA
:1005C0002008A3002208FB00230808002000A00048
:1005D0007B08A10021009D1421009D18EC2A1D100C
:1005E0002000210E0F39A200200EA300F039A20432
:1005F000A3060310A30CA20C0310A30CA20C220848
:10060000A1022308031C230FA00221001C082000C4
:10061000A200A3012208A400A60121001B082000BB
:10062000A200A3012208A6042308A4042608A2000D
:100630002408A3002208A10723080318230FA007FA
:100640002108FB00200808006A30210099000E30C4
:100650008C0022008C0121008D0122008D012100DF
:100660008E01063023008C0021001E169E172300E9
:100670008E01C330210095002000950177303E2780
:100680002000A7007B08A900A800A525F4302000C1
:100690009B00210091147230280097007F303E2784
:1006A0002000A7007B08A900A800280C03185A2BDB
:1006B00028001711031C5E2B28001715FA3028009C
:1006C000960076309E00FA309D00E03020008B00CE
:1006D00008002000A7007B08A9007E303E272000EC
:1006E000A8007B08AB0000302802031D792B0730DF
:1006F0002B0203181C2D74303E272000A8007B0815
:10070000AB002908AA002708AC002A082B02A90080
:100710002C08031C2C0A2802A70079303E27200051
:10072000A8007B08AB00AA002808AC00AD01AE0110
:100730002908AB002708A8000030A81BFF30AF0035
:10074000B0002B08F5002808F6003008F7002F0845
:10075000F8002A08F9002C08FA002D08FB002E08E2
:100760008D317D2583312000AC007B08AA007A08FA
:10077000A7007908A9002100B10720002708031865
:10078000270A0319C52B2100B20720002A080318E5
:100790002A0A0319CD2B2100B30720002C080318C7
:1007A0002C0A0319D52B2100B40778303E272000EE
:1007B000A7007B08A900AA002708AC00AD01AE0184
:1007C0002B08F5002808F6003008F7002F08F8007D
:1007D0002A08F9002C08FA002D08FB002E088D319C
:1007E0007D2583312000A8007B08AB007A08A70094
:1007F0007908A9000310290DAA00270DAC002B0DC4
:10080000AD00280DAE000310AA0DAC0DAD0DAE0D60
:100810000310AA0DAC0DAD0DAE0D21003108200066
:10082000AA07210032080318320A0319192C2000E4
:10083000AC07210033080318330A0319212C2000C8
:10084000AD07210034080318340A0319292C2000AD
:10085000AE077C303E272000A7007B08A900AB0034
:100860002708A800B001AF0103102B0DA700280D29
:10087000B100300DB200A9010310A90DA70DB10DF3
:10088000B20D0310A90DA70DB10DB20D3208803EB7
:10089000B3002E08803E3302031D582C2D08310270
:1008A000031D582C2C082702031D582C2A08290246
:1008B0000318932C200029082A02AB002C08A8005A
:1008C0002708031C270FA8022D08B0003108031CBD
:1008D000310FB0023208031C320A2E02AF002B087F
:1008E0002100B10220002808031C280A03197A2CD1
:1008F0002100B20220003008031C300A0319822CA8
:100900002100B30220002F08031C2F0A03198A2C90
:100910002100B40220002908AA002708AC003108F1
:10092000AD003208AE007B303E272000A8007B08D7
:10093000AB00B0002808AF00B3010310300DA700D2
:100940002F0DB100330DB200A9010310A90DA70DA1
:10095000B10DB20D0310A90DA70DB10DB20D2E08EA
:10096000803EB4003208803E3402031DC12C3108A1
:100970002D02031DC12C27082C02031DC12C2908A0
:100980002A020318FC2C20002A082902AB002708A1
:10099000A8002C08031C2C0FA8023108B0002D0859
:1009A000031C2D0FB0022E08031C2E0A3202AF00CA
:1009B0002B082100B107200028080318280A031972
:1009C000E32C2100B207200030080318300A031975
:1009D000EB2C2100B30720002F0803182F0A03195E
:1009E000F32C2100B40720002908AA002708AC0036
:1009F0003108AD003208AE0020002C08AA002D08F6
:100A0000AC002E08AD00AE01AD1BAE030310AE1B53
:100A10000314AE0CAD0CAC0CAA0C0310AE1B0314EB
:100A2000AE0CAD0CAC0CAA0C0310AE1B0314AE0C38
:100A3000AD0CAC0CAA0C272D7A303E272000A70065
:100A40007B08A900AA002708AC00AD01AE01200078
:100A50002A082100BB0008007E303E272000AC00A1
:100A60007B08AD00AE0006302E020318A42D7530B1
:100A70003E272000AC007B08AD00AF0076303E275B
:100A80002000AC007B08AD00AD0A0319AC0A0930A8
:100A90002F02031C4D2D0830AF001330FB00200047
:100AA0002E088F31342785312000B00003102F0D20
:100AB000AE003007AE002E0AB0003E272000B10085
:100AC0007B08B00002302E07B2003E272000B300A2
:100AD0007B08B20031082C02031D702D30082D0256
:100AE000031C9D2D20003208FA003308FB007430EF
:100AF000012720002F08083A0319892D0330AE077B
:100B00002E083E272000B0007B08AE003004031DF5
:100B1000902D0630FA000030FB007E300127A42D16
:100B20002000AD01AC01AF0A2F08AE00B0012E08C5
:100B3000FA003008FB007530012720002D08FA006C
:100B40002C08FB007630012708002000A0000130AF
:100B50002005A100210EF039A2000310A20D031000
:100B6000A20D3C302204A1000630A0050310200C89
:100B7000A200220AA000210420009C0008002000FE
:100B8000A9007B08A8007A08AB000314A91F031072
:100B9000031CD32D21003A122000A809A909A80A94
:100BA0000319A90AD52D21003A16003020002B0484
:100BB0000319DD2D2100BA123A1120002908803EC8
:100BC0007D3E031DE52DE8302802031CF52D200095
:100BD0002808AA002908AC002A08FB002C0898263F
:100BE0002000A9007B08A800AB0120002908803E56
:100BF000803E031DFD2D64302802031C312E200091
:100C00002808AA002908AC00AD0120002C08803E6D
:100C1000803E031D0D2E64302A02031C162E9C30CC
:100C20002000AA07031CAC03AD0A052E20002A08E9
:100C3000A8002C08A9000F30AD052D08E53EAD0039
:100C400007300318013EAA002D08FA002A08FB000D
:100C500080308F31052786312000AC002100B7009D
:100C6000342EFF302100B70020002908803E803E4E
:100C7000031D3C2E0A3028020318492E20002B08A1
:100C8000031D492E210037082000AA00FF3A03194E
:100C90007F2E20002808AA002908AC00AD01200002
:100CA0002C08803E803E031D572E0A302A02031C6A
:100CB000602EF6302000AA07031CAC03AD0A4F2EAD
:100CC00020002A08A8002C08A9002D08E53EAD0048
:100CD00007300318013EAA002D08FA002A08FB007D
:100CE00080308F31052786312000AC002100B8000C
:100CF00020002B080319822E21003810822EFF308D
:100D00002100B80020002808AB00E53EA80007300D
:100D10000318013EA9002808FA002908FB008030CA
:100D20008F31052786312000AB002100B900080073
:100D30002000A0007B08A1000310200CA200210CC1
:100D4000A3000310200CA400210CA6000310A40C87
:100D5000A60C2608A30724080318240FA207230EB5
:100D60000F39A600220EA400F039A604A406260816
:100D7000A30724080318240FA2072208A600A40131
:100D80002608A30724080318240FA2070310A20CA7
:100D9000A30C0310A20CA30C0310A20CA30C0310B1
:100DA000230DA600220DA4000310A60DA40D031010
:100DB000A60DA40D0310230DA500220DA7002508E4
:100DC000A60727080318270FA4072608A10224084E
:100DD000031C240FA0020630A1070318A00A210E4D
:100DE0000F39A600200EA400F039A604A406260898
:100DF000A30724080318240FA2072308FB002208D6
:100E000008002000A7007B08A9007A08A80027088E
:100E10003E272000AB007B08AA002806031D142FE4
:100E20002B08290603193D2F03102000270DAA00C7
:100E300020002A08230091002000280823009300A6
:100E400015139513151520008B13553023009600AC
:100E5000AA309600951420008B172300151123004B
:100E600095182F2F2000121220002908A800A90190
:100E70002A08A700AA0A271C182F08002000A00093
:100E8000A101A2010310200DA300200023082300CC
:100E9000910015139513151413082000A000A40148
:100EA0002008A600A5012208A000A401200825040E
:100EB000A10024082604A2002308A000A30A201CE5
:100EC000452F2108FB00220808008130FA000E306F
:100ED000FB0080308F31172787312100A1007B086C
:100EE000A0008330A2000E30A30021002008A4003F
:100EF0002108A500FF30A007031CA1032408250436
:100F00000319E22F04302207A400A501A50D230830
:100F1000A5072408FA002508FB0080308F31172729
:100F200087312100A7007B08A6002208FA002308C9
:100F3000FB0080308F31172787312100A900A500E1
:100F40007B08A800A40002302207A400A501A50D7B
:100F50002308A5072408FA002508FB0080308F31FC
:100F6000172787312100A500AB007B08A400AA0049
:100F700021002608AA002708AB00FF30A607031CA3
:100F8000A7032A082B040319DC2F2808FA002908D4
:100F9000FB0080308F31052787312100AA0024080B
:100FA0008400250885002A088000A80A0319A90AD8
:100FB000A40A0319A50AB82F06302100A2070318B6
:100FC000A30A752F8031BA2808000334B7340D34D2
:100FD0002534B134613441343734013421340034A0
:100FE0000034003400340034003400340034003461
:0C0FF000003400340034003400340034BD
:1010000020008B1322000D082000D40021000E08C0
:101010002000D50022008D01D83021008E00031061
:101020002100400D2000D600D70120008E1F1A2875
:101030002000D70A20005608D8005708D6005804C8
:101040002100C0000310400D2000D600D701200071
:101050000E1E2C282000D70A20005608D80057085A
:10106000D60058042100C0000310400D2000D60017
:10107000D70120000E1F3E282000D70A2000560866
:10108000D8005708D60058042100C0000310400DB6
:101090002000D600D70120008E1D50282000D70A3E
:1010A00020005608D8005708D60058042100C00078
:1010B0002000540822008D002000550821008E00D9
:1010C00020008B1721003F08031DBF030D302100B6
:1010D0003C020318712C08308A0072303C07031858
:1010E0008A0A82007F28E928D1283A2955297B29B4
:1010F0009F29C329CF29132AAC2A4F2B982B88303C
:10110000210040052000D400083A031D8E2832300B
:101110002100BF0001302100BC00732C00302100F1
:1011200040040319732C7F3087313E27883120001B
:10113000D5007B08D40055040319732C33302100EB
:1011400040052000D400033A031DAA2802302100E4
:10115000BC00732C2230210040052000D400023A4C
:10116000031DB62803302100BC00732C1130210070
:1011700040052000D400013A031DC5281930210084
:10118000BF0004302100BC00732C44302100400516
:101190002000D400403A031D732C07302100BC000E
:1011A000732C0030FA006430FB0000308531BF251D
:1011B0008831210037102100BA163A15333021004A
:1011C00040052000D400333A0319732C2100BC01E0
:1011D000732C003021003F04031D19297F30873113
:1011E0003E2788312000D6007B08D400D70057085E
:1011F000003003190130D400D800D901D81BD9031D
:101200005808FA005908FB007F30873101278931DF
:10121000200057080319152922000C100C128C12FB
:101220002800171120009310162901002100BC018D
:10123000732C8830210040052000D400883A03191F
:10124000732CD40123001E1F27292000D40A20005C
:101250005408003003190130D700D400540C03188F
:10126000332923001E13031C372923001E172100D6
:10127000BC01732C743087313E2789312000D700A0
:101280007B08D4000130FA005408FB005708853170
:10129000BF2589312230210040052000D400223AA8
:1012A0000319732C2100BC01732C7E3087313E273B
:1012B00089312000D7007B08D400D8000030FB0023
:1012C0005808852406302000580203187029210090
:1012D0003F08031D70291130BF0005302100BC00FC
:1012E0001130210040052000D400113A0319732C5D
:1012F0002100BC01732C753087313E2789312000D5
:10130000D7007B08D4000030FA005408FB005708CF
:101310008531BF25893121003F08031D94291930EB
:10132000BF0006302100BC00113021004005200024
:10133000D400113A0319732C2100BC01732C7630B0
:1013400087313E2789312000D7007B08D400003048
:10135000FA005408FB0057088531BF258931210068
:101360003F08031DB8291930BF0004302100BC001C
:101370001130210040052000D400113A0319732CCC
:101380002100BC01732C0130FB0021003D088524A5
:10139000C8302100BF0008302100BC00732C003091
:1013A00021003F040319DC2988302100400520007A
:1013B000D400803A031DDF292100BC01732C2230A8
:1013C000210040052000D400203A031DF12921000E
:1013D000BD0A07303D020318BD0107302100BC00E3
:1013E000732C1130210040052000D400103A031D59
:1013F000052A2100BD0307303D02031C012A0630E7
:10140000BD0007302100BC00732C44302100400592
:101410002000D400403A031D732C2100BE01093086
:101420002100BC00732C21003A16BA163A1506307A
:1014300021003D020318442A21003E1C262A853043
:101440002100B700D1302100B8002C2A61302100E2
:10145000B70019302100B800031021003E0C200015
:10146000D400E53ED40007300318013ED7005408ED
:10147000FA005708FB0080308F3105278A312000A1
:10148000D8002100B900A52A0730FB0021003E0842
:101490008F3134278A312000D400D7015408263EEA
:1014A000D40057080318570F0E3ED7005408FA000F
:1014B0005708FB0080308F3105278A312000D80083
:1014C0002100B7000730FB0021003E088F31342790
:1014D0008A312000D400D7015408263ED400570892
:1014E0000318570F0E3ED700D40A0319D70A540821
:1014F000FA005708FB0080308F3105278A31200021
:10150000D8002100B8000730FB0021003E088F31D1
:1015100034278A312000D400D7015408263ED40055
:1015200057080318570F0E3ED7000230D407031890
:10153000D70A5408FA005708FB0080308F3105277E
:101540008A312000D8002100B900C8302100BF0036
:101550000A302100BC00732C003021003F04031D21
:10156000B42A2100BC01732C8830210040052000E2
:10157000D400803A031DC02A07302100BC00732C20
:101580002230210040052000D400203A031DE12A2A
:101590002100BE0A063021003D020318D62A13306E
:1015A00021003E02031CDD2ABE01DD2A0D30210090
:1015B0003E02031CFF2ABE01FF2A09302100BC00A5
:1015C000732C1130210040052000D400103A031D77
:1015D0001F2B2100BE03063021003D020318F82A0C
:1015E000133021003E02031C1B2B1230BE001B2BAC
:1015F0000D3021003E02031CFF2A0C30BE007E305D
:1016000087313E278B312000D7007B08D400D800DB
:1016100006305802031C1B2B21003E08033A031D11
:10162000142BBE0ABE0A1B2B21003E08043A031DE0
:101630001B2BFE30BE0709302100BC00732C443048
:10164000210040052000D400403A031D732C1330C4
:10165000FB0021003D088F3134278B312000D4005E
:1016600021003E082000D407540887313E278B31E3
:101670002000DB007B08DA0020005408FA0020007C
:101680005A08FB005B08CE242000DB007B08DA0050
:10169000C8302100BF000B302100BC00732C063085
:1016A00021003D0203186B2B21003E1C612B0030F2
:1016B000FA0020005A08FB005B088531BF258B31FA
:1016C000912B0130FA0020005A08FB005B0885319D
:1016D000BF258B31912B033021003E0203187A2B5A
:1016E0000130FA0020005A08FB005B088531BF2555
:1016F0008B31912B0C3021003E020318892B0030D6
:10170000FA0020005A08FB005B088531BF258B31A9
:10171000912B20005A082000D4000030FB00540810
:101720008524C8302100BF000C302100BC00732C80
:101730001330FB0021003D088F3134278B3120000E
:10174000D40021003E082000D40721003F08031DDB
:10175000AC2B2100BC01732C8830210040052000F7
:10176000D700803A031DB82B09302100BC00732C30
:101770002100C01ECE2B2000DA0A0319DB0A5B0809
:10178000803E7D3E031DC62BE9305A02031CE42B2C
:1017900009302000DA070318DB0AE42B2100401E81
:1017A000FB2BFF302000DA07031CDB035B08803EC5
:1017B0007D3E031DDD2BE9305A02031CE42BF7307C
:1017C0002000DA07031CDB0320005408FA00200085
:1017D0005A08FB005B08CE242000DB007B08DA00FF
:1017E0001F3028001D02031CF72BF8309D070B301B
:1017F0002100BC00732C4430210040052000D7009C
:10180000403A031D6D2C21003D08063A031D5F2C54
:1018100021003E080C3A031D532C0030FA00003022
:10182000FB007530873101278C310030FA00003021
:10183000FB007630873101278C3120005B08803E29
:10184000803E031D252C06305A0203185F2C200011
:101850005A082000D7001330FB0057088F31342777
:101860008C312000D80087313E278C312000D900F0
:101870007B08D700FA005908FB0074308731012734
:101880008C312000D80A580887313E278C3120003F
:10189000D8007B08D7005804031D5F2C06302000B9
:1018A000DA00DB015F2C21003E08053A031D5F2CA6
:1018B00020005A082000D7008531A5258C31200052
:1018C0005A08FA005B08FB00200054088731012702
:1018D0008C3109302100BC00732CFA3028009D00A7
:1018E000732C2100BC0121003C0800300319013099
:1018F0002000D400D700570C0318802C2000991327
:10190000031C842C2000991708002000C6007B08C7
:10191000C50021003A16BA163A15BA14063020004E
:1019200046020318AC2C19302100B700DD3021002D
:10193000B80020004608E53EC80007300318013E05
:10194000C7004808FA004708FB0080308F310527A0
:101950008C312100B900CD2C003020004504031942
:10196000BB2C61302100B70009302100B800C9301C
:101970002100B900CD2CCD302100B700FF3021006F
:10198000B9000730200046020318CA2CC9302100D4
:10199000B800CD2C03302100B80008002000CD0095
:1019A0007B08CC007A08CE0072304E020318FD2C62
:1019B0004E1CEB2CE730F7000330F8000030F90044
:1019C0000030FA004C08FB004D0849252000CD00EE
:1019D0007B08CC00442D7830F7000530F8007030DB
:1019E000F900FE30FA0020004C08FB004D084925A4
:1019F0002000CD007B08CC00442D8E302000CE0787
:101A00000730FB004E088F3134278D312000CF0086
:101A1000D0014F08263ECE000E30D10050080318EA
:101A2000500FD10703304E07CF00D001D00D510821
:101A3000D0074F08FA005008FB0080308F3117277D
:101A40008D312000D3007B08D2000530CE0703186B
:101A5000D10A4E08FA005108FB0080308F31172759
:101A60008D312000D0007B08CF00F7005008F8002F
:101A70005208F9005308FA004C08FB004D084925AC
:101A80002000CD007B08CC0020004C08FB004D0856
:101A900008002000C6007B08C5007A08C800790845
:101AA000C7007808CA007708C9004A08803ECB0002
:101AB0004608803E4B02031D5F2D4508490203186E
:101AC000662D20004708FB0048087C2D20004608B2
:101AD000803ECB004808803E4B02031D712D470815
:101AE00045020318782D20004908FB004A087C2D88
:101AF00020004508FB00460808002000DF007B08A6
:101B0000DE007A08DD007908DC007808E300770859
:101B1000E2007608E1007508E000E401E501E60175
:101B2000E7010830E80020005C1CA42D6008E407F1
:101B300061080318610FE50762080318620FE607E2
:101B400063080318630FE70720005C08E9005D08DD
:101B5000EA005E08EB005F08EC006A1CC32D620817
:101B6000EC006108EB00E9010030E4076008EA00DE
:101B700003186A0FE5076B0803186B0FE6076C087C
:101B800003186C0FE70720005C08E9005D08EA0015
:101B90005E08EB005F08EC006B1CE22D6108EC00B6
:101BA0006008EB00EA01E9010030E40700300318A7
:101BB0006A0FE5076B0803186B0FE6076C0803183C
:101BC0006C0FE70720005C08E9005D08EA005E088A
:101BD000EB005F08EC006C1C002E6008EC00EB01D1
:101BE000EA01E9010030E407003003186A0FE50755
:101BF0006B0803186B0FE6076C0803186C0FE707F8
:101C000020005C08E9005D08EA005E08EB005F0860
:101C1000EC0003106C0CDF006B0CDE006A0CDD00C6
:101C2000690CDC000310E00DE10DE20DE30D680826
:101C3000E9006903E8006808031D932D6408F900B2
:101C40006508FA006608FB0067080800C934CD344F
:101C5000FF34CE34FF3432340034C934CD340D3443
:101C6000CE34FF343234003461341934FF347034EC
:101C7000FE34783405346134C934FF340034003420
:101C8000083400348534D134FF3400340034E73470
:101C9000033419348534FF34003400340434003400
:101CA000CD341934FF3400340034E7340334CD34F8
:101CB000B734FF340034003463340034033419344F
:101CC000FF3400340034FF3400340334CB34FF34A9
:101CD00000340034FF34003403349134FF340034D2
:101CE0000034FF3400341934C134FF34003400347C
:101CF00001340034DD34D534FF340034003407348B
:101D000000340B34003403340034BA34003401346A
:101D10000034F33407346D34003402340034F534C5
:101D20000734B534003402340034EF340734B134AE
:101D3000003404340034F7340734BB340034013445
:101D40000034F8340734BC34003401340034F9343E
:101D50000734BD34003401340034FA340734BE345F
:101D6000003401340034FB340734BF340034013410
:101D70000034FC340734C034003401340034FD3402
:101D80000734C134003401340034003400341A34D0
:101D9000FE349D34FE34F234FE343334FF3469347F
:101DA000FF349834FF34C334FF34EB34FF34103441
:101DB00000343334003455340034773400349834EC
:101DC0000034B8340034D9340034FA3400341C34CC
:101DD00001343E3401346234013487340134AF3489
:101DE0000134D934013407340234393402347034C4
:101DF0000234B0340234FB34023458340334D13466
:101E0000033482340434CA340534003A03190C2FE5
:101E1000803A0319122F00347A0884007B08850069
:101E2000000808007B088A007A0882000800003A4F
:101E300003191F2F803A0319272FFB0100347A085A
:101E400084007B0885001200FB00000808008F3129
:101E50001227F900FA0FFB03FB0A8F311227F80053
:101E60007908FB00780808002100AC007B08AD0071
:101E7000AE010830AF0021002C1C402F2D08AE070A
:101E800021002C08B0000310300CAC0003102D0D05
:101E9000B000AD002F08B0003003AF002F08031DC5
:061EA0003B2F2E08080094
:020000040001F9
:02000E00D40F0D
:02001000FF3AB5
:00000001FF
