:020000040000FA
:1000000000008531592DFF348A0120000B1D412845
:10001000031022000D0D2000AC002C08031D122837
:100020001030AC0021008E0122008D0120002C0830
:10003000103A031928282C08203A03192D282C08D7
:10004000403A031932282C08803A031937283B28F4
:1000500022002C0822008E003B2822002D082200BE
:100060008E003B2822002E0822008E003B28220012
:10007000300822008E0020002C0822008D00200075
:100080000B112000911C932822003208031D4E28DA
:10009000220031082200B3002200B20A22003208F6
:1000A000220033022000AC01031C2C142C08003069
:1000B00003190130AD00AC002C0C0318612822009C
:1000C0008C12031C652822008C162000AC01220033
:1000D0008C1E6C282000AC0A20002C08003003196C
:1000E0000130AD00AC002C0C031878282200B011B0
:1000F000031C7C282200B0152000AC012800171D2D
:1001000083282000AC0A20002C08AD002D0C031819
:100110008B2822000C12031C8F2822000C162200B0
:10012000B20A20009110090020008B1322000D0854
:100130002100AE0021000E082100AF0022008D0139
:10014000D83021008E00031022003C0D2100B000A9
:10015000B10120008E1FAE282100B10A2100300815
:10016000B2003108B00032042200BC0003103C0D84
:100170002100B000B10120000E1EC0282100B10AEC
:1001800021003008B2003108B00032042200BC0067
:1001900003103C0D2100B000B10120000E1FD22839
:1001A0002100B10A21003008B2003108B000320449
:1001B0002200BC0003103C0D2100B000B101200062
:1001C0008E1DE4282100B10A21003008B200310858
:1001D000B00032042200BC0021002E0822008D0055
:1001E00021002F0821008E0020008B1722003A08E2
:1001F000031DBA0307302200380203185B2B81303D
:100200008A000630380703188A0A82000D295D2902
:10021000CB29462A692A302B442B443022003C0546
:100220002100AE00403A031D21290030220037048E
:1002300003191E2905302200B800212901302200AF
:10024000B800223022003C052100AE00223A031DF6
:100250003729220020082100AE00220021082100B9
:10026000AF000030FA002E08FB002F086F2311307A
:1002700022003C052100AE00113A031D4D29220049
:1002800022082100AE00220023082100AF00003028
:10029000FA002E08FB002F086F23883022003C054F
:1002A0002100AE00883A031D5D2B0030FA002200C9
:1002B0002408FB0025086F235D2B22003016B016A2
:1002C00030150430220039020318BB290530FB0029
:1002D00039088731342781312100AE00AF012E0863
:1002E000533EAE002F0803182F0F003EAF002E081C
:1002F00084002F0885000008B0002200AC00053003
:10030000FB00220039088731342781312100AE00FB
:10031000AF012E08533EAE002F0803182F0F003EEA
:10032000AF00AE0A0319AF0A2E0884002F0885001B
:100330000008B0002200AD000530FB0022003908A3
:100340008731342781312100AE00AF012E08533EA2
:10035000AE002F0803182F0F003EAF000230AE078B
:100360000318AF0A2E0884002F0885000008B0008B
:100370002200AE00C429DD302200AC00D5302200BE
:10038000AD00FF302200AE00C8302200BA000230BB
:100390002200B8005D2B003022003A04031DD3294F
:1003A0002200B8015D2B883022003C052100AE0000
:1003B000803A031DDE292200B8015D2B2230220085
:1003C0003C052100AE00203A031DF3290430220031
:1003D0003902031CED29B901EF292200B90A0130C5
:1003E0002200B8005D2B113022003C052100AE0038
:1003F000103A031D082A22003908031D022A04307E
:10040000B900042A2200B90301302200B8005D2B94
:10041000443022003C052100AE00403A031D5D2B14
:1004200003302200B80022003908031D1C2A2200D4
:1004300034082200BB005D2B22003908013A031D5D
:10044000262A220035082200BB005D2B2200390835
:10045000023A031D302A220036082200BB005D2B21
:1004600022003908033A031D402A65308F31822764
:1004700082312100AF007B08AE002200BB005D2B63
:1004800001302200B7002200B8015D2B220039089C
:10049000023A031D572A22003B082100AE00AF019B
:1004A0000130FA002E08FB002F086F23622A220079
:1004B0003B082100AE00AF010030FA002E08FB001F
:1004C0002F086F23C8302200BA0004302200B80081
:1004D0005D2B003022003A04031D712A2200B8016E
:1004E0005D2B883022003C052100AE00803A031DC0
:1004F0007D2A01302200B8005D2B2200BC1EB62AE6
:100500000530FB0022003908873134278231210071
:10051000AE00AF012E08533EAE002F0803182F0F78
:10052000003EAF0004302E07B000B101B10D2F081E
:10053000B10730088400310885000008B2002200AD
:100540003B02031CB02A03302100AE070318AF0A98
:100550002E0884002F08850000082200BB00B22A64
:100560002200BB0A03302200B8005D2B22003C1E93
:10057000F02A0530FB002200390887313427823108
:100580002100AE00AF012E08533EAE002F08031825
:100590002F0F003EAF0003302E07B000B101B10DA8
:1005A0002F08B10730088400310885000008B20028
:1005B00022003B0821003202031CEA2A0430AE0765
:1005C0000318AF0A2E0884002F08850000082200B7
:1005D000BB00EC2A2200BB0303302200B8005D2BD5
:1005E000443022003C052100AE00403A031D5D2B43
:1005F00022003908031D012B22003B082200B40011
:100600002C2B22003908013A031D0B2B22003B083A
:100610002200B5002C2B22003908023A031D152BAD
:1006200022003B082200B6002C2B22003908033A96
:10063000031D2C2B22003B082100AE00AF012E0829
:10064000FA002F08FB0065308F31452783312200E7
:100650003B088E311F26833101302200B8005D2B0C
:1006600022003016B016301549302200AC00D530CB
:100670002200AD0085302200AE00C8302200BA0052
:1006800006302200B8005D2B003022003A04031D22
:100690004C2B2200B8015D2B443022003C05210088
:1006A000AE00403A031D5D2B2200B7012200B014BA
:1006B0002200B8015D2B2200B8012200380800306A
:1006C000031901302100AE00AF002F0C03186A2B74
:1006D00020009913031C6E2B20009917080021009D
:1006E000A9007B08A8007A08AA000314A91F031018
:1006F000031C832B220030122100A809A909A80A93
:100700000319A90A852B22003016003021002A0483
:1007100003198D2B2200B012301521002908803ECC
:100720007D3E031D952BE8302802031CA52B2100DC
:100730002808AB002908AC002B08FB002C08482433
:100740002100A9007B08A800AA0121002908803EF9
:10075000803E031DAD2B64302802031CE12B2100D9
:100760002808AB002908AC00AD0121002C08803E10
:10077000803E031DBD2B64302B02031CC62B9C3016
:100780002100AB07031CAC03AD0AB52B21002B08DD
:10079000A8002C08A9000F30AD052D08F23EAD00D1
:1007A0008F300318013EAB002D08FA002B08FB0028
:1007B00080308731052783312100AC002200AC0056
:1007C000E42BFF302200AC0021002908803E803E4F
:1007D000031DEC2B0A3028020318F92B21002A08EC
:1007E000031DF92B22002C082100AB00FF3A03194E
:1007F0002F2C21002808AB002908AC00AD012100F6
:100800002C08803E803E031D072C0A302B02031C5F
:10081000102CF6302100AB07031CAC03AD0AFF2BF4
:1008200021002B08A8002C08A9002D08F23EAD00DD
:100830008F300318013EAB002D08FA002B08FB0097
:1008400080308731052784312100AC002200AD00C3
:1008500021002A080319322C22002D10322CFF30DF
:100860002200AD0021002808AA00F23EA8008F3027
:100870000318013EA9002808FA002908FB0080306F
:100880008731052784312100AA002200AE0008002C
:100890002100A1007B08A0000310210CA300200C64
:1008A000A2000310210CA500200CA4000310A50C2D
:1008B000A40C2408A20725080318250FA307220E5D
:1008C0000F39A400230EA500F039A404A5062408BE
:1008D000A20725080318250FA3072308A400A501D4
:1008E0002408A20725080318250FA3070310A30C4B
:1008F000A20C0310A30CA20C0310A30CA20C031057
:10090000220DA400230DA5000310A40DA50D0310B6
:10091000A40DA50D0310220DA600230DA700260887
:10092000A40727080318270FA5072408A0022508F5
:10093000031C250FA1020630A0070318A10A200EF0
:100940000F39A400210EA500F039A404A50624083F
:10095000A20725080318250FA3072208FB00230878
:1009600008002100B6007B08B5007A08B4007908B9
:10097000B3007808BA007708B9007608B80075089F
:10098000B700BB01BC01BD01BE010830BF002100A2
:10099000331CD82C3708BB0738080318380FBC079E
:1009A00039080318390FBD073A0803183A0FBE0774
:1009B00021003308C0003408C1003508C2003608E1
:1009C000C300411CF72C3908C3003808C200C0011D
:1009D0000030BB073708C1000318410FBC074208AD
:1009E0000318420FBD0743080318430FBE07210039
:1009F0003308C0003408C1003508C2003608C300FF
:100A0000421C162D3808C3003708C200C101C001BE
:100A10000030BB0700300318410FBC074208031821
:100A2000420FBD0743080318430FBE0721003308D8
:100A3000C0003408C1003508C2003608C300431C9A
:100A4000342D3708C300C201C101C0010030BB070B
:100A500000300318410FBC0742080318420FBD07BE
:100A600043080318430FBE0721003308C0003408B1
:100A7000C1003508C2003608C3000310430CB6009D
:100A8000420CB500410CB400400CB3000310B70D8C
:100A9000B80DB90DBA0D3F03C000BF004008031DDB
:100AA000C72C3B08F9003C08FA003D08FB003E0853
:100AB00008005730FA008630FB0080308731172756
:100AC00085312100D5007B08D4005930D60086300E
:100AD000D70021005408D8005508D900FF30D407AA
:100AE000031CD503580859040319D62D04305607A2
:100AF000D800D901D90D5708D9075808FA00590864
:100B0000FB0080308731172785312100DB007B080F
:100B1000DA005608FA005708FB00803087311727A3
:100B200085312100DD00D9007B08DC00D8000230CF
:100B30005607D800D901D90D5708D9075808FA0027
:100B40005908FB0080308731172785312100D900F3
:100B5000DF007B08D800DE0021005A08DE005B08B9
:100B6000DF00FF30DA07031CDB035E085F040319B4
:100B7000D02D5C08FA005D08FB0080308731052726
:100B800085312100DE0058088400590885005E0880
:100B90008000DC0A0319DD0AD80A0319D90AAC2D32
:100BA00006302100D6070318D70A692D883100289E
:100BB00008002100C7007B08C6007A08C500790834
:100BC000C4007808CB007708CA007608C900750809
:100BD000C800CC01CD01CE01CF010130D000D10140
:100BE000D201D301480849044A044B04031D002ED6
:100BF000FF30F900FF30FA00FF30FB00FF30562EC7
:100C00002100CB1B0E2E0310C80DC90DCA0DCB0D34
:100C10000310D00DD10DD20DD30D002E21005008A0
:100C200051045204530403194E2E4B084702031D6E
:100C3000232E4A084602031D232E49084502031DA0
:100C4000232E48084402031C422E21005008CC07E2
:100C500051080318510FCD0752080318520FCE0741
:100C600053080318530FCF074808C4024908031C50
:100C7000490FC5024A08031C4A0FC6024B08031C51
:100C80004B0FC70203102100CB0CCA0CC90CC80CB7
:100C90000310D30CD20CD10CD00C0E2E21004C081A
:100CA000F9004D08FA004E08FB004F080800123406
:100CB0000034033400343034013401340034FC3463
:100CC0000F342634013402340034FE340F34283417
:100CD00001340234003468340734313401340134CF
:100CE00000346934073432340134013400346A3456
:100CF000073433340134013400346B340734343472
:100D00000134013400346C34073435340134013497
:100D100000346D34073436340134013400346E3419
:100D200007343734013401340034663407342A344C
:100D30000134023400345234073453340034143450
:100D400000346F34073438340134013400347034E3
:100D500007343934013401340034713407343A34FF
:100D6000013401340034723407343B34013401342B
:100D70000034733407343C340134013400347434A7
:100D800007343D3401340134003400340034D534A8
:100D9000FD34C134FE345934FF34CF34FF343034A1
:100DA000003486340034D33400341A3401345C34D3
:100DB00001349C340134DA340134163402345134B1
:100DC00002348C340234C7340234023403343F34E6
:100DD00003347D340334BD340334013404344834E3
:100DE000043494340434E53404343F340534A434F6
:100DF0000534173406349E340634443407341E3424
:100E000008345D340934AB340B34003A03190C2F29
:100E1000803A0319122F00347A0884007B08850079
:100E2000000808007B088A007A0882000800003A5F
:100E300003191F2F803A0319272FFB0100347A086A
:100E400084007B0885001200FB0000080800873141
:100E50001227F900FA0FFB03FB0A87311227F8006B
:100E60007908FB00780808002100EB007B08EC0003
:100E7000ED010830EE0021006B1C402F6C08ED07DF
:100E800021006B08EF0003106F0CEB0003106C0DDA
:100E9000EF00EC006E03EF00EE006F08031D3B2F28
:100EA0006D08080003346134FF340034FF34033428
:100EB0008534FF340034FF34D134A134FF3400349E
:100EC000143419348534FF340034043400340034CD
:100ED00000340034003448344034023400340034E8
:0A0EE0000034003400340034003404
:10100000FF302000C7000730C800FF30C90007309C
:10101000CA00DA25093021009D002000CB01CC0157
:101020002000931D182880319420883120009311CE
:101030002000931CD72D2000CB0A0319CC0A4B1C8F
:101040002D284708FB004808FA262000C8007B0826
:10105000C700053021009D00392820004908FB0009
:101060004A08FA262000CA007B08C900093021007E
:101070009D0020004B080F39031DD52D4708FB00AC
:10108000480839262000CE007B08CD005F3082273B
:101090002000D0007B08CF004D08D1004E08D200C0
:1010A0004F0851072200A600200052082200A70086
:1010B000200050080318500A031960282200A707CF
:1010C00020004908FB004A0839262000CE007B0892
:1010D000CD00603082272000D0007B08CF004D0873
:1010E000D1004E08D2004F0851072200A80020006E
:1010F00052082200A900200050080318500A0319C2
:1011000083282200A9072200AA0A0319AB0A083083
:10111000220037020318C92D88308A009330370720
:1011200003188A0A82009B289E28A928F929322AB6
:10113000E72ABE2DC32D2200B101C92D220034089B
:101140002200B1002200AA01AB0102302200B70048
:10115000C92D22002A0801392000AE00AF002F0C53
:101160000318B4282200B010031CB8282200B014C1
:10117000220034082200B10022002A081F39031D72
:10118000C92D2A0E0F392000AE0022002B0E2000A0
:10119000AF00F039AE04AF060310AF0CAE0C033055
:1011A000AE05AF012E08F9002F08FA000230FB004F
:1011B00000308F31A92788312000AF007B08AE00B6
:1011C000673EAE002F0803182F0F003EAF002E0819
:1011D00084002F08850022002608800001312200AB
:1011E0002708800022002A0E0F392000AE002200BE
:1011F0002B0E2000AF00F039AE04AF060310AF0C89
:10120000AE0C00302F02031D072903302E02031CF1
:10121000DE29200067082000A000200068082000C8
:10122000A1002008A2002108A3000130A400023080
:10123000FB00200024088731342789312000A600D4
:10124000A5012608673EA60025080318250F003EC5
:10125000A50026088400250885000008A7000131A4
:1012600000082000A9002208A6002308A5002902E2
:10127000031D3C29260827020318432920002708BC
:10128000A2002908A3000230FB00200024088731B7
:10129000342789312000A600A5012608673EA60054
:1012A00025080318250F003EA50026088400250800
:1012B00085000008A700013100082000A9002008CF
:1012C000A6002108A50029082502031D6929270871
:1012D00026020318702920002708A0002908A10071
:1012E0002000A40A04302402031C1729220820022B
:1012F000A2002308031C230A2102A3002208FB00EA
:101300002308AF007B08AE00220036082000B100A1
:10131000B0013008803EB2002F08803E3202031D2B
:1013200093292E083102031CDE29220035082200F1
:1013300034022200B100200067082000AE00200027
:1013400068082000AF00200069082000B1002000DC
:101350006A082000B0003108AE0730080318300FCB
:10136000AF0720006B082000B10020006C082000AF
:10137000B0003108AE0730080318300FAF07200067
:101380006D082000B10020006E082000B000310878
:10139000AE0730080318300FAF0703102F0C2200E0
:1013A000A50020002E0C2200A4000310A50CA40C04
:1013B0002200B01403302200B700C92D22002A0EEB
:1013C0000F392000AE0022002B0E2000AF00F039B4
:1013D000AE04AF060310AF0CAE0C00302F02031D9D
:1013E000F3291E302E02031CC92D07302200B7003E
:1013F000C92D220036082000AE00AF012E082200C1
:1014000024022000AE002F08031C2F0A2200250210
:101410002000AF0022002708803E2000B2002F08E5
:10142000803E3202031D172A2E08220026020318CE
:10143000C92D22003508220034072200B100220005
:10144000AF01220026082000E70022002708200024
:10145000E8002200B0102200AA01AB0104302200F3
:10146000B700C92D033022002F052000AE00023046
:10147000FB002E08873134278A312000AF00B101EC
:101480002F08673EAF000030AE0031080318310F5F
:10149000AE072F0884002E0885000008B100013136
:1014A00000082000B000220026082000B200220020
:1014B00027082000B30030083302031D612A3108D9
:1014C000320203186F2A20002F0884002E0885009E
:1014D0002200260880000131220027088000220017
:1014E00036082000AE00AF012E082200240720009D
:1014F000AE00220025080318250A0319812A2000BE
:10150000AF0720002F08803EB40022002708803E4D
:1015100020003402031D902A2200260820002E02FB
:101520000318C92D2200AF0A03302F052000AE009A
:101530000230FB002E08873134278A312000AF00AB
:10154000B1012F08673EAE000030B000310803182B
:10155000310FB0072E0884003008850022002608CD
:101560008000013122002708800022002F08023964
:10157000031D01302000AE000230FB002E08873131
:1015800034278A312000AF00B101AF1BB1032F080F
:10159000203EAE000130B00031080318310FB00713
:1015A0002E0884003008850022002A0880000131BE
:1015B00022002B088000220035082200340222007D
:1015C000B1002200B01405302200B700C92D02304E
:1015D000FB0022002F08873134278A312000AE001B
:1015E000AF012E08673EAE002F0803182F0F003EF4
:1015F000AF002E0884002F0885000008B1000131DB
:1016000000082000B000220026082000AE002200C2
:1016100027082000AF003002031D102B2E083102D6
:1016200003185A2B033022002F052000AE00023091
:10163000FB002E08873134278B312000AF00B10129
:101640002F08673EAE000030B00031080318310F9C
:10165000B0072E088400300885002200260880008C
:10166000013122002708800022002F080239031DC3
:1016700001302000AE000230FB002E0887313427F5
:101680008B312000AF00B101AF1BB1032F08203E0A
:10169000AE000130B00031080318310FB0072E083A
:1016A00084003008850022002A08800001312200D1
:1016B0002B088000220036082000AE00AF012E0863
:1016C000220024022000AE002F08031C2F0A220053
:1016D00025022000AF0022002708803E2000B40031
:1016E0002F08803E3402031D782B2E08220026028C
:1016F0000318C92D033022002F02031C8F2D200058
:101700006B082000AE0020006C082000AF00200015
:1017100067082000B100200068082000B0003108F0
:10172000AE023008031C300FAF0220006D0820000D
:10173000B10020006E082000B000200069082000E1
:10174000B20020006A082000B3003208B10233085A
:10175000031C330FB0022E08FB002F083227200095
:10176000AF007B08AE003108FB00300832272000B4
:10177000B0007B08B100220036082000B200B3019F
:101780003308803EB4002F08803E3402031DCA2B6C
:101790002E083202031C862D20003308803EB40040
:1017A0003008803E3402031DD72B31083202031C5F
:1017B000862D033022002F052000B2000230FB00EE
:1017C0003208873134278B312000B300B40133084D
:1017D000673EB2000030B50034080318340FB50777
:1017E00032088400350885000008B3000131000884
:1017F0002000B40022002F032000B2000330B20505
:101800000230FB003208873134278C312000B600CB
:10181000B7013608673EB2000030B8003708031839
:10182000370FB80732088400380885000008B60072
:10183000013100082000B70036083302B100370834
:10184000031C370A3402B0003108FB00300832278D
:101850002000B0007B08B100220022082000B20066
:10186000220023082000B300220020082000B4003A
:10187000220021082000B60034083202AE003608EB
:10188000031C360A3302AF002E08FB002F08322754
:101890002000AF007B08AE00220035082000B20017
:1018A000B301B401B6013208F5003308F60034087C
:1018B000F7003608F8004B30F9001030FA0000301D
:1018C000FB0000308431B1248C312000BA007B0849
:1018D000B9007A08B8007908B7003108BB003008B1
:1018E000BC000030BC1BFF30BE00BD003B08F50053
:1018F0003C08F6003D08F7003E08F8003708F900FC
:101900003808FA003908FB003A088531D9258C31AE
:101910002000B8007B08B7007A08B0007908B10051
:10192000310E0F39B900300EBA00F039B904BA06D9
:10193000370EBF00F039BA04BF06380EC000F039C8
:10194000BF04C0063908B1003A08B0003208F500FB
:101950003308F6003408F7003608F8008D30F90037
:101960000030FA000030FB0000308431B1248C31AB
:101970002000C0007B08BF007A08BA007908B900CF
:101980002E08C1002F08C2000030C21BFF30C40067
:10199000C3004108F5004208F6004308F700440878
:1019A000F8003B08F9003C08FA003D08FB003E083F
:1019B0008431B1248C312000C6007B08C5007A0830
:1019C000AF007908AE00F5002F08F6004508F700D3
:1019D0004608F8003908F9003A08FA003F08FB0009
:1019E00040088531D9258C312000BA007B08B90028
:1019F0007A08AF007908AE00BF002F08C000390890
:101A0000C5003A08C6003F08AE004008AF002E08E7
:101A10002200A40020002F082200A5002000320888
:101A2000F5003308F6003408F7003608F8001630E1
:101A3000F9000030FA000030FB0000308431B1249E
:101A40008D312000B6007B08B4007A08B300790815
:101A5000B2004108F5004208F6004308F7004408C8
:101A6000F8003208F9003308FA003408FB003608A1
:101A70008431B1248D312000B6007B08B4007A088F
:101A8000B3007908B2003B08F5003C08F6003D08B9
:101A9000F7003E08F8003208F9003308FA0034086D
:101AA000FB0036088531D9258D312000B6007B0832
:101AB000B4007A08B3007908B2000310360CBD00F8
:101AC000340CBC00330CBB00BE010310BE0CBD0CBB
:101AD000BC0CBB0C3B08AE003C08AF003108FA0060
:101AE0003008FB006630452722002408FA0025084C
:101AF000FB006730452720002E08FA002F08FB0066
:101B00006830452706302200B700C92D1330220067
:101B10002F02031C8F2D07302200B700C92D220091
:101B2000AF0A03302F052000AE000230FB002E0864
:101B3000873134278D312000AF00B1012F08673E77
:101B4000AE000030B00031080318310FB0072E0886
:101B50008400300885002200260880000131220020
:101B60002708800022003508220034072200B10037
:101B70002200B01004302200B700C92D2200B0149A
:101B80002200B101C92D2200B0142200B1012200AF
:101B9000B7012000991FD52D0130FA002200260838
:101BA000FB00270883316F238D31200093106400E0
:101BB000102808006A30210099000E308C002200A5
:101BC0008C0121008D0122008D0121008E01063043
:101BD00023008C0021001E169E1723008E01C330A7
:101BE0002100950020009501653082272000A70084
:101BF0007B08A900A8001F26F43020009B002100CC
:101C000091147230280097007F3082272000A700AF
:101C10007B08A900A800280C0318102E2800171113
:101C2000031C142E28001715FA3028009600763071
:101C30009E00FA309D00E03020008B00080020005C
:101C4000A00001302005A100210EF039A2000310F0
:101C5000A20D0310A20D3C302204A1000630A00505
:101C60000310200CA200220AA000210420009C00E6
:101C700008002000A0007B08A1002030A200A301E2
:101C8000A401A6010310200CA500210CA7003F30E1
:101C9000A705A5012708A900210D200DA700A50172
:101CA000A50D1F302705A100A0012108A700270AC4
:101CB000A1000230FB002108873134278E3120003B
:101CC000A000A5012008C53EA0008630A10025087F
:101CD0000318250FA1070230FB002708873134279E
:101CE0008E312000A500A8012508C53EA50086303C
:101CF000A70028080318280FA707A8012000290813
:101D00002802031CA62E2508FA002708FB008030B5
:101D1000873117278E312000AB007B08AA00AE0068
:101D20002B08AF000030AF1BFF30B100B0002E0811
:101D3000A2072F0803182F0FA30730080318300F2E
:101D4000A40731080318310FA607C92E2000200868
:101D5000FA002108FB008030873117278E312000E0
:101D6000AB007B08AA00AE002B08AF000030AF1B11
:101D7000FF30B100B0002E08A2072F0803182F0F64
:101D8000A30730080318300FA40731080318310FD8
:101D9000A6072000A80A40302802031C7E2E220E2F
:101DA0000F39A100230EA000F039A104A006240ED3
:101DB000A700F039A004A706260EA500F039A70455
:101DC000A506F030A519A5040310A51B0314A50C46
:101DD000A70CA00CA10C0310A51B0314A50CA70CA9
:101DE000A00CA10C2108A2002008A3002208FB00DF
:101DF000230808002000A0007B08A10021009D14FA
:101E000021009D18002F1D1003102000200CA2009F
:101E1000210CA3000310A20CA30C2308A10222088A
:101E2000031C220FA00221001C082000A300A20115
:101E30002308A400A60121001B082000A300A20182
:101E40002308A6042208A4042608A3002408A2004C
:101E50002308A10722080318220FA0072108FB006E
:101E6000200808002000A0007B08A1000314A01F88
:101E70000310031C402FA109A009A10A0319A00AFD
:101E800020002108FB00200808002000A7007B0894
:101E9000A9007A08A800270882272000AB007B0849
:101EA000AA002806031D582F2B0829060319812F85
:101EB00003102000270DAA0020002A08230091000B
:101EC00020002808230093001513951315152000F2
:101ED0008B13553023009600AA30960095142000ED
:101EE0008B172300151123009518732F2000121251
:101EF00020002908A800A9012A08A700AA0A271C6F
:101F00005C2F08002000A000A101A2010310200DF9
:101F1000A300200023082300910015139513151426
:101F200013082000A000A4012008A600A501220893
:101F3000A000A40120082504A10024082604A20072
:101F40002308A000A30A201C892F2108FB002208D7
:101F500008002100E1007B08E0007A08E30079082E
:101F6000E200E401E5010830E60021006008E70036
:101F70006108E800671CC22F6208E40763080318C1
:101F8000630FE50721006008E7006108E800003002
:101F9000E81BFF30EA00E900681CDB2FE70164085A
:101FA000E9006508EA0000306907E4006208E8001B
:101FB0000318680FE50721006008E7006108E800E2
:101FC0000310680CE100670CE0000310E20DE30D64
:101FD0006603E700E6006708031DB52F6408FB00F1
:101FE000650808000334B7340D342534B134613446
:101FF00041343734013421340034003400340034A7
:020000040001F9
:02000E00D40F0D
:02001000FF3AB5
:00000001FF
