:020000040000FA
:1000000000008E31262EFF348A0120000B1D41286E
:10001000031022000D0D2000B9003908031D12281D
:100020001030B90021008E0122008D012000390816
:10003000103A031928283908203A03192D283908BD
:10004000403A031932283908803A031937283B28E7
:100050002100400822008E003B2821004108220098
:100060008E003B282100420822008E003B28210000
:10007000430822008E002000390822008D00200055
:100080000B112000911CB82820004208031D4E28A7
:10009000210044082000C1002000C20A20004208BC
:1000A000200041022000B901031C39143908003036
:1000B00003190130BA003A080319612828001719FA
:1000C00064282000B901672801302000B900200011
:1000D0003908BA003A0C03186F2822008C12031C4E
:1000E000732822008C162000B90122008C1E7A2869
:1000F0002000B90A20003908003003190130BA0085
:10010000B900390C031886282100C311031C8A2862
:100110002100C3152000B9012800171D91282000D7
:10012000B90A20003908BA003A0C031899282200AD
:100130000C12031C9D2822000C162000B90122007D
:100140000C1EA4282000B90A200039080030031929
:100150000130BA00B900390C0318B0282100C313CC
:10016000031CB4282100C3172000C20A20009110EC
:1001700009006A30210099000E308C0022008C01A9
:1001800021008D0122008D0121008E010630230007
:100190008C0021001E169E1723008E01C330210003
:1001A0009500200095016430BE272000BC007B082C
:1001B000BB00BD002526F43020009B0021009114D7
:1001C0007230280097007F30BE272000BC007B08DB
:1001D000BB00BD003D0C0318EF2828001711031CBD
:1001E000F32828001715FA302800960076309E0074
:1001F000FA309D00E03020008B00093021009D0086
:100200002000931D162988310020813128001719FC
:100210001429FF302100C30003302100C0005930F1
:100220002100C2002100C100200093112000931C76
:10023000252A2100BA0A0319BB0A3A1C2C292100DD
:100240003C08FB003D084A232100BD007B08BC00A0
:10025000053021009D00382921003E08FB003F08A1
:100260004A232100BF007B08BE00093021009D0009
:1002700021003A080F39031D232A23001F162100ED
:100280003C08FB003D0828222000BC007B08BB0086
:100290005F30BE272000BE007B08BD003B08BF00CA
:1002A0003C08C0003D083F072100B4002000400882
:1002B0002100B50020003E0803183E0A03196229F8
:1002C0002100B50723001F1221003E08FB003F0854
:1002D00028222000BC007B08BB006030BE27200025
:1002E000BE007B08BD003B08BF003C08C0003D08C5
:1002F0003F072100B600200040082100B700200081
:100300003E0803183E0A031987292100B707210078
:100310003D082000BB00BC0100303C02031D9229B7
:10032000F8303B022000BD01031C3D143D080030A5
:1003300003190130BE003E08031DB12900303C0204
:10034000031DA42909303B022000BD01BD0D3D085D
:10035000003003190130BB003B08031DB129BB016C
:10036000B42901302000BB0020003B08BD003D0C3B
:100370000318BC2922000C10031CC02922000C14F5
:1003800022000C1CD22911302100C000CB302100EA
:10039000C100FF302100C2002100C30022000C1266
:1003A0008C12232A6D30BE272000BD007B08BB00C5
:1003B000BE0005303E020318ED292100431303302F
:1003C00021003B02031DE629E8303A02031CF22912
:1003D000AC252100BA01BB01F229210043172100FD
:1003E000BA01BB0121003408FB0035088523200039
:1003F000991F232A2000BB0123001E1F012A200071
:10040000BB0A20003B08003003190130BD00BB00CF
:100410003B0C03180D2A2100C310031C112A2100D4
:10042000C31423001E1F1C2A0130FA0021003608C5
:10043000FB0037083F26232A0130FA002100340848
:10044000FB0035083F2620009310640000290800B7
:100450002000A0007B08A1002030A200A301A4017D
:10046000A6010310200CA500210CA7000310A50C69
:10047000A70C3F30A705A5012708A9002008A70061
:10048000A5011F302705A100A0012108A700270A08
:10049000A1000230FB0021088F31DA2782312000D1
:1004A000A000A50120086B3EA0000F30A100250888
:1004B0000318250FA1070230FB0027088F31DA2728
:1004C00082312000A500A80125086B3EA5000F3051
:1004D000A70028080318280FA707A801200029084B
:1004E0002802031C962A2508FA002708FB00803002
:1004F0008F31BD2782312000AB007B08AA00AC0001
:100500002B08AD000030AD1BFF30AE00AF002C0853
:10051000A2072D0803182D0FA3072F0803182F0F6C
:10052000A4072E0803182E0FA607B92A20002008BA
:10053000FA002108FB0080308F31BD278231200076
:10054000AB007B08AA00AC002B08AD000030AD1B4F
:10055000FF30AE00AF002C08A2072D0803182D0FA6
:10056000A3072F0803182F0FA4072E0803182E0F18
:10057000A6072000A80A40302802031C6E2A230088
:100580001F1E1E2B03102100B91B0314390C200061
:10059000A0002100380C2000A1000310A01B0314B0
:1005A000A00CA10C2108210038022000A100200885
:1005B000031C200A210039022000A000220821008B
:1005C0002C022000A70021002D082000A5002308F0
:1005D000031C230FA50221002E082000A9002408D7
:1005E000031C240FA9022608031C260A21002F023F
:1005F0002000A8002708AA002508AB002A08210728
:100600002100B800200020082100B90020002B089C
:1006100003182B0A03190E2B2100B907200022080A
:100620002100AC00200023082100AD002000240898
:100630002100AE00200026082100AF002000220E7D
:100640000F39A100230EA000F039A104A006240E4A
:10065000A700F039A004A706260EA500F039A704CC
:10066000A506F030A519A5040310A51B0314A50CBD
:10067000A70CA00CA10C0310A51B0314A50CA70C20
:10068000A00CA10C2108A2002008A3002208FB0056
:10069000230808002000A0007B08A10021009D1471
:1006A00021009D18502B1D1003102000200CA200CB
:1006B000210CA3000310A20CA30C0310A20CA30C8A
:1006C0002308A1022208031C220FA00221001C08FB
:1006D0002000A300A2012308A400A60121001B08FA
:1006E0002000A300A2012308A6042208A4042608CF
:1006F000A3002408A2002308A10722080318220F40
:10070000A0072108FB00200808002000A7007B08A4
:10071000A9006D30BE272000A8007B08AB00003088
:100720002802031D952B06302B0203189C2D6130E7
:10073000BE272000A8007B08AB002908AA002708D4
:10074000AC002A082B02A9002C08031C2C0A280242
:10075000A7006530BE272000A8007B08AB00AA00D8
:100760002808AC00AD01AE012908AB002708A8009D
:100770000030A81BFF30AF00B0002B08F5002808A0
:10078000F6003008F7002F08F8002A08F9002C08B6
:10079000FA002D08FB002E088D317D2583312000C5
:1007A000AE007B08AD007A08AC007908AA002E0ED6
:1007B000F039B1002D0EB2000F39B104B2062C0E83
:1007C000B3000F39B204B3062A0EB4000F39B304D4
:1007D000B4066630BE272000AC007B08AA00AD003E
:1007E0002C08AE00B501B6012B08F5002808F6006C
:1007F0003008F7002F08F8002D08F9002E08FA003D
:100800003508FB0036088D317D2584312000AC0091
:100810007B08AA007A08A8007908AB002100B0077D
:10082000200028080318280A0319182C2100B107F2
:1008300020002A0803182A0A0319202C2100B207D5
:1008400020002C0803182C0A0319282C2100B307B8
:100850006830BE272000AE007B08AD002E08803E29
:10086000B7002708803E3702031D382C29082D02C7
:100870000318562C2000AD09AE09AD0A0319AE0AC3
:100880002708803EB7002E08803E3702031D4A2C01
:100890002D0829020318562C2100B001B101B20124
:1008A000B3012000AB01A801AA01AC01210033086B
:1008B0002000AE00210032082000AD0021003108E8
:1008C0002000A700210030082000A900B407270855
:1008D0000318270FB3072D0803182D0FB2072E0892
:1008E00003182E0FB1076730BE272000A7007B0832
:1008F000A900AD002708AE00B001AF012100380803
:100900002000A900210039082000A7000030A71B03
:10091000FF30B600B5002908F5002708F6003508B5
:10092000F7003608F8002D08F9002E08FA00300804
:10093000FB002F088D317D2584312000AE007B081F
:10094000AD007A08A7007908A9000310290DB000AE
:10095000270DAF002D0DB5002E0DB6003008B407E1
:100960002F0803182F0FB30735080318350FB207E8
:1009700036080318360FB1076B30BE272000A700DA
:100980007B08A900AD002708AE00B001AF01300E12
:10099000F039B6002E0EB5000F39B604B5062D0E8F
:1009A000A7000F39B504A706A9010310A90DA70DCB
:1009B000B50DB60D3608803EB7003108803E3702CF
:1009C000031DEC2C32083502031DEC2C33082702E2
:1009D000031DEC2C340829020318252D20002C08B7
:1009E000803E803E031DFE2C00302A02031DFE2C9B
:1009F00000302802031DFE2C01302B02031C1C2D8D
:100A000020002B082100B00220002808031C280A1F
:100A100003190C2D2100B10220002A08031C2A0A08
:100A20000319142D2100B20220002C08031C2C0AEB
:100A300003191C2D2100B30220002908B400270847
:100A4000B3003508B2003608B1006A30BE27200076
:100A5000AE007B08AD00B0002E08AF00B701370E26
:100A6000F039B6002F0EB5000F39B604B506300EBA
:100A7000A7000F39B504A706A9010310A90DA70DFA
:100A8000B50DB60D3108803EB8003608803E3802FC
:100A9000031D542D35083202031D542D270833023F
:100AA000031D542D290834020318802D031420003F
:100AB000AC1F0310031C772D2B082100B00220006F
:100AC0002808031C280A0319672D2100B102200001
:100AD0002A08031C2A0A03196F2D2100B2022000E4
:100AE0002C08031C2C0A0319772D2100B3022000C7
:100AF0002908B4002708B3003508B2003608B10051
:100B00002000330E0F39B400320EB300F039B404B4
:100B1000B306310EB200F039B304B206F030B219A8
:100B2000B204B101B21BB1030310B11B0314B10C29
:100B3000B20CB30CB40CA72D6930BE272000A7005F
:100B40007B08A900B4002708B300B201B10120005E
:100B500034082100C40008006D30BE272000AC001E
:100B60007B08AD00AE0005302E020318242E623043
:100B7000BE272000AC007B08AD00AF006330BE276D
:100B80002000AC007B08AD00AD0A0319AC0A0930A7
:100B90002F02031CCD2D0830AF001330FB002000C6
:100BA0002E088F31DA2785312000B00003102F0D79
:100BB000AE003007AE002E0AB000BE272000B10004
:100BC0007B08B00002302E07B200BE272000B30021
:100BD0007B08B20031082C02031DF02D30082D02D5
:100BE000031C1D2E20003208FA003308FB00613080
:100BF000812720002F08083A0319092E0330AE0779
:100C00002E08BE272000B0007B08AE003004031D74
:100C1000102E0530FA000030FB006D308127242EA5
:100C20002000AD01AC01AF0A2F08AE00B0012E08C4
:100C3000FA003008FB006230812720002D08FA00FE
:100C40002C08FB006330812708002000A000013041
:100C50002005A100210EF039A2000310A20D0310FF
:100C6000A20D3C302204A1000630A0050310200C88
:100C7000A200220AA000210420009C0008002000FD
:100C8000A9007B08A8007A08AB000314A91F031071
:100C9000031C532E210043122000A809A909A80A09
:100CA0000319A90A552E21004316003020002B04F9
:100CB00003195D2E2100C312431520002908803E30
:100CC0007D3E031D652EE8302802031C752E200092
:100CD0002808AA002908AC002A08FB002C081827BD
:100CE0002000A9007B08A800AB0120002908803E55
:100CF000803E031D7D2E64302802031CB12E20008F
:100D00002808AA002908AC00AD0120002C08803E6C
:100D1000803E031D8D2E64302A02031C962E9C30CB
:100D20002000AA07031CAC03AD0A852E20002A0868
:100D3000A8002C08A9000F30AD052D08E53EAD0038
:100D400007300318013EAA002D08FA002A08FB000C
:100D500080308F31AB2786312000AC002100C000ED
:100D6000B42EFF302100C00020002908803E803EC4
:100D7000031DBC2E0A3028020318C92E20002B08A0
:100D8000031DC92E210040082000AA00FF3A0319C4
:100D9000FF2E20002808AA002908AC00AD01200081
:100DA0002C08803E803E031DD72E0A302A02031CE9
:100DB000E02EF6302000AA07031CAC03AD0ACF2EAC
:100DC00020002A08A8002C08A9002D08E53EAD0047
:100DD00007300318013EAA002D08FA002A08FB007C
:100DE00080308F31AB2786312000AC002100C1005C
:100DF00020002B080319022F21004110022FFF3081
:100E00002100C10020002808AB00E53EA800073003
:100E10000318013EA9002808FA002908FB008030C9
:100E20008F31AB2787312000AB002100C2000800C2
:100E30002000A0007B08A1000310200CA200210CC0
:100E4000A3000310200CA400210CA6000310A40C86
:100E5000A60C2608A30724080318240FA207230EB4
:100E60000F39A600220EA400F039A604A406260815
:100E7000A30724080318240FA2072208A600A40130
:100E80002608A30724080318240FA2070310A20CA6
:100E9000A30C0310A20CA30C0310A20CA30C0310B0
:100EA000230DA600220DA4000310A60DA40D03100F
:100EB000A60DA40D0310230DA500220DA7002508E3
:100EC000A60727080318270FA4072608A10224084D
:100ED000031C240FA0020630A1070318A00A210E4C
:100EE0000F39A600200EA400F039A604A406260897
:100EF000A30724080318240FA2072308FB002208D5
:100F000008002000A7007B08A9007A08A80027088D
:100F1000BE272000AB007B08AA002806031D942FE3
:100F20002B0829060319BD2F03102000270DAA0046
:100F300020002A08230091002000280823009300A5
:100F400015139513151520008B13553023009600AB
:100F5000AA309600951420008B172300151123004A
:100F60009518AF2F2000121220002908A800A9010F
:100F70002A08A700AA0A271C982F08002000A00012
:100F8000A101A2010310200DA300200023082300CB
:100F9000910015139513151413082000A000A40147
:100FA0002008A600A5012208A000A401200825040D
:100FB000A10024082604A2002308A000A30A201CE4
:100FC000C52F2108FB00220808000334B7340D3474
:100FD0002534B134613441343734013421340034A0
:100FE00000340034003400340034FF340F34FF3454
:0E0FF0000F3400340034003400340034003478
:1010000020008B1322000D082000D20021000E08C2
:101010002000D30022008D01D83021008E00031063
:101020002100490D2000D400D50120008E1F1A2870
:101030002000D50A20005408D6005508D4005604D4
:101040002100C9000310490D2000D400D501200063
:101050000E1E2C282000D50A20005408D600550862
:10106000D40056042100C9000310490D2000D4000B
:10107000D50120000E1F3E282000D50A200054086C
:10108000D6005508D40056042100C9000310490DAC
:101090002000D400D50120008E1D50282000D50A44
:1010A00020005408D6005508D40056042100C90079
:1010B0002000520822008D002000530821008E00DD
:1010C00020008B1721004808031DC8030D302100A4
:1010D00045020318712C08308A0072304507031846
:1010E0008A0A82007F28E928D1283A2955297B29B4
:1010F0009F29C329CF29132AAC2A4F2B982B88303C
:10110000210049052000D200083A031D8E28323004
:101110002100C80001302100C500732C00302100DF
:1011200049040319732C7F308731BE278831200092
:10113000D3007B08D20053040319732C33302100F1
:1011400049052000D200033A031DAA2802302100DD
:10115000C500732C2230210049052000D200023A3C
:10116000031DB62803302100C500732C1130210067
:1011700049052000D200013A031DC528193021007D
:10118000C80004302100C500732C443021004905FB
:101190002000D200403A031D732C07302100C50007
:1011A000732C0030FA006430FB00003086313F269B
:1011B0008831210040102100C3164315333021002F
:1011C00049052000D200333A0319732C2100C501D0
:1011D000732C003021004804031D19297F3087310A
:1011E000BE2788312000D4007B08D200D5005508E6
:1011F000003003190130D200D600D701D61BD70327
:101200005608FA005708FB007F3087318127893163
:10121000200055080319152922000C100C128C12FD
:101220002800171120009310162901002100C50184
:10123000732C8830210049052000D200883A031918
:10124000732CD20123001E1F27292000D20A200060
:101250005208003003190130D500D200520C031897
:10126000332923001E13031C372923001E172100D6
:10127000C501732C61308731BE2789312000D5002C
:101280007B08D2000130FA005208FB005508863175
:101290003F2689312230210049052000D200223A20
:1012A0000319732C2100C501732C6D308731BE27C3
:1012B00089312000D5007B08D200D6000030FB0029
:1012C0005608852405302000560203187029210095
:1012D0004808031D70291130C80005302100C500E1
:1012E0001130210049052000D200113A0319732C56
:1012F0002100C501732C62308731BE27893120005F
:10130000D5007B08D2000030FA005208FB005508D7
:1013100086313F26893121004808031D9429193060
:10132000C80006302100C500113021004905200009
:10133000D200113A0319732C2100C501732C6330BC
:101340008731BE2789312000D5007B08D2000030CC
:10135000FA005208FB00550886313F2689312100EA
:101360004808031DB8291930C80004302100C50001
:101370001130210049052000D200113A0319732CC5
:101380002100C501732C0130FB0021004608852493
:10139000C8302100C80008302100C500732C00307F
:1013A000210048040319DC29883021004905200068
:1013B000D200803A031DDF292100C501732C2230A1
:1013C000210049052000D200203A031DF129210007
:1013D000C60A063046020318C60107302100C500C0
:1013E000732C1130210049052000D200103A031D52
:1013F000052A2100C60306304602031C012A0530D7
:10140000C60007302100C500732C44302100490577
:101410002000D200403A031D732C2100C70109307F
:101420002100C500732C21004316C3164315053057
:10143000210046020318442A2100471C262A853031
:101440002100C000D1302100C1002C2A61302100D0
:10145000C00019302100C10003102100470C2000FA
:10146000D200E53ED20007300318013ED5005208F5
:10147000FA005508FB0080308F31AB278A312000FD
:10148000D6002100C200A52A0730FB002100470832
:101490008F31DA278A312000D200D5015208A63ECA
:1014A000D20055080318550F0E3ED5005208FA0019
:1014B0005508FB0080308F31AB278A312000D600E1
:1014C0002100C0000730FB00210047088F31DA27D8
:1014D0008A312000D200D5015208A63ED20055081C
:1014E0000318550F0E3ED500D20A0319D50A52082B
:1014F000FA005508FB0080308F31AB278A3120007D
:10150000D6002100C1000730FB00210047088F31C1
:10151000DA278A312000D200D5015208A63ED20037
:1015200055080318550F0E3ED5000230D207031898
:10153000D50A5208FA005508FB0080308F31AB27DE
:101540008A312000D6002100C200C8302100C80026
:101550000A302100C500732C003021004804031D0F
:10156000B42A2100C501732C8830210049052000D0
:10157000D200803A031DC02A07302100C500732C19
:101580002230210049052000D200203A031DE12A23
:101590002100C70A0530210046020318D62A13305D
:1015A00021004702031CDD2AC701DD2A0F3021007C
:1015B0004702031CFF2AC701FF2A09302100C5008A
:1015C000732C1130210049052000D200103A031D70
:1015D0001F2B2100C7030530210046020318F82AFB
:1015E000133021004702031C1B2B1230C7001B2B9A
:1015F0000F3021004702031CFF2A0E30C7006D3058
:101600008731BE278B312000D5007B08D200D60061
:1016100005305602031C1B2B21004708033A031D0B
:10162000142BC70AC70A1B2B21004708043A031DC5
:101630001B2BFE30C70709302100C500732C443036
:10164000210049052000D200403A031D732C1330BD
:10165000FB00210046088F31DA278B312000D200B1
:10166000210047082000D20752088731BE278B315E
:101670002000D9007B08D80020005208FA00200082
:101680005808FB005908CE242000D9007B08D80058
:10169000C8302100C8000B302100C500732C053074
:1016A0002100460203186B2B2100471C612B0030E0
:1016B000FA0020005808FB00590886313F268B317C
:1016C000912B0130FA0020005808FB0059088631A0
:1016D0003F268B31912B03302100470203187A2BD0
:1016E0000130FA0020005808FB00590886313F26D7
:1016F0008B31912B0E30210047020318892B0030CB
:10170000FA0020005808FB00590886313F268B312B
:10171000912B200058082000D2000030FB00520816
:101720008524C8302100C8000C302100C500732C6E
:101730001330FB00210046088F31DA278B3120005F
:10174000D200210047082000D20721004808031DCD
:10175000AC2B2100C501732C8830210049052000E5
:10176000D500803A031DB82B09302100C500732C29
:101770002100C91ECE2B2000D80A0319D90A590806
:10178000803E7D3E031DC62BE9305802031CE42B2E
:1017900009302000D8070318D90AE42B2100491E7C
:1017A000FB2BFF302000D807031CD9035908803ECB
:1017B0007D3E031DDD2BE9305802031CE42BF7307E
:1017C0002000D807031CD90320005208FA0020008B
:1017D0005808FB005908CE242000D9007B08D80007
:1017E0001F3028001D02031CF72BF8309D070B301B
:1017F0002100C500732C4430210049052000D5008C
:10180000403A031D6D2C21004608053A031D5F2C4C
:10181000210047080E3A031D532C0030FA00003017
:10182000FB006230873181278C310030FA000030B4
:10183000FB006330873181278C3120005908803EBE
:10184000803E031D252C0530580203185F2C200014
:1018500058082000D5001330FB0055088F31DA27D7
:101860008C312000D6008731BE278C312000D70074
:101870007B08D500FA005708FB00613087318127CB
:101880008C312000D60A56088731BE278C312000C3
:10189000D6007B08D5005604031D5F2C05302000C0
:1018A000D800D9015F2C21004708053A031D5F2CA1
:1018B000200058082000D500863125268C312000D4
:1018C0005808FA005908FB00200052088731812788
:1018D0008C3109302100C500732CFA3028009D009E
:1018E000732C2100C5012100450800300319013087
:1018F0002000D200D500550C0318802C200099132D
:10190000031C842C2000991708002000C4007B08C9
:10191000C30021004316C3164315C314053020002D
:1019200044020318AC2C19302100C000DD30210026
:10193000C10020004408E53EC60007300318013E00
:10194000C5004608FA004508FB0080308F31AB2700
:101950008C312100C200CD2C00302000430403193B
:10196000BB2C61302100C00009302100C100C9300A
:101970002100C200CD2CCD302100C000FF3021005D
:10198000C2000630200044020318CA2CC9302100CE
:10199000C100CD2C03302100C10008002000CB0085
:1019A0007B08CA007A08CC005F304C020318FD2C7B
:1019B0004C1CEB2CE730F7000330F8000030F90046
:1019C0000030FA004A08FB004B0849252000CB00F4
:1019D0007B08CA00442DC430F7000930F80070308D
:1019E000F900FE30FA0020004A08FB004B084925A8
:1019F0002000CB007B08CA00442DA1302000CC077A
:101A00000730FB004C088F31DA278D312000CD00E4
:101A1000CE014D08A63ECC000E30CF004E08031874
:101A20004E0FCF0703304C07CD00CE01CE0D4F082F
:101A3000CE074D08FA004E08FB0080308F31BD27DD
:101A40008D312000D1007B08D0000530CC07031871
:101A5000CF0A4C08FA004F08FB0080308F31BD27B9
:101A60008D312000CE007B08CD00F7004E08F80035
:101A70005008F9005108FA004A08FB004B084925B4
:101A80002000CB007B08CA0020004A08FB004B085E
:101A900008002000C4007B08C3007A08C60079084B
:101AA000C5007808C8007708C7004808803EC9000C
:101AB0004408803E4902031D5F2D43084702031876
:101AC000662D20004508FB0046087C2D20004408B8
:101AD000803EC9004608803E4902031D712D45081D
:101AE00043020318782D20004708FB0048087C2D8E
:101AF00020004308FB00440808002000DD007B08AC
:101B0000DC007A08DB007908DA007808E100770861
:101B1000E0007608DF007508DE00E201E301E40181
:101B2000E5010830E60020005A1CA42D5E08E207FB
:101B30005F0803185F0FE30760080318600FE407EE
:101B400061080318610FE50720005A08E7005B08E9
:101B5000E8005C08E9005D08EA00681CC32D600825
:101B6000EA005F08E900E7010030E2075E08E800EC
:101B70000318680FE30769080318690FE4076A0888
:101B800003186A0FE50720005A08E7005B08E80021
:101B90005C08E9005D08EA00691CE22D5F08EA00C4
:101BA0005E08E900E801E7010030E20700300318B1
:101BB000680FE30769080318690FE4076A08031848
:101BC0006A0FE50720005A08E7005B08E8005C0898
:101BD000E9005D08EA006A1C002E5E08EA00E901DF
:101BE000E801E7010030E20700300318680FE3075F
:101BF00069080318690FE4076A0803186A0FE50704
:101C000020005A08E7005B08E8005C08E9005D086E
:101C1000EA0003106A0CDD00690CDC00680CDB00D4
:101C2000670CDA000310DE0DDF0DE00DE10D660834
:101C3000E7006703E6006608031D932D6208F900BC
:101C40006308FA006408FB00650808000F30FA001A
:101C50000F30FB0080308F31BD278E312100A10075
:101C60007B08A0001130A2000F30A3002100200843
:101C7000A4002108A500FF30A007031CA10324082D
:101C800025040319A32E04302207A400A501A50DE5
:101C90002308A5072408FA002508FB0080308F31AF
:101CA000BD278E312100A7007B08A6002208FA007C
:101CB0002308FB0080308F31BD278E312100A90021
:101CC000A5007B08A800A40002302207A400A501FB
:101CD000A50D2308A5072408FA002508FB0080307D
:101CE0008F31BD278E312100A500AB007B08A400F9
:101CF000AA0021002608AA002708AB00FF30A6078B
:101D0000031CA7032A082B0403199D2E2808FA0098
:101D10002908FB0080308F31AB278E312100AA00CB
:101D200024088400250885002A088000A80A0319D1
:101D3000A90AA40A0319A50A792E06302100A207D0
:101D40000318A30A362E8031B9280800C934CD34CF
:101D5000FF349C34FF3464340034C934CD340D3442
:101D60009C34FF346434003461341934FF347034EB
:101D7000FE34C43409346134C934FF3400340034CF
:101D8000083400348534D134FF3400340034E7346F
:101D9000033419348534FF340034003404340034FF
:101DA000CD341934FF3400340034E7340334CD34F7
:101DB000B734FF3400340034E7340334CD34853491
:101DC000FF3400340034E73403348534B734FF344F
:101DD00000340034C834003403341934FF34003480
:101DE0000034FF3400340334CB34FF340034003487
:101DF000FF34003403349134FF3400340034FF34B2
:101E000000341934C134FF34003400340134003458
:101E1000DD34D534FF3400340034063400340F345C
:101E2000003403340034C334003401340034FD344E
:101E30000F34B434003402340034EF340734B63491
:101E4000003402340034F1340734B834003402343E
:101E50000034F3340734BA34003402340034F93433
:101E60000F34B034003404340034FF340F34C4343D
:101E7000003401340034F5340734BC340034023407
:101E80000034F7340734BE34003402340034F934FB
:101E90000734C534003401340034FA340734C6340E
:101EA000003401340034FB340734C73400340134C7
:101EB0000034FC340734C834003401340034FD34B9
:101EC0000734C934003401340034FE340734CA34D2
:101ED00000340134003400340034D534FD34C134CE
:101EE000FE345934FF34CF34FF3430340034863478
:101EF0000034D33400341A3401345C3401349C345B
:101F00000134DA34013416340234513402348C345E
:101F10000234C7340234023403343F3403347D3492
:101F20000334BD3403340134043448340434943469
:101F30000434E53404343F340534A4340534173410
:101F400006349E340634443407341E3408345D3479
:101F50000934AB340B34003A0319B22F803A031919
:101F6000B82F00347A0884007B0885000008080038
:101F70007B088A007A0882000800003A0319C52FFE
:101F8000803A0319CD2FFB0100347A0884007B08C6
:101F900085001200FB00000808008F31B827F90007
:101FA000FA0FFB03FB0A8F31B827F8007908FB0012
:101FB000780808002000EB007B08EC00ED010830F9
:101FC000EE0020006B1CE62F6C08ED0720006B086C
:101FD000EF0003106F0CEB0003106C0DEF00EC0032
:101FE0006E08EF006F03EE006E08031DE12F6D0811
:101FF000080000340034003400340034003400346D
:020000040001F9
:02000E00D40F0D
:02001000FF3AB5
:00000001FF
