:020000040000FA
:1000000000008D317D2DFF348A0120000B1D412819
:10001000031022000D0D2000B5003508031D122825
:100020001030B50021008E0122008D01200035081E
:10003000103A031928283508203A03192D283508C5
:10004000403A031932283508803A031937283B28EB
:100050002100370822008E003B28210038082200AA
:100060008E003B282100390822008E003B28210009
:100070003A0822008E002000350822008D00200062
:100080000B112000911C8C282000C30A4308031D7B
:100090004D2821003B082000C40020004308200018
:1000A00044022000B501031C351435080030031943
:1000B0000130B60036080319612820004408031DEA
:1000C00064282000B501672801302000B500200019
:1000D0003508B600360C03186F2822008C12031C5A
:1000E000732822008C162000B50122008C1E7A286D
:1000F0002000B50A20003508003003190130B60091
:10010000B500350C031886282100BA11031C8A2873
:100110002100BA152000911009002000B701B80194
:10012000FF30B9007F30BA00FF30BB007F30BC0029
:10013000F722093021009D002000931DB22888314C
:100140000020803128001719B028FF302100BA00A4
:1001500003302100B70059302100B9002100B80058
:10016000200093112000931CEA292000B70A0319EC
:10017000B80A371CC7283908FB003A08B922200002
:10018000BA007B08B900053021009D00D32820006B
:100190003B08FB003C08B9222000BC007B08BB00E8
:1001A000093021009D00200037080F39031DE82980
:1001B0003908FB003A08ED212000BE007B08BD0095
:1001C0007230DF262000C0007B08BF003D08C10060
:1001D0003E08C2003F0841072000ED002000420811
:1001E0002000EE00200040080318400A0319FA28F6
:1001F0002000EE0720003B08FB003C08ED2120001A
:10020000BE007B08BD007330DF262000C0007B08E5
:10021000BF003D08C1003E08C2003F084107210061
:10022000B500200042082100B60020004008031855
:10023000400A03191D292100B60720003A08BD0015
:10024000BE0100303E02031D2729F8303D02200088
:10025000BF01031C3F143F08003003190130C000E8
:100260004008031D762900303E02031D392909305C
:100270003D022000BF01BF0D3F08003003190130CF
:10028000BD003D08031D76297D30DF262000BF001C
:100290007B08BD003F04031973293C08BD00BF0162
:1002A00000303F02031D5629F8303D022000C001F6
:1002B000031C40144008003003190130C1004108FC
:1002C000031D762900303F02031D682909303D02D5
:1002D0002000C001C00D4008003003190130BD00EE
:1002E0003D08031D76292000BD0179290130200039
:1002F000BD0020003D08C000400C031881292200E9
:100300000C10031C852922000C1422000C1C9729B8
:1003100005302100B700CB302100B800FF302100AC
:10032000B9002100BA0022000C128C12E8297E309C
:10033000DF262000C0007B08BD00C100063041025E
:100340000318B22921003A13033020003802031D9C
:10035000AB29E8303702031CB729CD242000B701B0
:10036000B801B72921003A172000B701B8012000D1
:100370006D08FB006E083C232000991FE82920002F
:10038000BD0123001E1FC6292000BD0A20003D0814
:10039000003003190130C000BD003D0C0318D22904
:1003A0002100BA10031CD6292100BA1423001E1FF5
:1003B000E1290130FA0021003508FB0036086025EC
:1003C000E8290130FA0020006D08FB006E08602566
:1003D0002000931064009C2808002000A0007B08E7
:1003E000A1002030A200A301A401A601210E0F3913
:1003F000A500200EA700F039A504A7060310A70C3E
:10040000A50C3F30A505A7012508A9000310200C65
:10041000A500A7010310A70CA50C0310A70CA50CA1
:100420001F302505A100A0012108A500250AA10073
:100430000230FB0021088E31C72682312000A00047
:10044000A7012008583EA0000E30A100270803187D
:10045000270FA1070230FB0025088E31C726823105
:100460002000A700A8012708583EA7000E30A500CD
:1004700028080318280FA507A8012000290828022A
:10048000031C652A2708FA002508FB0080308E31FE
:10049000AA2682312000AB007B08AA00AC002B0802
:1004A000AD000030AD1BFF30AE00AF002C08A2073E
:1004B0002D0803182D0FA3072F0803182F0FA407CB
:1004C0002E0803182E0FA607882A20002008FA00FD
:1004D0002108FB0080308E31AA2682312000AB003B
:1004E0007B08AA00AC002B08AD000030AD1BFF302C
:1004F000AE00AF002C08A2072D0803182D0FA3078C
:100500002F0803182F0FA4072E0803182E0FA60775
:100510002000A80A40302802031C3D2A220E0F3971
:10052000A100230EA000F039A104A006240EA5000E
:10053000F039A004A506260EA700F039A504A706E9
:10054000F030A719A7040310A71B0314A70CA50CD0
:10055000A00CA10C0310A71B0314A70CA50CA00C46
:10056000A10C2108A2002008A3002208FB002308F8
:1005700008002000A0007B08A10021009D1421009C
:100580009D18BF2A1D102000210E0F39A200200E39
:10059000A300F039A204A3060310A30CA20C0310BD
:1005A000A30CA20C2208A1022308031C230FA00203
:1005B00021001C082000A200A3012208A400A6011B
:1005C00021001B082000A200A3012208A604230882
:1005D000A4042608A2002408A3002208A1072308D7
:1005E0000318230FA0072108FB00200808006A3029
:1005F000210099000E308C0022008C0121008D0119
:1006000022008D0121008E01063023008C00210084
:100610001E169E1723008E01C33021009500200076
:1006200095017730DF262000A7007B08A900A800ED
:100630004625F43020009B002100911472302800E0
:1006400097007F30DF262000A7007B08A900A800C4
:10065000280C03182D2B28001711031C312B280000
:100660001715FA302800960076309E00FA309D006B
:10067000E03020008B0008002000A7007B08A900C4
:100680007E30DF262000A8007B08AB000030280267
:10069000031D4C2B07302B020318BD2C7430DF26B2
:1006A0002000A8007B08AB00AA002808AC00AD0120
:1006B000AE012908AB002708A8000030A81BFF30B6
:1006C000AF00B0002B082A02AB002C08A800031CC6
:1006D000280FA8022D08A9003008031C300FA9021A
:1006E0002F08031C2F0A2E02A7007930DF262000D6
:1006F000AC007B08AA00AD002C08AE00B001AF0131
:100700002B08F5002808F6002908F7002708F8004C
:100710002D08F9002E08FA003008FB002F08873159
:10072000062783312000AE007B08AD007A08AC00BC
:100730007908AA002100B10720002C0803182C0A10
:100740000319A42B2100B20720002D0803182D0A3D
:100750000319AC2B2100B30720002E0803182E0A22
:100760000319B42B2100B4077830DF262000AC0039
:100770007B08AA00AD002C08AE00B001AF012D0827
:10078000F5002E08F6003008F7002F08F8002B08B7
:10079000F9002808FA002908FB00270887310627F6
:1007A00083312000A7007B08A9007A08A8007908F7
:1007B000AB00210031082000AB07210032080318EC
:1007C000320A0319E52B2000A8072100330803187B
:1007D000330A0319ED2B2000A90721003408031860
:1007E000340A0319F52B2000A7077C30DF262000F0
:1007F000AC007B08AA00AD002C08AE00B001AF0130
:100800003008B1002E08B2002D08AC00AA01310852
:10081000803EB3002708803E3302031D192C2908AF
:100820003202031D192C28082C02031D192C2B0839
:100830002A020318542C20002A082B02AD00280895
:10084000AE002C08031C2C0FAE022908B0003208A1
:10085000031C320FB0023108031C310A2702AF001B
:100860002D082100B10220002E08031C2E0A0319B6
:100870003B2C2100B20220003008031C300A03196F
:10088000432C2100B30220002F08031C2F0A031958
:100890004B2C2100B40220002A08AB002C08A80031
:1008A0003208A9003108A7007B30DF262000AE0007
:1008B0007B08AD00B0002E08AF00B3013308B100D3
:1008C0002F08B2003008AC00AA012708803EB4000F
:1008D0003108803E3402031D772C32082902031DA3
:1008E000772C2C082802031D772C2A082B020318CA
:1008F000B22C20002B082A02AD002C08AE002808DC
:10090000031C280FAE023208B0002908031C290F6F
:10091000B0022708031C270A3102AF002D0821006E
:10092000B10720002E0803182E0A0319992C210064
:10093000B207200030080318300A0319A12C210047
:10094000B30720002F0803182F0A0319A92C210030
:10095000B40720002A08AB002C08A8003208A90020
:100960003108A70020002808AB002908A8002708A4
:10097000A900A701A91BA703C82C7A30DF262000F5
:10098000AC007B08AA00AB002C08A800A901A701B5
:1009900020002B082100BB0008007E30DF2620004D
:1009A000AC007B08AD00AE0006302E020318452DCA
:1009B0007530DF262000AC007B08AD00AF0076303C
:1009C000DF262000AC007B08AD00AD0A0319AC0A9D
:1009D00009302F02031CEE2C0830AF001330FB004F
:1009E00020002E088E31C72684312000B00003106D
:1009F0002F0DAE003007AE002E0AB000DF2620001B
:100A0000B1007B08B00002302E07B200DF262000C4
:100A1000B3007B08B20031082C02031D112D3008F1
:100A20002D02031C3E2D20003208FA003308FB0083
:100A30007430A22620002F08083A03192A2D03300B
:100A4000AE072E08DF262000B0007B08AE00300481
:100A5000031D312D0630FA000030FB007E30A22647
:100A6000452D2000AD01AC01AF0A2F08AE00B0014A
:100A70002E08FA003008FB007530A22620002D0851
:100A8000FA002C08FB007630A22608002000A00007
:100A900001302005A100210EF039A2000310A20DA3
:100AA0000310A20D3C302204A1000630A005031063
:100AB000200CA200220AA000210420009C000800B3
:100AC0002000A9007B08A8007A08AB000314A91F26
:100AD0000310031C742D21003A122000A809A90953
:100AE000A80A0319A90A762D21003A160030200021
:100AF0002B0403197E2D2100BA123A112000290877
:100B0000803E7D3E031D862DE8302802031C962D75
:100B100020002808AA002908AC002A08FB002C089D
:100B200039262000A9007B08A800AB012000290875
:100B3000803E803E031D9E2D64302802031CD22D72
:100B400020002808AA002908AC00AD0120002C08CC
:100B5000803E803E031DAE2D64302A02031CB72D5B
:100B60009C302000AA07031CAC03AD0AA62D200070
:100B70002A08A8002C08A9000F30AD052D08F33E67
:100B8000AD0007300318013EAA002D08FA002A081C
:100B9000FB0080308E31982685312000AC0021008A
:100BA000B700D52DFF302100B70020002908803E76
:100BB000803E031DDD2D0A3028020318EA2D200097
:100BC0002B08031DEA2D210037082000AA00FF3A58
:100BD0000319202E20002808AA002908AC00AD0126
:100BE00020002C08803E803E031DF82D0A302A028A
:100BF000031C012EF6302000AA07031CAC03AD0A2B
:100C0000F02D20002A08A8002C08A9002D08F33E8A
:100C1000AD0007300318013EAA002D08FA002A088B
:100C2000FB0080308E31982686312000AC002100F8
:100C3000B80020002B080319232E21003810232E82
:100C4000FF302100B80020002808AB00F33EA800C8
:100C500007300318013EA9002808FA002908FB0004
:100C600080308E31982686312000AB002100B900FB
:100C700008002000A0007B08A1000310200CA200A7
:100C8000210CA3000310200CA400210CA6000310CB
:100C9000A40CA60C2608A30724080318240FA207F7
:100CA000230E0F39A600220EA400F039A604A406D4
:100CB0002608A30724080318240FA2072208A60069
:100CC000A4012608A30724080318240FA207031071
:100CD000A20CA30C0310A20CA30C0310A20CA30CD7
:100CE0000310230DA600220DA4000310A60DA40DD1
:100CF0000310A60DA40D0310230DA500220DA700BF
:100D00002508A60727080318270FA4072608A1020D
:100D10002408031C240FA0020630A1070318A00A10
:100D2000210E0F39A600200EA400F039A604A40657
:100D30002608A30724080318240FA2072308FB0092
:100D4000220808002000A7007B08A9007A08A80054
:100D50002708DF262000AB007B08AA002806031D19
:100D6000B52E2B0829060319DE2E03102000270DAF
:100D7000AA0020002A082300910020002808230050
:100D8000930015139513151520008B135530230070
:100D90009600AA309600951420008B172300151199
:100DA00023009518D02E2000121220002908A80038
:100DB000A9012A08A700AA0A271CB92E08002000AA
:100DC000A000A101A2010310200DA3002000230810
:100DD0002300910015139513151413082000A0008B
:100DE000A4012008A600A5012208A000A401200853
:100DF0002504A10024082604A2002308A000A30AB9
:100E0000201CE62E2108FB00220808002000DF003D
:100E10007B08DE007A08DD007908DC007808E30052
:100E20007708E2007608E1007508E000E401E501DA
:100E3000E601E7010830E80020005C1C2D2F600867
:100E4000E40761080318610FE50762080318620FE1
:100E5000E60763080318630FE70720005C08E90052
:100E60005D08EA005E08EB005F08EC006A1C4C2F8E
:100E70006208EC006108EB00E9010030E40760085B
:100E8000EA0003186A0FE5076B0803186B0FE60703
:100E90006C0803186C0FE70720005C08E9005D0888
:100EA000EA005E08EB005F08EC006B1C6B2F61082A
:100EB000EC006008EB00EA01E9010030E4070030D3
:100EC00003186A0FE5076B0803186B0FE6076C0839
:100ED00003186C0FE70720005C08E9005D08EA00D2
:100EE0005E08EB005F08EC006C1C892F6008EC00CA
:100EF000EB01EA01E9010030E407003003186A0F52
:100F0000E5076B0803186B0FE6076C0803186C0FF6
:100F1000E70720005C08E9005D08EA005E08EB00D6
:100F20005F08EC0003106C0CDF006B0CDE006A0C39
:100F3000DD00690CDC000310E00DE10DE20DE30DB6
:100F40006808E9006903E8006808031D1C2F6408AD
:100F5000F9006508FA006608FB00670808000B3412
:100F6000003403340034BA34003401340034FD3426
:100F700007346D34003402340034EA340E34B534AE
:100F8000003402340034E6340E34B1340034043416
:100F90000034FF340734BB34003401340034EC3403
:100FA0000E34BC34003401340034ED340E34BD341E
:100FB000003401340034EE340E34BE3400340134D5
:100FC0000034EF340E34BF34003401340034F034D4
:100FD0000E34C034003401340034F1340E34C134E2
:100FE0000034013400340334B7340D342534B134C3
:100FF0006134413437340134213400340034003456
:1010000020008B1322000D082000D40021000E08C0
:101010002000D50022008D01D83021008E00031061
:101020002100400D2000D600D70120008E1F1A2875
:101030002000D70A20005608D8005708D6005804C8
:101040002100C0000310400D2000D600D701200071
:101050000E1E2C282000D70A20005608D80057085A
:10106000D60058042100C0000310400D2000D60017
:10107000D70120000E1F3E282000D70A2000560866
:10108000D8005708D60058042100C0000310400DB6
:101090002000D600D70120008E1D50282000D70A3E
:1010A00020005608D8005708D60058042100C00078
:1010B0002000540822008D002000550821008E00D9
:1010C00020008B1721003F08031DBF030D302100B6
:1010D0003C020318712C08308A0072303C07031858
:1010E0008A0A82007F28E928D1283A2955297B29B4
:1010F0009F29C329CF29132AAC2A4F2B982B88303C
:10110000210040052000D400083A031D8E2832300B
:101110002100BF0001302100BC00732C00302100F1
:1011200040040319732C7F308631DF26883120007C
:10113000D5007B08D40055040319732C33302100EB
:1011400040052000D400033A031DAA2802302100E4
:10115000BC00732C2230210040052000D400023A4C
:10116000031DB62803302100BC00732C1130210070
:1011700040052000D400013A031DC5281930210084
:10118000BF0004302100BC00732C44302100400516
:101190002000D400403A031D732C07302100BC000E
:1011A000732C0030FA006430FB000030853160257C
:1011B0008831210037102100BA163A15333021004A
:1011C00040052000D400333A0319732C2100BC01E0
:1011D000732C003021003F04031D19297F30863114
:1011E000DF2688312000D6007B08D400D7005708BE
:1011F000003003190130D400D800D901D81BD9031D
:101200005808FA005908FB007F308631A226893140
:10121000200057080319152922000C100C128C12FB
:101220002800171120009310162901002100BC018D
:10123000732C8830210040052000D400883A03191F
:10124000732CD40123001E1F27292000D40A20005C
:101250005408003003190130D700D400540C03188F
:10126000332923001E13031C372923001E172100D6
:10127000BC01732C74308631DF2689312000D70001
:101280007B08D4000130FA005408FB005708853170
:10129000602589312230210040052000D400223A07
:1012A0000319732C2100BC01732C7E308631DF269C
:1012B00089312000D7007B08D400D8000030FB0023
:1012C0005808852406302000580203187029210090
:1012D0003F08031D70291130BF0005302100BC00FC
:1012E0001130210040052000D400113A0319732C5D
:1012F0002100BC01732C75308631DF268931200036
:10130000D7007B08D4000030FA005408FB005708CF
:1013100085316025893121003F08031D942919304A
:10132000BF0006302100BC00113021004005200024
:10133000D400113A0319732C2100BC01732C7630B0
:101340008631DF2689312000D7007B08D4000030A9
:10135000FA005408FB0057088531602589312100C7
:101360003F08031DB8291930BF0004302100BC001C
:101370001130210040052000D400113A0319732CCC
:101380002100BC01732C0130FB0021003D088524A5
:10139000C8302100BF0008302100BC00732C003091
:1013A00021003F040319DC2988302100400520007A
:1013B000D400803A031DDF292100BC01732C2230A8
:1013C000210040052000D400203A031DF12921000E
:1013D000BD0A07303D020318BD0107302100BC00E3
:1013E000732C1130210040052000D400103A031D59
:1013F000052A2100BD0307303D02031C012A0630E7
:10140000BD0007302100BC00732C44302100400592
:101410002000D400403A031D732C2100BE01093086
:101420002100BC00732C21003A16BA163A1506307A
:1014300021003D020318442A21003E1C262A853043
:101440002100B700D1302100B8002C2A61302100E2
:10145000B70019302100B800031021003E0C200015
:10146000D400F33ED40007300318013ED7005408DF
:10147000FA005708FB0080308E3198268A31200010
:10148000D8002100B900A52A0730FB0021003E0842
:101490008E31C7268A312000D400D7015408FD3E82
:1014A000D40057080318570F0D3ED7005408FA0010
:1014B0005708FB0080308E3198268A312000D800F2
:1014C0002100B7000730FB0021003E088E31C726FF
:1014D0008A312000D400D7015408FD3ED4005708BB
:1014E0000318570F0D3ED700D40A0319D70A540822
:1014F000FA005708FB0080308E3198268A31200090
:10150000D8002100B8000730FB0021003E088E31D2
:10151000C7268A312000D400D7015408FD3ED400EC
:1015200057080318570F0D3ED7000230D407031891
:10153000D70A5408FA005708FB0080308E319826ED
:101540008A312000D8002100B900C8302100BF0036
:101550000A302100BC00732C003021003F04031D21
:10156000B42A2100BC01732C8830210040052000E2
:10157000D400803A031DC02A07302100BC00732C20
:101580002230210040052000D400203A031DE12A2A
:101590002100BE0A063021003D020318D62A13306E
:1015A00021003E02031CDD2ABE01DD2A0D30210090
:1015B0003E02031CFF2ABE01FF2A09302100BC00A5
:1015C000732C1130210040052000D400103A031D77
:1015D0001F2B2100BE03063021003D020318F82A0C
:1015E000133021003E02031C1B2B1230BE001B2BAC
:1015F0000D3021003E02031CFF2A0C30BE007E305D
:101600008631DF268B312000D7007B08D400D8003C
:1016100006305802031C1B2B21003E08033A031D11
:10162000142BBE0ABE0A1B2B21003E08043A031DE0
:101630001B2BFE30BE0709302100BC00732C443048
:10164000210040052000D400403A031D732C1330C4
:10165000FB0021003D088E31C7268B312000D400CD
:1016600021003E082000D40754088631DF268B3144
:101670002000DB007B08DA0020005408FA0020007C
:101680005A08FB005B08CE242000DB007B08DA0050
:10169000C8302100BF000B302100BC00732C063085
:1016A00021003D0203186B2B21003E1C612B0030F2
:1016B000FA0020005A08FB005B08853160258B3159
:1016C000912B0130FA0020005A08FB005B0885319D
:1016D00060258B31912B033021003E0203187A2BB9
:1016E0000130FA0020005A08FB005B0885316025B4
:1016F0008B31912B0C3021003E020318892B0030D6
:10170000FA0020005A08FB005B08853160258B3108
:10171000912B20005A082000D4000030FB00540810
:101720008524C8302100BF000C302100BC00732C80
:101730001330FB0021003D088E31C7268B3120007D
:10174000D40021003E082000D40721003F08031DDB
:10175000AC2B2100BC01732C8830210040052000F7
:10176000D700803A031DB82B09302100BC00732C30
:101770002100C01ECE2B2000DA0A0319DB0A5B0809
:10178000803E7D3E031DC62BE9305A02031CE42B2C
:1017900009302000DA070318DB0AE42B2100401E81
:1017A000FB2BFF302000DA07031CDB035B08803EC5
:1017B0007D3E031DDD2BE9305A02031CE42BF7307C
:1017C0002000DA07031CDB0320005408FA00200085
:1017D0005A08FB005B08CE242000DB007B08DA00FF
:1017E0001F3028001D02031CF72BF8309D070B301B
:1017F0002100BC00732C4430210040052000D7009C
:10180000403A031D6D2C21003D08063A031D5F2C54
:1018100021003E080C3A031D532C0030FA00003022
:10182000FB0075308631A2268C310030FA00003082
:10183000FB0076308631A2268C3120005B08803E8A
:10184000803E031D252C06305A0203185F2C200011
:101850005A082000D7001330FB0057088E31C726E6
:101860008C312000D8008631DF268C312000D90051
:101870007B08D700FA005908FB0074308631A22695
:101880008C312000D80A58088631DF268C312000A0
:10189000D8007B08D7005804031D5F2C06302000B9
:1018A000DA00DB015F2C21003E08053A031D5F2CA6
:1018B00020005A082000D700853146258C312000B1
:1018C0005A08FA005B08FB00200054088631A22663
:1018D0008C3109302100BC00732CFA3028009D00A7
:1018E000732C2100BC0121003C0800300319013099
:1018F0002000D400D700570C0318802C2000991327
:10190000031C842C2000991708002000C6007B08C7
:10191000C50021003A16BA163A15BA14063020004E
:1019200046020318AC2C19302100B700DD3021002D
:10193000B80020004608F33EC80007300318013EF7
:10194000C7004808FA004708FB0080308E3198260F
:101950008C312100B900CD2C003020004504031942
:10196000BB2C61302100B70009302100B800C9301C
:101970002100B900CD2CCD302100B700FF3021006F
:10198000B9000730200046020318CA2CC9302100D4
:10199000B800CD2C03302100B80008002000CD0095
:1019A0007B08CC007A08CE0072304E020318FD2C62
:1019B0004E1CEB2CE730F7000330F8000030F90044
:1019C0000030FA004C08FB004D0849252000CD00EE
:1019D0007B08CC00442D7830F7000530F8007030DB
:1019E000F900FE30FA0020004C08FB004D084925A4
:1019F0002000CD007B08CC00442D8E302000CE0787
:101A00000730FB004E088E31C7268D312000CF00F5
:101A1000D0014F08FD3ECE000D30D1005008031814
:101A2000500FD10703304E07CF00D001D00D510821
:101A3000D0074F08FA005008FB0080308E31AA26EC
:101A40008D312000D3007B08D2000530CE0703186B
:101A5000D10A4E08FA005108FB0080308E31AA26C8
:101A60008D312000D0007B08CF00F7005008F8002F
:101A70005208F9005308FA004C08FB004D084925AC
:101A80002000CD007B08CC0020004C08FB004D0856
:101A900008002000C6007B08C5007A08C800790845
:101AA000C7007808CA007708C9004A08803ECB0002
:101AB0004608803E4B02031D5F2D4508490203186E
:101AC000662D20004708FB0048087C2D20004608B2
:101AD000803ECB004808803E4B02031D712D470815
:101AE00045020318782D20004908FB004A087C2D88
:101AF00020004508FB0046080800AF30FA00073018
:101B0000FB0080308E31AA268D312100A1007B0898
:101B1000A000B130A2000730A30021002008A400DB
:101B20002108A500FF30A007031CA10324082504F9
:101B30000319FA2D04302207A400A501A50D2308DE
:101B4000A5072408FA002508FB0080308E31AA265C
:101B50008D312100A7007B08A6002208FA00230887
:101B6000FB0080308E31AA268D312100A900A5000E
:101B70007B08A800A40002302207A400A501A50D3F
:101B80002308A5072408FA002508FB0080308E31C1
:101B9000AA268D312100A500AB007B08A400AA0075
:101BA00021002608AA002708AB00FF30A607031C67
:101BB000A7032A082B040319F42D2808FA00290882
:101BC000FB0080308E3198268D312100AA00240838
:101BD0008400250885002A088000A80A0319A90A9C
:101BE000A40A0319A50AD02D06302100A207031864
:101BF000A30A8D2D80318D280800C934CD34FF34DF
:101C0000CE34FF3432340034C934CD340D34CE34C4
:101C1000FF343234003461341934FF347034FE340C
:101C2000783405346134C934FF3400340034083466
:101C300000348534D134FF3400340034E7340334C5
:101C400019348534FF340034003406340034CD3484
:101C50001934FF3400340034E7340334CD34B7345E
:101C6000FF3400340034FA34003403341934FF34C0
:101C700000340034FF3400340334CB34FF340034F8
:101C80000034FF34003403349134FF340034003422
:101C9000FF3400341934C134FF34003400340134CB
:101CA0000034DD34D534FF340034003407340034DC
:101CB000003400341A34FE349D34FE34F234FE34E1
:101CC0003334FF346934FF349834FF34C334FF3481
:101CD000EB34FF34103400343334003455340034E2
:101CE0007734003498340034B8340034D9340034B4
:101CF000FA3400341C3401343E340134623401348B
:101D000087340134AF340134D93401340734023418
:101D10003934023470340234B0340234FB340234C7
:101D200058340334D134033482340434CA3405348F
:101D3000003A03199F2E803A0319A52E00347A0821
:101D400084007B088500000808007B088A007A0868
:101D500082000800003A0319B22E803A0319BA2E05
:101D6000FB0100347A0884007B0885001200FB0028
:101D7000000808008E31A526F900FA0FFB03FB0AC4
:101D80008E31A526F8007908FB00780808002100AC
:101D9000AC007B08AD00AE010830AF0021002C1C68
:101DA000D32E2D08AE0721002C08B0000310300CF4
:101DB000AC0003102D0DB000AD002F08B0003003B3
:101DC000AF002F08031DCE2E2E080800003400346B
:101DD0000034003400340034003400340034003463
:041DE0000034003497
:020000040001F9
:02000E00D40F0D
:02001000FF3AB5
:00000001FF
