:020000040000FA
:1000000000008E31262EFF348A0120000B1D41286E
:10001000031022000D0D2000B7003708031D122821
:100020001030B70021008E0122008D01200037081A
:10003000103A031928283708203A03192D283708C1
:10004000403A031932283708803A031937283B28E9
:1000500021003E0822008E003B2821003F0822009C
:100060008E003B282100400822008E003B28210002
:10007000410822008E002000370822008D00200059
:100080000B112000911CB82820004008031D4E28A9
:10009000210042082000BF002000C00A20004008C4
:1000A00020003F022000B701031C3714370800303E
:1000B00003190130B80038080319612828001719FE
:1000C00064282000B701672801302000B700200015
:1000D0003708B800380C03186F2822008C12031C54
:1000E000732822008C162000B70122008C1E7A286B
:1000F0002000B70A20003708003003190130B8008B
:10010000B700370C031886282100C111031C8A2868
:100110002100C1152000B7012800171D91282000DB
:10012000B70A20003708B800380C031899282200B5
:100130000C12031C9D2822000C162000B70122007F
:100140000C1EA4282000B70A20003708003003192D
:100150000130B800B700370C0318B0282100C113D4
:10016000031CB4282100C1172000C00A20009110F0
:1001700009006A30210099000E308C0022008C01A9
:1001800021008D0122008D0121008E010630230007
:100190008C0021001E169E1723008E01C330210003
:1001A00095002000950165308F272000BA007B085C
:1001B000B900BB00F625F43020009B00210091140B
:1001C0007230280097007F308F272000BA007B080C
:1001D000B900BB003B0C0318EF2828001711031CC3
:1001E000F32828001715FA302800960076309E0074
:1001F000FA309D00E03020008B00093021009D0086
:100200002000931D162988310020813128001719FC
:100210001429FF302100C10003302100BE005930F5
:100220002100C0002100BF00200093112000931C7A
:100230002C2A2100B80A0319B90A381C2C292100DC
:100240003A08FB003B0850232100BB007B08BA00A2
:10025000053021009D00382921003C08FB003D08A5
:1002600050232100BD007B08BC00093021009D0007
:10027000210038080F39031D2A2A23001F162100E8
:100280003A08FB003B082F222000BA007B08B90087
:100290005F308F272000BC007B08BB003908BD0001
:1002A0003A08BE003B083D072000EE0020003E0853
:1002B0002000EF0020003C0803183C0A03196229C3
:1002C0002000EF0723001F1221003C08FB003D081F
:1002D0002F222000BA007B08B90060308F27200051
:1002E000BC007B08BB003908BD003A08BE003B08D3
:1002F0003D072100B40020003E082100B500200089
:100300003C0803183C0A031987292100B50721007E
:100310003A0E0F392000B90021003B0E2000BA0030
:10032000F039B904BA0600303A02031D9929F830B1
:1003300039022000BB01031C3B143B0800300319A9
:100340000130BC003C08031DB82900303A02031DEF
:10035000AB29093039022000BB01BB0D3B0800303E
:1003600003190130B9003908031DB829B901BB29A7
:1003700001302000B90020003908BB003B0C0318F5
:10038000C32922000C10031CC72922000C142200D0
:100390000C1CD92911302100BE00CB302100BF0038
:1003A000FF302100C0002100C10022000C128C127D
:1003B0002A2A6D308F272000BB007B08B900BC00C3
:1003C00005303C020318F4292100411303302100B9
:1003D0003902031DED29E8303802031CF9297D2577
:1003E0002100B801B901F929210041172100B80104
:1003F000B90120006E08FB006F0888232000991FB8
:100400002A2A2000B90123001E1F082A2000B90A49
:1004100020003908003003190130BB00B900390C45
:100420000318142A2100C110031C182A2100C1142A
:1004300023001E1F232A0130FA0021003408FB008C
:10044000350810262A2A0130FA0020006E08FB0029
:100450006F08102620009310640000290800200077
:10046000A0007B08A1002030A200A301A401A601E6
:100470000310200CA500210CA7003F30A705A50103
:100480002708A900210D200DA700A501A50D1F30EB
:100490002705A100A0012108A700270AA10002301A
:1004A000FB0021088F319A2782312000A000A5018E
:1004B0002008B63EA0000730A10025080318250F2C
:1004C000A1070230FB0027088F319A2782312000D4
:1004D000A500A8012508B63EA5000730A7002808FA
:1004E0000318280FA707A801200029082802031CC9
:1004F0009C2A2508FA002708FB0080308F317D27D1
:1005000082312000AB007B08AA00AC002B08AD00B4
:100510000030AD1BFF30AE00AF002C08A2072D0845
:1005200003182D0FA3072F0803182F0FA4072E0859
:1005300003182E0FA607BF2A20002008FA00210862
:10054000FB0080308F317D2782312000AB007B089B
:10055000AA00AC002B08AD000030AD1BFF30AE0090
:10056000AF002C08A2072D0803182D0FA3072F0892
:1005700003182F0FA4072E0803182E0FA60720001C
:10058000A80A40302802031C742A23001F1E242BB3
:1005900003102100B71B0314370C2000A00021001A
:1005A000360C2000A1000310A01B0314A00CA10C0A
:1005B0002108210036022000A1002008031C200A87
:1005C000210037022000A000220821002C02200078
:1005D000A70021002D082000A5002308031C230FDD
:1005E000A50221002E082000A9002408031C240FC6
:1005F000A9022608031C260A21002F022000A800B9
:100600002708AA002508AB002A0821072100B60008
:10061000200020082100B70020002B0803182B0A17
:100620000319142B2100B707200022082100AC0079
:10063000200023082100AD00200024082100AE0086
:10064000200026082100AF002000220E0F39A10053
:10065000230EA000F039A104A006240EA700F03953
:10066000A004A706260EA500F039A704A506F030C1
:10067000A519A5040310A51B0314A50CA70CA00C19
:10068000A10C0310A51B0314A50CA70CA00CA10C16
:100690002108A2002008A3002208FB00230808006C
:1006A0002000A0007B08A10021009D1421009D18BE
:1006B000562B1D1003102000200CA200210CA300BB
:1006C0000310A20CA30C2308A1022208031C220F72
:1006D000A00221001C082000A300A2012308A400FE
:1006E000A60121001B082000A300A2012308A604E4
:1006F0002208A4042608A3002408A2002308A107B6
:1007000022080318220FA0072108FB002008080078
:100710002000A7007B08A9006D308F272000A800CB
:100720007B08AB0000302802031D982B06302B02FB
:1007300003186D2D61308F272000A8007B08AB00C7
:100740002908AA002708AC002A082B02A9002C08B7
:10075000031C2C0A2802A70066308F272000A8005F
:100760007B08AB00AA002808AC00AD01AE01290847
:10077000AB002708A8000030A81BFF30AF00B00076
:100780002B08F5002808F6003008F7002F08F800BD
:100790002A08F9002C08FA002D08FB002E088D31DC
:1007A0007D2583312000AC007B08AA007A08A800D0
:1007B0007908AB002C0EF039AF002A0EB0000F39CB
:1007C000AF04B006280EAE000F39B004AE062B0EF3
:1007D000AD000F39AE04AD06210033082000AC0097
:1007E000210032082000AA00210031082000A800C2
:1007F000210030082000AB00AD0728080318280F9F
:10080000AE072A0803182A0FB0072C0803182C0F6C
:10081000AF0768308F272000A8007B08AB00AA0034
:100820002808AC00B101B201210036082000AB005D
:10083000210037082000A8000030A81BFF30B300BB
:10084000B4002B08F5002808F6003408F700330838
:10085000F8002A08F9002C08FA003108FB003208D9
:100860008D317D2584312000AC007B08AA007A08F8
:10087000A8007908AB0003102B0DB100280DB200C1
:100880002A0DB4002C0DB3000310B10DB20DB40D40
:10089000B30D3108AD0732080318320FAE07340824
:1008A0000318340FB00733080318330FAF076B304A
:1008B0008F272000A8007B08AB00AA002808AC0006
:1008C000B101B201310EF039B3002C0EB4000F3972
:1008D000B304B4062A0EA8000F39B404A806AB016D
:1008E0000310AB0DA80DB40DB30D3308803EB50059
:1008F0002F08803E3502031D872C30083402031D6B
:10090000872C2E082802031D872C2D082B02031884
:10091000982C20002B08AD002808AE003408B00049
:100920003308AF000314A71F0310031C512DDB2C49
:100930006A308F272000AC007B08AA00B1002C0889
:10094000B200B501350EF039B300320EB4000F39E4
:10095000B304B406310EA8000F39B404A806AB01E5
:100960000310AB0DA80DB40DB30D2F08803EB600DB
:100970003308803E3602031DC72C34083002031DA5
:10098000C72C28082E02031DC72C2B082D02031884
:10099000DB2C20002B08AD002808AE003408B00086
:1009A0003308AF002708803E803E031DD92C01305C
:1009B0002902031C512D62308F272000A8007B08DC
:1009C000AB002808803EB6002708803E3602031D93
:1009D000EB2C29082B020318F22C20002B08A9006D
:1009E0002808A7002000AB09A809AB0A0319A80A28
:1009F0002708803EB6002808803E3602031D022DDF
:100A00002B0829020318092D20002B08A90028080B
:100A1000A70067308F272000A8007B08AB00AA0042
:100A20002808AC00B101B2012908AB002708A800D2
:100A30000030A81BFF30B300B4002B08F5002808D5
:100A4000F6003408F7003308F8002A08F9002C08EB
:100A5000FA003108FB0032088D317D2585312000F8
:100A6000A8007B08AB007A08A7007908A90021003C
:100A7000B007200027080318270A0319412D210079
:100A8000B10720002B0803182B0A0319492D210058
:100A9000B207200028080318280A0319512D210045
:100AA000B30720002E0E0F39AD00300EAE00F03926
:100AB000AD04AE062F0EB000F039AE04B006F03033
:100AC000B019B004AF01B01BAF030310AF1B031488
:100AD000AF0CB00CAE0CAD0C782D69308F27200018
:100AE000A7007B08A900AD002708AE00B001AF0148
:100AF00020002D082100C20008006D308F27200043
:100B0000AC007B08AD00AE0005302E020318F52DB9
:100B100063308F272000AC007B08AD00AF0064304D
:100B20008F272000AC007B08AD00AD0A0319AC0A8A
:100B300009302F02031C9E2D0830AF001330FB003C
:100B400020002E088F319A2785312000B000031035
:100B50002F0DAE003007AE002E0AB0008F27200008
:100B6000B1007B08B00002302E07B2008F272000B2
:100B7000B3007B08B20031082C02031DC12D3008E0
:100B80002D02031CEE2D20003208FA003308FB0072
:100B90006130522720002F08083A0319DA2D03305C
:100BA000AE072E088F272000B0007B08AE0030046F
:100BB000031DE12D0530FA000030FB006D30522797
:100BC000F52D2000AD01AC01AF0A2F08AE00B00139
:100BD0002E08FA003008FB006330522720002D0851
:100BE000FA002C08FB006430522708002000A00007
:100BF00001302005A100210EF039A2000310A20D42
:100C00000310A20D3C302204A1000630A005031001
:100C1000200CA200220AA000210420009C00080051
:100C20002000A9007B08A8007A08AB000314A91FC4
:100C30000310031C242E210041122000A809A90939
:100C4000A80A0319A90A262E210041160030200007
:100C50002B0403192E2E2100C11241152000290852
:100C6000803E7D3E031D362EE8302802031C462EB2
:100C700020002808AA002908AC002A08FB002C083C
:100C8000E9262000A9007B08A800AB012000290864
:100C9000803E803E031D4E2E64302802031C822EAF
:100CA00020002808AA002908AC00AD0120002C086B
:100CB000803E803E031D5E2E64302A02031C672E98
:100CC0009C302000AA07031CAC03AD0A562E20005E
:100CD0002A08A8002C08A9000F30AD052D08F63E03
:100CE000AD0007300318013EAA002D08FA002A08BB
:100CF000FB0080308F316B2786312000AC00210053
:100D0000BE00852EFF302100BE0020002908803E55
:100D1000803E031D8D2E0A30280203189A2E2000D3
:100D20002B08031D9A2E21003E082000AA00FF3A3E
:100D30000319D02E20002808AA002908AC00AD0114
:100D400020002C08803E803E031DA82E0A302A0277
:100D5000031CB12EF6302000AA07031CAC03AD0A19
:100D6000A02E20002A08A8002C08A9002D08F63E75
:100D7000AD0007300318013EAA002D08FA002A082A
:100D8000FB0080308F316B2786312000AC002100C2
:100D9000BF0020002B080319D32E21003F10D32EB3
:100DA000FF302100BF0020002808AB00F63EA8005D
:100DB00007300318013EA9002808FA002908FB00A3
:100DC00080308F316B2786312000AB002100C000BE
:100DD00008002000A0007B08A1000310200CA20046
:100DE000210CA3000310200CA400210CA60003106A
:100DF000A40CA60C2608A30724080318240FA20796
:100E0000230E0F39A600220EA400F039A604A40672
:100E10002608A30724080318240FA2072208A60007
:100E2000A4012608A30724080318240FA20703100F
:100E3000A20CA30C0310A20CA30C0310A20CA30C75
:100E40000310230DA600220DA4000310A60DA40D6F
:100E50000310A60DA40D0310230DA500220DA7005D
:100E60002508A60727080318270FA4072608A102AC
:100E70002408031C240FA0020630A1070318A00AAF
:100E8000210E0F39A600200EA400F039A604A406F6
:100E90002608A30724080318240FA2072308FB0031
:100EA000220808002000A7007B08A9007A08A800F3
:100EB00027088F272000AB007B08AA002806031D07
:100EC000652F2B08290603198E2F03102000270DEC
:100ED000AA0020002A0823009100200028082300EF
:100EE000930015139513151520008B13553023000F
:100EF0009600AA309600951420008B172300151138
:100F000023009518802F2000121220002908A80025
:100F1000A9012A08A700AA0A271C692F0800200097
:100F2000A000A101A2010310200DA30020002308AE
:100F30002300910015139513151413082000A00029
:100F4000A4012008A600A5012208A000A4012008F1
:100F50002504A10024082604A2002308A000A30A57
:100F6000201C962F2108FB002208080000340034C2
:100F7000D534FD34C134FE345934FF34CF34FF341A
:100F80003034003486340034D33400341A3401341D
:100F90005C3401349C340134DA34013416340234C4
:100FA000513402348C340234C734023402340334F2
:100FB0003F3403347D340334BD340334013404340A
:100FC0004834043494340434E53404343F34053470
:100FD000A4340534173406349E34063444340734BC
:100FE0001E3408345D340934AB340B340334B73465
:100FF0000D342534B1346134413437340134213473
:1010000020008B1322000D082000D00021000E08C4
:101010002000D10022008D01D83021008E00031065
:101020002100470D2000D200D30120008E1F1A2876
:101030002000D30A20005208D4005308D2005404E0
:101040002100C7000310470D2000D200D30120006B
:101050000E1E2C282000D30A20005208D40053086A
:10106000D20054042100C7000310470D2000D20015
:10107000D30120000E1F3E282000D30A2000520872
:10108000D4005308D20054042100C7000310470DB8
:101090002000D200D30120008E1D50282000D30A4A
:1010A00020005208D4005308D20054042100C70085
:1010B0002000500822008D002000510821008E00E1
:1010C00020008B1721004608031DC6030D302100A8
:1010D00043020318712C08308A007230430703184A
:1010E0008A0A82007F28E928D1283A2955297B29B4
:1010F0009F29C329CF29132AAC2A4F2B982B88303C
:10110000210047052000D000083A031D8E28323008
:101110002100C60001302100C300732C00302100E3
:1011200047040319732C7F3087318F2788312000C3
:10113000D1007B08D00051040319732C33302100F7
:1011400047052000D000033A031DAA2802302100E1
:10115000C300732C2230210047052000D000023A42
:10116000031DB62803302100C300732C1130210069
:1011700047052000D000013A031DC5281930210081
:10118000C60004302100C300732C44302100470501
:101190002000D000403A031D732C07302100C3000B
:1011A000732C0030FA006430FB00003086311026CA
:1011B000883121003E102100C11641153330210035
:1011C00047052000D000333A0319732C2100C301D6
:1011D000732C003021004604031D19297F3087310C
:1011E0008F2788312000D2007B08D000D30053081D
:1011F000003003190130D000D400D501D41BD50331
:101200005408FA005508FB007F3087315227893196
:10121000200053080319152922000C100C128C12FF
:101220002800171120009310162901002100C30186
:10123000732C8830210047052000D000883A03191C
:10124000732CD00123001E1F27292000D00A200064
:101250005008003003190130D300D000500C03189F
:10126000332923001E13031C372923001E172100D6
:10127000C301732C613087318F2789312000D3005F
:101280007B08D0000130FA005008FB00530886317B
:10129000102689312230210047052000D000223A53
:1012A0000319732C2100C301732C6D3087318F27F4
:1012B00089312000D3007B08D000D4000030FB002F
:1012C0005408852405302000540203187029210099
:1012D0004608031D70291130C60005302100C300E7
:1012E0001130210047052000D000113A0319732C5A
:1012F0002100C301732C633087318F27893120008F
:10130000D3007B08D0000030FA005008FB005308DF
:1013100086311026893121004608031D9429193091
:10132000C60006302100C30011302100470520000F
:10133000D000113A0319732C2100C301732C6430BF
:1013400087318F2789312000D3007B08D0000030FF
:10135000FA005008FB00530886311026893121001D
:101360004608031DB8291930C60004302100C30007
:101370001130210047052000D000113A0319732CC9
:101380002100C301732C0130FB0021004408852497
:10139000C8302100C60008302100C300732C003083
:1013A000210046040319DC2988302100470520006C
:1013B000D000803A031DDF292100C301732C2230A5
:1013C000210047052000D000203A031DF12921000B
:1013D000C40A063044020318C40107302100C300C8
:1013E000732C1130210047052000D000103A031D56
:1013F000052A2100C40306304402031C012A0530DB
:10140000C40007302100C300732C4430210047057D
:101410002000D000403A031D732C2100C501093083
:101420002100C300732C21004116C116411505305F
:10143000210044020318442A2100451C262A853035
:101440002100BE00D1302100BF002C2A61302100D4
:10145000BE0019302100BF0003102100450C200000
:10146000D000F63ED00007300318013ED3005008EC
:10147000FA005308FB0080308F316B278A3120003F
:10148000D4002100C000A52A0730FB002100450838
:101490008F319A278A312000D000D3015008A63E10
:1014A000D00053080318530F0E3ED3005008FA0023
:1014B0005308FB0080308F316B278A312000D40025
:1014C0002100BE000730FB00210045088F319A271C
:1014D0008A312000D000D3015008A63ED000530826
:1014E0000318530F0E3ED300D00A0319D30A500835
:1014F000FA005308FB0080308F316B278A312000BF
:10150000D4002100BF000730FB00210045088F31C7
:101510009A278A312000D000D3015008A63ED0007F
:1015200053080318530F0E3ED3000230D0070318A0
:10153000D30A5008FA005308FB0080308F316B2724
:101540008A312000D4002100C000C8302100C6002C
:101550000A302100C300732C003021004604031D13
:10156000B42A2100C301732C8830210047052000D4
:10157000D000803A031DC02A07302100C300732C1D
:101580002230210047052000D000203A031DE12A27
:101590002100C50A0530210044020318D62A133061
:1015A00021004502031CDD2AC501DD2A0F30210080
:1015B0004502031CFF2AC501FF2A09302100C30090
:1015C000732C1130210047052000D000103A031D74
:1015D0001F2B2100C5030530210044020318F82AFF
:1015E000133021004502031C1B2B1230C5001B2B9E
:1015F0000F3021004502031CFF2A0E30C5006D305C
:1016000087318F278B312000D3007B08D000D40096
:1016100005305402031C1B2B21004508043A031D0E
:10162000142BC50AC50A1B2B21004508053A031DCA
:101630001B2BFE30C50709302100C300732C44303A
:10164000210047052000D000403A031D732C1330C1
:10165000FB00210044088F319A278B312000D000F5
:10166000210045082000D007500887318F278B3193
:101670002000D7007B08D60020005008FA00200088
:101680005608FB005708CE242000D7007B08D60060
:10169000C8302100C6000B302100C300732C053078
:1016A0002100440203186B2B2100451C612B0030E4
:1016B000FA0020005608FB005708863110268B31AF
:1016C000912B0130FA0020005608FB0057088631A4
:1016D00010268B31912B04302100450203187A2B00
:1016E0000130FA0020005608FB005708863110260A
:1016F0008B31912B0E30210045020318892B0030CD
:10170000FA0020005608FB005708863110268B315E
:10171000912B200056082000D0000030FB0050081C
:101720008524C8302100C6000C302100C300732C72
:101730001330FB00210044088F319A278B312000A1
:10174000D000210045082000D00721004608031DD5
:10175000AC2B2100C301732C8830210047052000E9
:10176000D300803A031DB82B09302100C300732C2D
:101770002100C71ECE2B2000D60A0319D70A57080E
:10178000803E7D3E031DC62BE9305602031CE42B30
:1017900009302000D6070318D70AE42B2100471E82
:1017A000FB2BFF302000D607031CD7035708803ED1
:1017B0007D3E031DDD2BE9305602031CE42BF73080
:1017C0002000D607031CD70320005008FA00200091
:1017D0005608FB005708CE242000D7007B08D6000F
:1017E0001F3028001D02031CF72BF8309D070B301B
:1017F0002100C300732C4430210047052000D30092
:10180000403A031D6D2C21004408053A031D5F2C4E
:10181000210045080E3A031D532C0030FA00003019
:10182000FB006330873152278C310030FA000030E2
:10183000FB006430873152278C3120005708803EEE
:10184000803E031D252C0530560203185F2C200016
:1018500056082000D3001330FB0053088F319A271D
:101860008C312000D40087318F278C312000D500A7
:101870007B08D300FA005508FB00613087315227FE
:101880008C312000D40A540887318F278C312000F6
:10189000D4007B08D3005404031D5F2C05302000C6
:1018A000D600D7015F2C21004508063A031D5F2CA6
:1018B000200056082000D3008531F6258C31200009
:1018C0005608FA005708FB002000500887315227BD
:1018D0008C3109302100C300732CFA3028009D00A0
:1018E000732C2100C301210043080030031901308B
:1018F0002000D000D300530C0318802C2000991333
:10190000031C842C2000991708002000C2007B08CB
:10191000C10021004116C1164115C1140530200037
:1019200042020318AC2C19302100BE00DD3021002A
:10193000BF0020004208F63EC40007300318013EF5
:10194000C3004408FA004308FB0080308F316B2746
:101950008C312100C000CD2C00302000410403193F
:10196000BB2C61302100BE0009302100BF00C9300E
:101970002100C000CD2CCD302100BE00FF30210061
:10198000C0000630200042020318CA2CC9302100D2
:10199000BF00CD2C03302100BF0008002000C9008B
:1019A0007B08C8007A08CA005F304A020318FD2C81
:1019B0004A1CEB2CE730F7000330F8000030F90048
:1019C0000030FA004808FB00490849252000C900FA
:1019D0007B08C800442DC430F7000930F80070308F
:1019E000F900FE30FA0020004808FB0049084925AC
:1019F0002000C9007B08C800442DA1302000CA0780
:101A00000730FB004A088F319A278D312000CB0028
:101A1000CC014B08A63ECA000E30CD004C0803187E
:101A20004C0FCD0703304A07CB00CC01CC0D4D083D
:101A3000CC074B08FA004C08FB0080308F317D2723
:101A40008D312000CF007B08CE000530CA07031877
:101A5000CD0A4A08FA004D08FB0080308F317D27FF
:101A60008D312000CC007B08CB00F7004C08F8003B
:101A70004E08F9004F08FA004808FB0049084925BC
:101A80002000C9007B08C80020004808FB00490866
:101A900008002000C2007B08C1007A08C400790851
:101AA000C3007808C6007708C5004608803EC70016
:101AB0004208803E4702031D5F2D4108450203187E
:101AC000662D20004308FB0044087C2D20004208BE
:101AD000803EC7004408803E4702031D712D430825
:101AE00041020318782D20004508FB0046087C2D94
:101AF00020004108FB00420808002000DB007B08B2
:101B0000DA007A08D9007908D8007808DF00770869
:101B1000DE007608DD007508DC00E001E101E2018D
:101B2000E3010830E4002000581CA42D5C08E00705
:101B30005D0803185D0FE1075E0803185E0FE207FA
:101B40005F0803185F0FE30720005808E5005908F5
:101B5000E6005A08E7005B08E800661CC32D5E0833
:101B6000E8005D08E700E5010030E0075C08E600FA
:101B70000318660FE10767080318670FE207680894
:101B80000318680FE30720005808E5005908E6002D
:101B90005A08E7005B08E800671CE22D5D08E800D2
:101BA0005C08E700E601E5010030E00700300318BB
:101BB000660FE10767080318670FE2076808031854
:101BC000680FE30720005808E5005908E6005A08A6
:101BD000E7005B08E800681C002E5C08E800E701ED
:101BE000E601E5010030E00700300318660FE10769
:101BF00067080318670FE20768080318680FE30710
:101C000020005808E5005908E6005A08E7005B087C
:101C1000E8000310680CDB00670CDA00660CD900E2
:101C2000650CD8000310DC0DDD0DDE0DDF0D640842
:101C3000E5006503E4006408031D932D6008F900C6
:101C40006108FA006208FB00630808000F30FA0020
:101C50000F30FB0080308F317D278E312100A100B5
:101C60007B08A0001130A2000F30A3002100200843
:101C7000A4002108A500FF30A007031CA10324082D
:101C800025040319A32E04302207A400A501A50DE5
:101C90002308A5072408FA002508FB0080308F31AF
:101CA0007D278E312100A7007B08A6002208FA00BC
:101CB0002308FB0080308F317D278E312100A90061
:101CC000A5007B08A800A40002302207A400A501FB
:101CD000A50D2308A5072408FA002508FB0080307D
:101CE0008F317D278E312100A500AB007B08A40039
:101CF000AA0021002608AA002708AB00FF30A6078B
:101D0000031CA7032A082B0403199D2E2808FA0098
:101D10002908FB0080308F316B278E312100AA000B
:101D200024088400250885002A088000A80A0319D1
:101D3000A90AA40A0319A50A792E06302100A207D0
:101D40000318A30A362E8031B9280800C934CD34CF
:101D5000FF349C34FF3464340034C934CD340D3442
:101D60009C34FF346434003461341934FF347034EB
:101D7000FE34C43409348534B734FF3400340034BD
:101D8000F43401346134C934FF340034003408348D
:101D900000348534D134FF3400340034E734033464
:101DA00019348534FF340034003404340034CD3425
:101DB0001934FF3400340034E7340334CD34B734FD
:101DC000FF3400340034E7340334CD348534FF3439
:101DD00000340034E734033403341934FF3400345E
:101DE0000034FF3400340334CB34FF340034003487
:101DF000FF34003403349134FF3400340034FF34B2
:101E000000341934C134FF34003400340134003458
:101E1000DD34D534FF3400340034063400340F345C
:101E2000003403340034C134003401340034BD3490
:101E30000F346E34003402340034BF340F34B43401
:101E4000003402340034C1340F34B6340034023468
:101E50000034C3340F34B834003402340034B9349D
:101E60000F34B034003404340034C9340F34C23475
:101E7000003401340034C5340F34BA340034023431
:101E80000034C7340F34BC34003402340034CA3454
:101E90000F34C334003401340034CB340F34C43431
:101EA000003401340034CC340F34C53400340134F0
:101EB0000034CD340F34C634003401340034CE3411
:101EC0000F34C734003401340034CF340F34C834F5
:101ED000003401340034003A0319722F803A031998
:101EE000782F00347A0884007B08850000080800F9
:101EF0007B088A007A0882000800003A0319852FBF
:101F0000803A03198D2FFB0100347A0884007B0886
:101F100085001200FB00000808008F317827F900C7
:101F2000FA0FFB03FB0A8F317827F8007908FB00D2
:101F3000780808002000E9007B08EA00EB0108307F
:101F4000EC002000691CA62F6A08EB072000690836
:101F5000ED0003106D0CE90003106A0DED00EA00BE
:101F60006C08ED006D03EC006C08031DA12F6B08DD
:101F700008000034003400340034003400340034ED
:101F800000340034003400340034FF340734FF34AC
:101F9000073400340034003400340034003400349A
:020000040001F9
:02000E00D40F0D
:02001000FF3AB5
:00000001FF
